:020000040800F2
:100000000004002031020008310300083103000819
:1000100031030008310300083103000831030008F0
:1000200031030008310300083103000861030008B0
:1000300031030008310300083103000831040008CF
:1000400031030008310300083103000831030008C0
:1000500031030008310300083103000831030008B0
:100060003103000831030008310300084111000882
:1000700071110008B1110008F111000831120008D7
:1000800061120008A11200083103000831030008C2
:100090003103000831030008310300083103000870
:1000A0003103000831030008310300083103000860
:1000B0003103000831030008310300083103000850
:1000C0003103000831030008310300083103000840
:1000D0003103000831030008011C00083103000847
:1000E0003103000831030008310300083103000820
:1000F000310300083103000831030008E112000851
:1001000031030008310300083103000831030008FF
:1001100031030008310300083103000831030008EF
:10012000211300085113000891130008D11300088F
:1001300011140008310300083103000831030008DE
:1001400031030008310300083103000831030008BF
:100150004114000881140008C1140008211C000883
:10016000310300083103000831030008310300089F
:10017000310300083103000831030008310300088F
:10018000310300083103000831030008310300087F
:10019000310300083103000831030008310300086F
:0C01A0003103000831030008310300089F
:1001B00008B500F095FE00F0BBF91048104900F0BA
:1001C0000FFF1048042140F2823201F0B9FB0D48C4
:1001D000082140F2823201F0B3FB084800F088FFAA
:1001E000064800F05DFF0548074A052100F020FFA2
:1001F0004FF4FA7000F0BCFDEFE700BF740E002072
:100200000008002000000240E0260008AFF3008054
:10021000704700BFAFF30080AFF30080AFF3008002
:10022000FEE700BFAFF30080AFF30080AFF30080C4
:1002300072B6314880F30988022383F31488BFF330
:100240006F8F2E4B2E4A93420BD2D9430A4422F091
:10025000030204321A444FF0553143F8041B934211
:10026000FBD1284B83420CD2274A191D521A22F087
:10027000030204321A444FF0553143F8041B9342F1
:10028000FBD101F01DFE214A214B9A420CD2D043F2
:10029000184420F003001F4B0430184453F8041B8B
:1002A00042F8041B8342F9D11B4B1C4A93420AD2E9
:1002B000D9430A4422F0030204321A44002143F8CD
:1002C000041B9342FBD1164D164CFFF7A1FFAC4225
:1002D00004D254F8043B9847AC42FAD3124D134C65
:1002E000FFF766FFAC4204D254F8043B9847AC4297
:1002F000FAD3FFF795FF00BF0008002000000020A0
:100300000004002000040020030800200008002052
:1003100020080020E826000820080020E80E002021
:10032000AC010008AC010008AC010008AC010008F9
:10033000FEE700BFAFF30080AFF30080AFF30080B3
:1003400072B6FEE7AFF30080AFF30080AFF300803A
:1003500000F076F900F03CFC00F08AF900DF00BF05
:10036000EFF30983203383F30988002383F3118893
:10037000704700BFAFF30080AFF30080AFF30080A1
:1003800008B5094B094A002199600720DA6010215D
:1003900000F0A6F80A20202100F0A2F80B2080210E
:1003A000BDE8084000F09CB800ED00E00003FA054D
:1003B000202383F31188184B5B6813F400631AD071
:1003C000EFF309834FF0807243F8042CA3F120026D
:1003D00082F3098811498A6992F8230070B108688C
:1003E000916882688A4294BF002201227AB10C4A45
:1003F00043F8082C704783F31188704708689168A8
:1004000082688A4234BF00220122002AEFD1054AC5
:1004100043F8082C704700BF00ED00E0740D002089
:10042000510300085C030008AFF30080AFF30080C5
:1004300008B500F075F9202383F3118800F038F92E
:1004400000F0AEF800F04CF9002383F3118800F0BF
:1004500087F9BDE80840FFF7ABBF00BFAFF30080EE
:100460002DE9F04FC1F80CD0D0F80CD0BDE8F08FDA
:1004700008B500F0FDF8002383F311882846A04753
:1004800000F0B6FC08BD00BFAFF30080AFF3008002
:1004900020F0030202F1604202F5614270B44309A8
:1004A00000F00304D2F80053E400FF269B00A640AE
:1004B00003F16043A14025EA060503F561430124E9
:1004C00000F01F0004FA00F02943C2F8001370BCCA
:1004D000C3F8800118607047AFF30080AFF300806D
:1004E00020F0030303F1604303F56D4300F00300C4
:1004F00010B4C0009A69FF24844022EA04028140BB
:10050000114399615DF8044B704700BFAFF3008061
:10051000024B034A9B699A61FEE700BF740D0020FD
:1005200020200008AFF30080AFF30080AFF300801D
:1005300030B583B0FFF724FF00F002FA00F098F91D
:1005400000F076FC00F0BCFC00F05AF940210E48A7
:100550000E4D00F04DFB01240D4BC36180F820408F
:10056000A86100F055F8002383F3118862B6AA69E8
:1005700008499161084800932246084BE02100F0A9
:10058000BFFB03B030BD00BF20080020740D002069
:1005900000040020A02100087008002011050008B8
:1005A000F8B500F0FDF8164B9B6993F8232012B1C3
:1005B000013A83F823205A6A124D01325A62EB68DD
:1005C0002C680133AC42EB6018D0A768013FA760EC
:1005D000A7B92368E668E7605D602B6000F080F8EB
:1005E000002383F311882069B047202383F3118807
:1005F00000F05EF82C68A368002BEAD0F8BD00BFBD
:10060000740D0020640D0020AFF30080AFF3008074
:10061000054B1B6813B9054B1B6823B1044B054AF6
:100620001A60FFF78DBE7047500900205C0D002056
:10063000600D002040200008AFF30080AFF3008081
:10064000074B1B6810B5074C0BB9236823B1064B49
:10065000064A1A60FFF774FE0123236010BD00BF35
:10066000500900205C0D0020600D0020482000088B
:10067000094B1B6810B5094C2BB92368002B02DD10
:100680000023236010BD064B064A1A60FFF758FE90
:100690000023236010BD00BF500900205C0D002026
:1006A000600D002050200008AFF30080AFF3008001
:1006B000074B1B68002B10B5064C01DD236823B1E6
:1006C000054B064A1A60FFF73BFE0123236010BD6D
:1006D000500900205C0D0020600D0020582000080B
:1006E000094B1B68002B10B5084C05DD2368002B57
:1006F00002DD0023236010BD054B064A1A60FFF798
:100700001FFE0023236010BD500900205C0D002057
:10071000600D002060200008AFF30080AFF3008080
:1007200010B5202383F31188094C2368002B02DBCA
:10073000084A12682AB1084B084A1A60FFF700FEFF
:10074000236801332360002383F3118810BD00BFA9
:10075000500900205C0D0020600D0020682000087A
:1007600010B5202383F31188094C2368002B02DD88
:10077000084A12682AB1084B084A1A60FFF7E0FDE0
:100780002368013B2360002383F3118810BD00BF61
:10079000500900205C0D0020600D00207020000832
:1007A000064B1B68002B04DB054B1B68002B00DD90
:1007B0007047044B044A1A60FFF7C2BD500900207D
:1007C0005C0D0020600D002078200008AFF3008051
:1007D000064B1B6823B9064B1B68002B00DD7047D6
:1007E000044B054A1A60FFF7ABBD00BF500900205B
:1007F0005C0D0020600D002080200008AFF3008019
:10080000034A1346402143F8081B5360704700BF5A
:1008100054090020AFF30080AFF30080AFF30080F5
:100820000C4A0D495368896910B40C4CE4681C608B
:100830005960816A996090F820101973103302F59D
:1008400081618B4228BF02F1080353605DF8044BBD
:10085000704700BF54090020740D0020640D002073
:10086000014B1860FFF76CBD600D0020AFF30080F6
:10087000044B4FF0FF3100225B601B609960DA602F
:10088000704700BF640D0020AFF30080AFF300801D
:10089000F8B505460C4616461F46FFF781FFCDB159
:1008A000C6B1BCB10D492F610B68EE609A689442E5
:1008B00004D91B68A41A9A68A242FAD35A686A60DB
:1008C0008B422B605D601560AC6002D09968091B9B
:1008D0009960F8BD0248FFF7C3FFE3E7640D00200D
:1008E00090200008AFF30080AFF30080AFF30080EA
:1008F00010B50446FFF754FF84B1E36893B1236851
:100900000A4A934203D09968A2680A449A606268CE
:100910001360216800234A60E36010BD0448FFF7BC
:100920009FFFEAE70348FFF79BFFE8E7640D00201D
:10093000A0200008B0200008AFF30080AFF30080D3
:10094000034B00225B601B605B611B619A60704718
:10095000740D0020AFF30080AFF30080AFF3008090
:1009600010B50446FFF71CFF94F820308BB10E2B16
:100970000FD00022A168094B84F820201B689A68D8
:100980008A42FBD25A686260236020465C60146031
:1009900010BD0348FFF764FFEBE700BF740D0020B4
:1009A000D0200008AFF30080AFF30080AFF30080E9
:1009B00010B52023044683F31188FFF779FE94F8DD
:1009C00020300D2B11D8DFE803F016101007100BA4
:1009D000101010101010100BA26A9368013393606E
:1009E00094E80C001A60226853604FF0FF33A36252
:1009F0002046FFF7B5FFFFF773FE002383F311884E
:100A000010BD00BFAFF30080AFF30080AFF30080F4
:100A100070B5114C0646FFF7DBFE2368A5691A681E
:100A200085F820601420012185F8230054602846B1
:100A300083F820102260A361FFF7F2FEEA69ADF1AE
:100A400024039A4202D90548FFF70AFFA069294604
:100A5000BDE87040FFF704BD740D0020E4200008DD
:100A600070B50C4686B00646FFF7B2FE631C12D086
:100A70000D4D0E4AAB69214601A8FFF709FF30462C
:100A8000FFF7C6FF049B13B101A8FFF731FFAB6965
:100A9000986A06B070BD044D3046FFF7B9FFAB69E8
:100AA000986A06B070BD00BF740D0020B10900083F
:100AB00070B5164D04460E46FFF78AFEA869A26877
:100AC0008368A6629A4213D9FFF74AFF01230646BC
:100AD00084F82030AC61FFF7A3FEF269ADF1240386
:100AE0009A420AD820463146BDE87040FFF7B8BCAC
:100AF0002046BDE87040FFF733BF0548FFF7B0FE62
:100B000020463146BDE87040FFF7AABC740D0020B6
:100B1000E4200008AFF30080AFF30080AFF3008063
:100B200070B5104C2368A5691A682260142101264B
:100B30005460284683F8206085F82310A361FFF7EE
:100B40000FFF2846FFF76CFEEA69ADF124039A42D5
:100B500002D90548FFF784FEA0692946BDE8704028
:100B6000FFF77EBC740D0020E4200008AFF3008086
:100B700070B5154D2A68AC691368A0682B60012612
:100B800000215D6082F820601346AA6184F820107D
:100B900000E01B689A688242FBD85A686260236052
:100BA00020465C601460FFF73BFEE269ADF1240370
:100BB0009A4202D90548FFF753FEA8692146BDE8CD
:100BC0007040FFF74DBC00BF740D0020E42000080A
:100BD000044B9B6993F823300BB1FFF7C9BFFFF7B4
:100BE0009FBF00BF740D0020AFF30080AFF3008003
:100BF0002DE9F043134C416466694661002200F11F
:100C000030054FF002094FF014084FF0010C00F1CD
:100C10002C0E00F14C078160046180F82090606127
:100C200080F8238080F822C080F821200264C2630B
:100C3000426282613061C0F82CE0C76145630563A0
:100C4000BDE8F083740D0020AFF30080AFF30080A7
:100C50002DE9F84F0446894616469846FFF7A0FD51
:100C600014B1B9F1CF0F38D81F48FFF7F9FD1F4D68
:100C7000DFF87CB06F69A9F124016018E0600023FF
:100C800044F801804FF0020A4FF014094FF0010CB4
:100C90000A994160C0F820B004F1300204F12C0E32
:100CA00004F14C0884F820A084F8213084F82390C3
:100CB00084F822C0A6602561676166646C61236464
:100CC000E3636362A36120463C61C4F82CE0626385
:100CD0002263C4F81C80BDE8F88F7F2EC4D8B8F119
:100CE000000FC4D1C0E700BF00210008740D002030
:100CF00071040008AFF30080AFF30080AFF3008011
:100D00002DE9F04782B099460A9E074688469246EA
:100D100000F14C040346FF2503F8015B9C42FBD124
:100D200007EB08039C4204D2552504F8015B9C4262
:100D3000FBD1202383F31188FFF782FC4B465246F8
:100D4000414600963846FFF783FF00210446FFF72F
:100D5000AFFEFFF78DFC002383F31188204602B01D
:100D6000BDE8F087AFF30080AFF30080AFF3008001
:100D700010B5044610B90948FFF772FD202383F32C
:100D80001188FFF75DFC21460620FFF769FEFFF79B
:100D90006FFC002383F3118810BD00BF40210008C1
:100DA00038B5104B9C692546A06255F82C0FA84217
:100DB00006D00368E362FFF7D3FDE06AA842F8D1EA
:100DC00094F821309B0704D1636922691A61226972
:100DD00053610E20FFF71CFE0348BDE83840FFF7C3
:100DE0003FBD00BF740D002050210008AFF300800C
:100DF00010B52023044683F31188FFF721FC204619
:100E0000BDE81040FFF7CCBFAFF30080AFF3008028
:100E100010B5044620B1002364602460A36010BDB7
:100E20000148FFF71DFDF6E7C0210008AFF3008081
:100E3000054A064B0648074922F0070223F007033C
:100E400002600B60704700BFEF0E002000C0012061
:100E5000940D0020900D0020AFF30080AFF30080D0
:100E600010B50446FFF79CFC0649074B08681A6852
:100E7000E31D23F00703121A93429ABF1B180B605D
:100E8000002010BD940D0020900D0020AFF30080D5
:100E900010B52023044683F31188FFF7D1FB2046C9
:100EA000FFF7DEFF0446FFF7E3FB002383F311881F
:100EB000204610BDAFF30080AFF30080AFF3008099
:100EC000044B054A1A6003F1100000229A60DA60B0
:100ED000FFF79EBF980D0020910E0008AFF3008031
:100EE00008B500F08DFB00F04BF8054800F040FC21
:100EF00000F00EF800F064F8BDE8084000F0E8BF2C
:100F0000E0250008AFF30080AFF30080AFF300806E
:100F100000F06EBDAFF30080AFF30080AFF3008050
:100F2000002301220270436083600C30FFF770BF22
:100F3000014B5B6883607047001000E0AFF30080F6
:100F40000B4A0C498368526810B40C68C168D31A04
:100F50001B1B8B42836006D802695DF8044B9342E9
:100F600038BF03617047C3605DF8044B704700BF32
:100F7000001000E0B80D0020AFF30080AFF3008058
:100F800010B586B00A4C0B4B0B4901934FF0FF3064
:100F900000230590236004934B68084A039301A83B
:100FA0000292FFF7CDFF039B236006B010BD00BF88
:100FB000B80D0020310F0008001000E0410F0008BC
:100FC00000F03EBEAFF30080AFF30080AFF30080CF
:100FD000002301220270437083704360704700BF9A
:100FE00038B50D460446C0B1B9B1202383F311884A
:100FF000FFF726FB2378013B012B02D90948FFF7B5
:101000002FFC2046656000F043FE02232370FFF7AB
:101010002FFB002383F3118838BD0348FFF720FC22
:10102000E3E700BF8022000870220008AFF30080D1
:1010300070B50D461646044600B1E9B91248FFF7EF
:101040000FFC202383F31188FFF7FAFA2378022B91
:1010500002D00E48FFF704FC6378012B0FD029461D
:101060003246204600F0E4FE01236370FFF700FBE8
:10107000002383F3118870BD002AE2D1DEE7044823
:10108000FFF7EEFBEBE700BFB0220008C422000828
:10109000D8220008AFF30080AFF30080AFF30080E8
:1010A00038B50446E0B1202383F31188FFF7C8FA6E
:1010B0002378022B02D00C48FFF7D2FB6378012B78
:1010C00007D00025FFF7D4FA002383F311882846C0
:1010D00038BD204600F0BCFE002305466370F1E7F2
:1010E0000248FFF7BDFBDEE7442300083023000879
:1010F00038B50446E0B1202383F31188FFF7A0FA46
:101100002378022B02D00C48FFF7AAFBA378012B0F
:1011100007D00025FFF7ACFA002383F31188284697
:1011200038BD204600F0A4FE00230546A370F1E779
:101130000248FFF795FBDEE724240008102400088E
:1011400008B5FFF7EDFA084B084A196801F03D01B0
:10115000996013680BB150689847FFF701FBBDE831
:101160000840FFF725B900BF00600240BC0D002019
:1011700010B5FFF7D5FA094B094819688268890943
:1011800001F03D018C019C600AB1C0689047FFF7F7
:10119000E7FABDE81040FFF70BB900BF006002405E
:1011A000BC0D0020AFF30080AFF30080AFF30080F0
:1011B00010B5FFF7B5FA094B094819680269090C1F
:1011C00001F03D010C049C600AB140699047FFF7B3
:1011D000C7FABDE81040FFF7EBB800BF006002405F
:1011E000BC0D0020AFF30080AFF30080AFF30080B0
:1011F00010B5FFF795FA094B094819688269890DFE
:1012000001F03D018C059C600AB1C0699047FFF771
:10121000A7FABDE81040FFF7CBB800BF006002405E
:10122000BC0D0020AFF30080AFF30080AFF300806F
:1012300008B5FFF775FA084B08485968026A01F0CB
:101240003D01D9600AB1406A9047FFF789FABDE8CD
:101250000840FFF7ADB800BF00600240BC0D0020A1
:1012600010B5FFF75DFA094B09485968826A890988
:1012700001F03D018C01DC600AB1C06A9047FFF7C4
:101280006FFABDE81040FFF793B800BF006002405E
:10129000BC0D0020AFF30080AFF30080AFF30080FF
:1012A00010B5FFF73DFA094B09485968026B090C64
:1012B00001F03D010C04DC600AB1406B9047FFF780
:1012C0004FFABDE81040FFF773B800BF006002405E
:1012D000BC0D0020AFF30080AFF30080AFF30080BF
:1012E00010B5FFF71DFA094B09485968826B890D43
:1012F00001F03D018C05DC600AB1C06B9047FFF73F
:101300002FFABDE81040FFF753B800BF006002405D
:10131000BC0D0020AFF30080AFF30080AFF300807E
:1013200008B5FFF7FDF9084B08481968026C01F091
:101330003D0199600AB1406C9047FFF711FABDE892
:101340000840FFF735B800BF00640240BC0D002024
:1013500010B5FFF7E5F9094B09481968826C89094E
:1013600001F03D018C019C600AB1C06C9047FFF711
:10137000F7F9BDE81040FFF71BB800BF006402405A
:10138000BC0D0020AFF30080AFF30080AFF300800E
:1013900010B5FFF7C5F9094B09481968026D090C2A
:1013A00001F03D010C049C600AB1406D9047FFF7CD
:1013B000D7F9BDE81040FEF7FBBF00BF0064024054
:1013C000BC0D0020AFF30080AFF30080AFF30080CE
:1013D00010B5FFF7A5F9094B09481968826D890D09
:1013E00001F03D018C059C600AB1C06D9047FFF78C
:1013F000B7F9BDE81040FEF7DBBF00BF0064024054
:10140000BC0D0020AFF30080AFF30080AFF300808D
:1014100008B5FFF785F9084B08485968026E01F0D6
:101420003D01D9600AB1406E9047FFF799F9BDE8D8
:101430000840FEF7BDBF00BF00640240BC0D0020A5
:1014400010B5FFF76DF9094B09485968826E890993
:1014500001F03D018C01DC600AB1C06E9047FFF7DE
:101460007FF9BDE81040FEF7A3BF00BF0064024053
:10147000BC0D0020AFF30080AFF30080AFF300801D
:1014800010B5FFF74DF9094B09485968026F090C6F
:1014900001F03D010C04DC600AB1406F9047FFF79A
:1014A0005FF9BDE81040FEF783BF00BF0064024053
:1014B000BC0D0020AFF30080AFF30080AFF30080DD
:1014C00010B5FFF72DF9094B09485968826F890D4E
:1014D00001F03D018C05DC600AB1C06F9047FFF759
:1014E0003FF9BDE81040FEF763BF00BF0064024053
:1014F000BC0D0020AFF30080AFF30080AFF300809D
:101500000D4B30B400220D4D0D4C1A6011461346A0
:10151000A858016044F833100133102B02F10C027B
:10152000F6D10849084A4FF0FF338B6030BCCB60DE
:101530009360D360704700BF3C0E0020C0240008B9
:10154000BC0D00200060024000640240AFF3008048
:10155000F0B5054685B000283FD0244C6F7A266848
:10156000012000FA07FE1EEA060F2BD120484EEAA2
:10157000060600EBC70C16F0FF0F266040F8372078
:10158000CCF8043004D01B48036B43F4001303630E
:1015900016F47F4F18D12B68186820F01F001860D0
:1015A000186810F00104FBD12F7A6E683D20B84016
:1015B000212730601C605F6162B1A87A0901FEF7E3
:1015C00067FF204605B0F0BD0A48036B43F4800373
:1015D0000363E0E7104605B0F0BD074803930292AD
:1015E0000191FFF73DF901A90EC9B6E73C0E0020B5
:1015F000BC0D00200038024070240008AFF30080CA
:10160000204B21491A694FF0FF300022F0B51861D4
:101610001A615C6958615A611C6A1C4FDFF878E0F6
:101620001B4E1C4D64F080541C621A620724D3F8D0
:1016300024C058625A62C1F804E08A600C60F968FC
:1016400041F08071F960316841F001013160196C3D
:1016500041F080511964296841F480712960196F43
:1016600001F44071B1F5007F03D04FF48031196768
:101670001A67084A536823F400735360BDE8F040CA
:10168000FFF73EBF0038024010E000E0F0ED00E060
:10169000001000E0007000403F900200AFF30080B7
:1016A0002C492D4B4FF080504FF4404208641A6093
:1016B0000B6843F001030B600A68264B9007FBD5CB
:1016C0009A6822F003029A609A689A6019468B68B9
:1016D000204A13F00C03FAD1116801F0F9011160EE
:1016E0009360136843F4803313601168194B8903C6
:1016F000FBD55A6F42F001025A675A6F154990079D
:10170000FBD5164B4B600B68134A43F080730B609C
:1017100053685904FCD50F490A680E4B9201FBD55A
:101720000F4A1049996040F2057111609A6842F0C1
:1017300002029A601A469368064903F00C03082BCC
:10174000F9D14B6C43F480434B644B6E43F48043BC
:101750004B66704700380240007000400854400754
:10176000003C024000940838AFF30080AFF30080E3
:101770002DE9F04FDFF8B481DFF8B4C1D8F830A01C
:10178000DFF8B0E1634F644E644D654C6549664ACD
:10179000DFF8A4B140F2FF194AEA090AC8F830A0FC
:1017A000D8F850A04AEA0909C8F850904368CCF824
:1017B00004308368CCF80830C368CCF80C30036977
:1017C000CCF814304369CCF820308369CCF824304D
:1017D0000368CCF80030036ACEF80430436ACEF8D0
:1017E0000830836ACEF80C30C36ACEF81430036B2D
:1017F000CEF82030436BCEF82430C369CEF80030E9
:10180000C36B7B60036CBB60436CFB60836C7B6170
:10181000C36C3B62036D7B62836B3B60876D77605B
:10182000C76DB760076EF760476E7761876E376286
:10183000C76E7762476D3760466F6E60866FAE60C9
:10184000C66FEE60D0F880606E61D0F884602E6262
:10185000D0F888606E62066F2E60D0F89050656098
:10186000D0F89450A560D0F89850E560D0F89C501E
:101870006561D0F8A0502562D0F8A4506562D0F818
:101880008C502560D0F8AC404C60D0F8B0408C60F3
:10189000D0F8B440CC60D0F8B8404C61D0F8BC402F
:1018A0000C62D0F8C0404C62D0F8A8400C60D0F870
:1018B000C8105160D0F8CC109160D0F8D010D16031
:1018C000D0F8D4105161D0F8D8101162D0F8DC10E3
:1018D0005162D0F8C4101160D0F8E420CBF8042095
:1018E000D0F8E820CBF80820D0F8EC20CBF80C207A
:1018F000D0F8F020CBF81420D0F8F420CBF820203A
:10190000D0F8F820CBF82420D0F8E020CBF8002045
:10191000BDE8F08F00080240000C024000100240B9
:101920000014024000180240001C0240003802402F
:10193000000002400004024000200240AFF300809B
:101940002DE9F04F4FF00F0C02F0030EC2F38007A9
:10195000C2F3C106C2F341150024C2F3C3124FF013
:1019600001094FF003082BE0D0F820B02BEA030365
:1019700043EA0A030362436809FA04FA23EA0A0302
:101980003B4343604FEA440A836808FA0AFA6FEA65
:101990000A0A0AEA030333438360C3680AEA0303BB
:1019A0002B43C36003680AEA030343EA0E030360A0
:1019B000490819D07F00B600AD004FEA8E0E013401
:1019C00004F007039B0011F0010F02FA03FA0CFA6E
:1019D00003F3EDD0072CC7D9D0F824B02BEA0303CA
:1019E00043EA0A034362C6E7BDE8F08FAFF3008025
:1019F00010B50A4C0A4B4FF6FF7220461A80FFF7CB
:101A00008FFA084B08480949094AE06103F10C00C4
:101A100023626062A162E26210BD00BF440E00203A
:101A2000400E0020E42400080038004016000100A9
:101A300046000100AFF30080AFF30080AFF30080F9
:101A400030B404692268136823F01F03136013681D
:101A5000DB07FCD4257A416964680A683D23AB4002
:101A60002360136823F01F031360136813F001034E
:101A7000FBD10C7A826848683D21A140016030BCEE
:101A80009381138293827047AFF30080AFF300809D
:101A90002DE9F0418668B3893488B18840F20F128D
:101AA000A4B2224007469DB2E2B143681B694FF6DB
:101AB000FF623280B3B114F0080F0CBF0021102177
:101AC000E20748BF41F00401A00748BF41F0080108
:101AD000620748BF41F02001E00548BF41F04001E6
:101AE0003846984762060FD56B060DD57A6825F003
:101AF000400352689BB24FF6BF713180B3811AB177
:101B00003846BDE8F0411047BDE8F081AFF30080F2
:101B100011F00C0F38B5044623D161690A681368C7
:101B200023F01F0313601368DB07FCD462680D7A8F
:101B3000486851683D23AB40036029B1A1688B8997
:101B40009BB243F040038B811368022262702BB179
:101B5000204698476378022B00D038BD002363707D
:101B600038BDFEF7EDFBD8E7AFF30080AFF30080A0
:101B700011F00C0F70B504463BD1A3784BB96368E4
:101B8000DB68002B34D0218B204689B2BDE8704041
:101B9000184721690A68136823F01F03136013684C
:101BA000DB07FCD460680D7A4E6881683D23AB404A
:101BB00002253360A57039B120468847A378AB422F
:101BC00016D1236960681A68C168E36800290CBFF0
:101BD0004FF480714FF488710B430025012104F10B
:101BE0001800A570D0605160136013680B43136038
:101BF00070BDFEF7A5FBC0E7AFF30080AFF3008038
:101C000008B5FEF78DFD0448FFF742FFFEF7A8FD7B
:101C1000BDE80840FEF7CCBB740E0020AFF3008097
:101C200008B5FEF77DFD0448FFF732FFFEF798FD8B
:101C3000BDE80840FEF7BCBB900E0020AFF300806B
:101C400070B50C4D0C4C0D4E2846FFF7C1F90C4BEE
:101C5000AB60062204F10C0330462C616B61EA6034
:101C6000FFF7B6F9074BB36004F13C0378343361F6
:101C7000746170BD740E0020FC240008900E0020DA
:101C80000044004000140140AFF30080AFF3008037
:101C9000F8B50378012B044642D085680023A37071
:101CA00063702046FFF7CCFEA368544A93424FD09E
:101CB00002F5806293424BD06268514B5169B3FB8D
:101CC000F1F39BB22B81D768138B568B918B2269D2
:101CD000E0681268B5F800E0B5F804E0002F43F4BE
:101CE00004530CBF4FF480774FF4887746F04006DA
:101CF00043F00C0341F0C1019BB23843B6B2012757
:101D00004FF0000E89B21834A5F800E02E82A982A7
:101D1000AB81D4605760106013683B431360F8BD1B
:101D2000384DA8423ED0384DA8421ED063681B8B68
:101D300003F4A053B3F5805F12D022696369A568EC
:101D40001068196800222B1D83608B602283A5E731
:101D500062682E4B5169B3FBF1F39BB22B81B2E762
:101D6000E36843F42053E360E7E70069284A0C2165
:101D70002346FFF7EDFB002834D16869254A224B42
:101D80000C21FFF7E5FB48BB234A536C43F02003CB
:101D900053644720C021FEF77BFBEB6843F02063D0
:101DA000EB60C3E700691A4A0C212346FFF7D0FB1A
:101DB00000BB6869174A134B0C21FFF7C9FBA8B990
:101DC000154A136C43F4003313642620C021FEF738
:101DD0005FFBEB6843F00063EB60A7E70F48FEF79B
:101DE0003FFDD1E70E48FEF73BFDC6E70D48FEF785
:101DF00037FDE5E70C48FEF733FDDAE70010014058
:101E000080DE8002740E0020900E002000BD0105CF
:101E1000711B0008111B000800380240C82500088B
:101E2000B02500089825000880250008AFF3008041
:101E30004369C0681B6840F48A60DA6059601860C2
:101E40001A6842F001021A60704700BFAFF30080C9
:101E500041690A68136823F01F0313601368DB07E6
:101E6000FCD4087A49683D2383400B605068704772
:101E7000014600690268136823F01F0313601368AA
:101E8000DB07FCD430B44B68057ADC6840683D233E
:101E9000AB400360CB685068002C0CBF4FF48074DB
:101EA0004FF48874234318310124D16054601360C7
:101EB00013682343136030BC704700BFAFF300804A
:101EC000FFF7EEBBAFF30080AFF30080AFF300800D
:101ED000704700BFAFF30080AFF30080AFF3008026
:101EE000024B4FF400525A83704700BF000C02406F
:101EF000024B4FF480525A83704700BF000C0240DF
:101F0000024B4FF480425A83704700BF000C0240DE
:101F1000704700BFAFF30080AFF30080AFF30080E5
:101F2000704700BFAFF30080AFF30080AFF30080D5
:101F300008B50D4B4FF480521A83202383F3118888
:101F4000FEF7B6FB0948C3680BB1FEF7D1FC0748A2
:101F5000074AC8210023FEF79BFCFEF7C1FB0023C4
:101F600083F3118808BD00BF000C0240C00E0020A2
:101F7000F11E0008AFF30080AFF30080AFF30080E4
:101F800008B50D4B4FF400521A83202383F31188B8
:101F9000FEF78EFB0948C3680BB1FEF7A9FC0748A2
:101FA000074AC8210023FEF773FCFEF799FB0023C4
:101FB00083F3118808BD00BF000C0240AC0E002066
:101FC000E11E0008AFF30080AFF30080AFF30080A4
:101FD00008B50D4B4FF480421A83202383F31188F8
:101FE000FEF766FB0948C3680BB1FEF781FC0748A2
:101FF000074AC8210023FEF74BFCFEF771FB0023C4
:1020000083F3118808BD00BF000C0240D40E0020ED
:10201000011F0008AFF30080AFF30080AFF3008032
:1020200069646C6500000000000000000000000012
:1020300053562331000000005356233200000000A5
:102040005356233300000000535623340000000091
:10205000535623350000000053562336000000007D
:102060005356233700000000535623380000000069
:10207000535623390000000053562331300000002E
:102080005356233131000000000000000000000022
:1020900022636856545365744922282900000000C1
:1020A00022636856545265736574492228290000DA
:1020B0006368565452657365744928292C2023316E
:1020C0000000000000000000000000000000000010
:1020D000636853636852656164794928292C202319
:1020E00031000000737461636B206F766572666CFB
:1020F0006F770000000000000000000000000000FA
:1021000022636854686443726561746549222829B2
:10211000000000002263685468645365745072695B
:102120006F7269747922282900000000636854687E
:1021300064526573756D6528292C202331000000D9
:10214000226368546864536C656570222829000016
:102150006368546864457869745328292C202331B6
:102160000000000022636854686457616974222883
:102170002900000063685468645761697428292C39
:102180002023310063685468645761697428292CDE
:1021900020233200000000000000000000000000CA
:1021A0006D61696E0016881104044C080C10141837
:1021B0001C20212223240000000000000000000059
:1021C0002263684D7478496E6974222829000000E2
:1021D0002263684D74784C6F636B5322282900008A
:1021E00063684D74784C6F636B5328292C2023311E
:1021F0000000000063684D74784C6F636B532829AE
:102200002C202332000000002263684D7478547241
:10221000794C6F636B5322282900000063684D746A
:1022200078556E6C6F636B28292C202331000000D9
:1022300063684D7478556E6C6F636B28292C20236E
:102240003200000063684D7478556E6C6F636B5399
:1022500028292C202331000063684D7478556E6C5A
:102260006F636B5328292C202332000000000000EC
:1022700022756172745374617274222829000000FF
:1022800075617274537461727428292C2023310093
:10229000227561727453746F702228290000000047
:1022A0007561727453746F7028292C2023310000DB
:1022B0002275617274537461727453656E6422285E
:1022C0002900000075617274537461727453656EF5
:1022D0006428292C20233100756172745374617253
:1022E0007453656E6428292C202332002275617294
:1022F00074537461727453656E6449222829000016
:1023000075617274537461727453656E64492829DF
:102310002C202331000000007561727453746172C7
:102320007453656E644928292C2023320000000074
:10233000227561727453746F7053656E642228291C
:10234000000000007561727453746F7053656E64A1
:1023500028292C2023310000227561727453746F78
:102360007053656E644922282900000075617274FB
:1023700053746F7053656E644928292C20233100F3
:102380002275617274537461727452656365697603
:10239000652228290000000075617274537461720F
:1023A000745265636569766528292C202331000005
:1023B0007561727453746172745265636569766590
:1023C00028292C2023320000227561727453746115
:1023D0007274526563656976654922282900000098
:1023E0007561727453746172745265636569766560
:1023F0004928292C2023310075617274537461724D
:1024000074526563656976654928292C202332005A
:10241000227561727453746F705265636569766575
:10242000222829007561727453746F705265636558
:1024300069766528292C20233100000022756172FD
:102440007453746F705265636569766549222829F3
:10245000000000007561727453746F70526563659B
:102460006976654928292C202331000000000000EE
:1024700022646D6153747265616D416C6C6F636150
:10248000746522282900000022646D61537472650E
:10249000616D52656C65617365222829000000003A
:1024A000646D6153747265616D52656C65617365CD
:1024B00028292C202331000000000000000000002B
:1024C000106002400860024000000B0028600240DB
:1024D0000860024006010C004060024008600240B3
:1024E00010020D00586002400860024016030E0002
:1024F000706002400C60024000040F0088600240DF
:102500000C60024006051000A06002400C60024012
:1025100010061100B86002400C60024016072F0040
:102520001064024008640240000838002864024039
:102530000864024006093900406402400864024011
:10254000100A3A005864024008640240160B3B002F
:10255000706402400C640240000C3C00886402403D
:102560000C640240060D4400A06402400C6402406A
:10257000100E4500B86402400C640240160F46007D
:10258000756172745F6C6C645F7374617274282916
:102590002C20233300000000756172745F6C6C6442
:1025A0005F737461727428292C20233400000000AA
:1025B000756172745F6C6C645F73746172742829E6
:1025C0002C20233135000000756172745F6C6C64DF
:1025D0005F737461727428292C2023313600000047
:1025E00000AAA02A00000000FFABFFFF540001403A
:1025F000FFFF00000000565500AA0A0080200800D6
:1026000040020000FFFFFFFF15455155FFFF00008E
:1026100000000004400000000180200200000000D3
:10262000FFFFFFFF54154554FFFF0000000000604E
:10263000000606000001005500000000FFFFFFFF3C
:1026400055505500FF0F0000000000000000000082
:102650004000000000000000FFFFFFFF000000003E
:10266000FFFF00000000000000000000000000006C
:1026700000000000FFFFFFFF00000000FFFF000060
:10268000000000000000000000000000000000004A
:10269000FFFFFFFF00000000FFFF00000000000040
:1026A000000000000000000000000000FFFFFFFF2E
:1026B00000000000FFFF000000000000000000001C
:1026C0000000000000000000FFFFFFFF000000000E
:1026D000FFFF0000000000000000000000000000FC
:0826E000486F6C610A00000064
:1026E800111F0008D11F0008811F0008311F0008B2
:1026F800211F0008802500000000004000000000A5
:0400000508000231BC
:00000001FF
