:020000040800F2
:1000000000040020D102000831040008F1030008B8
:10001000F1030008F1030008F1030008F1030008F0
:10002000F1030008F1030008F1030008F1030008E0
:10003000F1030008F1030008F1030008A10400081F
:10004000F1030008F1030008F1030008F1030008C0
:10005000F1030008F1030008F1030008F1030008B0
:10006000F1030008C10B0008F10B0008410C000867
:10007000F1030008F1030008F1030008F103000890
:1000800071140008F1030008F1030008F1030008EF
:10009000F1030008F1030008F10300080111000852
:1000A000F1030008F1030008F103000851150008EE
:1000B000F1030008F1030008F1030008F103000850
:1000C000F0B55F4656464D464446F0B485B000F064
:1000D000DFFC00F055FA204F2049380000F030FDD9
:1000E0001F4B204918009B4600F0FAFC9023022287
:1000F000DB055A8302325A8380231B485B0143830A
:100100003C32012100F014FF01F0DAFA174B184ECF
:100110009A4616239946173B9846164D642000F0E0
:100120003FFC4B46012433704346019402930095F3
:10013000022332001C21380000F012FD53461860E3
:100140002B78DB0903D19023DB051C83E6E70A4902
:10015000584600F0D5FCE1E7AC0900206018000823
:10016000E409002050180008000400481C0A002080
:10017000180A0020100A0020A086010000000000DC
:10018000002243088B4274D303098B425FD3030AD6
:100190008B4244D3030B8B4228D3030C8B420DD3E9
:1001A000FF22090212BA030C8B4202D31212090277
:1001B00065D0030B8B4219D300E0090AC30B8B42B5
:1001C00001D3CB03C01A5241830B8B4201D38B0363
:1001D000C01A5241430B8B4201D34B03C01A524108
:1001E000030B8B4201D30B03C01A5241C30A8B424B
:1001F00001D3CB02C01A5241830A8B4201D38B0236
:10020000C01A5241430A8B4201D34B02C01A5241D9
:10021000030A8B4201D30B02C01A5241CDD2C3094B
:100220008B4201D3CB01C01A524183098B4201D3C7
:100230008B01C01A524143098B4201D34B01C01AB2
:10024000524103098B4201D30B01C01A5241C3082A
:100250008B4201D3CB00C01A524183088B4201D399
:100260008B00C01A524143088B4201D34B00C01A85
:100270005241411A00D20146524110467047FFE7F1
:1002800001B5002000F00CF802BDC0460029F7D0EF
:1002900076E770470000000000000000000000004A
:1002A0007047C04600000000000000000000000091
:1002B0007047C04600000000000000000000000081
:1002C000FEE7C04600000000000000000000000043
:1002D00072B6364D290085F30988022383F314880A
:1002E000BFF36F8F3248334B98420AD2C243D218C1
:1002F000002392080132304C9200C45004339342E0
:10030000FBD12E48A8420AD2C243002352189208B9
:10031000013229499200C15004339342FBD101F0CC
:100320006FF92749274B99420BD2CA43D2180023B1
:100330009208013224489200C458CC5004339342AE
:10034000FAD12248224B98420BD2C1430024C9184B
:100350000023890801318900C218043314608B42DC
:10036000FAD1FFF7A5FF1B4E1B4B9E420AD2F54365
:100370000024ED18AD080135A300F3580134984767
:10038000A542F9D1FFF79CFE144E154B9E420AD2AE
:10039000F5430024ED18AD080135A300F3580134EE
:1003A0009847A542F9D1FFF78BFFC046000800200F
:1003B0000000002000040020555555550004002081
:1003C0000008002000080020701800080008002025
:1003D000200A0020C0000008C0000008C00000087B
:1003E000C000000800000000000000000000000045
:1003F000FEE7C04600000000000000000000000012
:1004000072B6FEE7000000000000000000000000DF
:1004100000F066FA8022024B12065A60FEE7C046E0
:1004200000ED00E0000000000000000000000000FF
:10043000EFF30983203383F3098862B67047C0461F
:100440000F3017D072B6EFF30982203A82F3098891
:1004500080230E485B048169D361CB7F002B0AD1D6
:1004600000688968806888425B41DBB2002B0AD152
:10047000074B93617047036898688B6883429B4180
:100480005B42002BF4D0034B9361F3E73809002063
:10049000140400081104000800000000000000001F
:1004A00010B5744672B600F0ABF862B62000FFF7E4
:1004B000C7FF10BD000000000000000000000000A9
:1004C000F0B544464D4656465F46F0B46B46CB60A9
:1004D000C3689D46F0BCA046A946B246BB46F0BDE7
:1004E00062B6281CA04700F083FA704700000000A5
:1004F000182270B5FF250D4CC026A446C3001A4033
:100500009540914083089B006344B6009C591F228C
:10051000AC4321439951012302409340C02240093A
:100520008000604452008350036070BD00E100E031
:10053000032310B5FF24074A03409446DB009C4088
:1005400099408008800060448269A2431143816120
:1005500010BDC04600ED00E00000000000000000FB
:10056000024B034A9B699A61FEE7C04638090020A6
:1005700070170008000000000000000000000000EC
:1005800000B5154A154B83B0DA6000210A20FFF749
:10059000CFFF80210B20FFF7CBFF00F0D9F800F050
:1005A0005FF800F035FA00F063FA40210C4800F0E3
:1005B000A7F901220B4B0277986162B60A4A9B6940
:1005C000E0219A610023012200930848084B00F0C3
:1005D000B7F903B000BDC0460000FA0500ED00E029
:1005E0000008002038090020801700084808002073
:1005F000610500080000000000000000000000008D
:1006000070B5124B9B69DA7F002A01D0013ADA7784
:100610001A6A0F4C01321A62E3680133E3602368FF
:10062000A34212D09A68013A9A60002A0DD100259F
:100630001A68D9682260DD60546062B6186988471C
:1006400072B623689A68002AF2D070BD380900207B
:100650002809002000000000000000000000000049
:100660000122044B52429A6000225B601B60DA60F8
:100670007047C0462809002000000000000000006C
:1006800010B50C4C03612368C2609A68914204D98A
:100690001B68891A9A688A42FAD35A6803604260D2
:1006A000586010608160A34202D09A68511A996024
:1006B00010BDC04628090020000000000000000016
:1006C0000368074A934204D081689A688C46624462
:1006D0009A604268136003685A600023C3607047E1
:1006E00028090020000000000000000000000000B9
:1006F00072B6037F032B19D014D9052B1AD00D2BFA
:1007000018D001235B4243620023826803770C4BBD
:100710001B6899689142FBD25A6803604260586036
:10072000106001E0002BECD162B67047426A93681A
:1007300001339360026843681A6002685360E0E71F
:100740003809002000000000000000000000000048
:100750000022034B5B601B609A605B611B6170470A
:100760003809002000000000000000000000000028
:10077000002382680377054B1B6899689142FBD27E
:100780005A68036042605860106070473809002062
:100790001422074B10B5996908771868CA77026860
:1007A00053601A60986101230377FFF789FE10BD3B
:1007B00038090020000000000000000000000000D8
:1007C00030B5050089B04B1C13D00C4C0C4AA36902
:1007D00003A8FFF755FF2800FFF7DAFF069B0193F8
:1007E000002B02D003A8FFF76BFFA369586A09B07A
:1007F00030BDFFF7CDFF014CF7E7C04638090020B8
:10080000F1060008000000000000000000000000E9
:10081000124B4162996970B582688C68A2420BD80C
:10082000002101771B6899688A42FBD95A680360E6
:1008300042605860106070BD00220A771A0012688A
:100840009568AC42FBD954680A604C6051602160E5
:10085000986101230377FFF733FEECE738090020A6
:100860000E4B10B518689969026853601A60986158
:10087000012303771333CB7700238A680B770300B8
:1008800000E01B689C689442FBD25A680B604A6087
:1008900059601160FFF714FE10BDC04638090020F2
:1008A0000D4B10B518689969026853601A60986119
:1008B0000123037700238A680B77030000E01B689D
:1008C0009C689442FBD85A680B604A60596011607A
:1008D000FFF7F6FD10BDC0463809002000000000FB
:1008E00010B5054B9B69DB7F002B02D0FFF7D8FFCB
:1008F00010BDFFF7B5FFFBE738090020000000003E
:1009000002230377002314224377C36383630362C4
:100910008361094BC277133A82775A690361816018
:10092000426158610300283301641061836204331B
:100930000363C3627047C04638090020000000000E
:1009400010B5040072B624394118C1600B61029BD6
:100950004B61114B0B620223037700238260026418
:1009600001224377C3638363036283610B4B827706
:100970005A69036142615861030014212833C17729
:100980001061836204330363C3620021FFF740FFF9
:1009900062B6200010BDC046E104000838090020FE
:1009A00010B5010072B60620FFF70AFF62B610BD4F
:1009B0000D4B70B59C6925006062A06A2835A8427D
:1009C00006D00368A362FFF7D3FEA06AA842F8D15D
:1009D000637F9B0704D1226963691A6122695361AD
:1009E0000E20FFF7D5FE70BD380900200000000082
:1009F00010B572B6FFF7DCFF10BDC0460000000066
:100A000000234060006083607047C0460000000023
:100A10000722054B0549073393430B60044B93436F
:100A2000044A13607047C046200A0020580900207D
:100A30000010002054090020000000000000000009
:100A400072B60722C31D93430649074A0868126815
:100A5000121A934203D8C3180B6062B67047002085
:100A6000FBE7C046580900205409002000000000A0
:100A70000548064B10B5036000238360C360103047
:100A8000FFF7BEFF10BDC04660090020410A000804
:100A900010B500F065F9064800F0FAF900F010F81A
:100AA00000F036F800F07CF800F0B2FD10BDC04652
:100AB000E017000800000000000000000000000037
:100AC00010B500F0F5FC10BD0000000000000000B3
:100AD00001230370002343607047C04600000000FC
:100AE00010B5040072B6416000F0F2FC02232370DE
:100AF00062B610BD00000000000000000000000011
:100B000010B572B60423037000F012FD62B610BD7A
:100B100010B500F0A5FB10BD0000000000000000B3
:100B2000012310B50370002343600C30FFF768FF0A
:100B300010BDC046000000000000000000000000E2
:100B400010B5040072B6416000F0A2FB02232370CE
:100B500062B610BD000000000000000000000000B0
:100B600010B5040084B072B60020A060033020707D
:100B7000089802900798019006980090200000F0D5
:100B8000DFFB431C04D00223237062B604B010BD07
:100B900005232370F9E7C0460000000000000000B4
:100BA00010B500F015FD10BD0000000000000000B1
:100BB0000123037000234370837043607047C04675
:100BC00010B574460F21074A136819405160064A50
:100BD0001368002B01D0506898472000FFF730FCC5
:100BE00010BDC04600000240800900200000000047
:100BF00010B574460E4B19680906090F07D00A0193
:100C00005A600C4A9368002B01D0D0689847084B73
:100C100019680905090F07D00A025A60054A1369C5
:100C2000002B01D0506998472000FFF709FC10BD48
:100C300000000240800900200000000000000000C9
:100C400010B574460E4B19680904090F07D00A0342
:100C50005A600C4A9369002B01D0D0699847084B21
:100C600019680903090F07D00A045A60054A136A74
:100C7000002B01D0506A98472000FFF7E1FB10BD20
:100C80000000024080090020000000000000000079
:100C900000230B4A0B4913600B4A13600B4A136085
:100CA0000B600B4993600B600A4913610B600A49A2
:100CB00093610B6013620122084B52425A607047E5
:100CC000A80900201C000240080002408009002002
:100CD0003000024044000240580002400000024040
:100CE000F8B54F46464698460123C0B4447A994623
:100CF0000126A340174FB4463D681D4222D1164E2F
:100D0000E400B446A251464664441D4366603D601B
:100D10006B0604D04E46114B5C6926435E610F237F
:100D2000046825689D432560067A4568B3402B60BA
:100D300000232360002A0AD08901807AFFF7D8FBBC
:100D400000239C4660460CBC90469946F8BD0023A3
:100D50009C46F7E7A8090020800900200010024007
:100D60001E4B01219A6A0022494210B599629A628B
:100D7000186919611A61D968194880240143D9603A
:100D800018481949DA60486007208A6008608020A6
:100D9000D969400501431548D961016864002143C0
:100DA0000160C021186A89000140802080008142D2
:100DB00003D08021490219621A628022074B120275
:100DC000196A114207D18020196A80000143196213
:100DD000196A0A431A62FFF75BFF10BD0010024058
:100DE000FFFFBFFF7FBB000010E000E0007000408D
:100DF0000123022022490A6813430B600A68204B32
:100E00001042FBD003215A680C208A4319005A6013
:100E10005A685A604B681A4A0340FBD1F92011689E
:100E2000014011605360516A01330B435362F7383C
:100E3000516A134B0842FBD0A12292035A60002250
:100E400080218020DA621A631A6849040A431A6012
:100E5000800419680A4A0142FBD01121094B0C2079
:100E60001960022351680B435360536804490340DF
:100E7000082BFAD18A69073B13438B617047C04640
:100E800000100240002002400000000000000000AE
:100E9000BC21214AC90353690B4353619023426823
:100EA000DB055A6082689A60C268DA6002695A613A
:100EB00042691A6282695A6202681A60026A174BB2
:100EC0005A60426A9A60826ADA60C26A5A61026B48
:100ED0001A62426B5A62C2691A60C26B104B5A6046
:100EE000026C9A60426CDA60826C5A61C26C1A625F
:100EF000026D5A62826B1A60826D0A4B5A60C26D33
:100F00009A60026EDA60426E5A61826E1A62C26E36
:100F10005A62426D1A607047001002400004004897
:100F20000008004800140048000000000000000015
:100F3000F0B503235F464D4644465646F0B41C00C8
:100F400057071440D608550952051E401D40130F7F
:100F500099460123A446984606339B46634683B0D0
:100F6000FF0F0024019326E0036A93436246134374
:100F700003624246A2404368934303223B434360DB
:100F800083689C4663009A40D34362461A403243CA
:100F90008260C2681A402A43C26002681340019A04
:100FA00013430360490819D0019B7F009B00B600E2
:100FB000AD000193013443460B42F3D05B464A46F1
:100FC00023409B009A4094460F229A40072CCBD98D
:100FD000436A9343624613434362CAE703B03CBC8F
:100FE00090469946A246AB46F0BDC04600000000C0
:100FF0000123426B10B511680B4210D01168994360
:10100000116014680121234205D013688B431360DB
:1010100013681942F9D1012311680B4313600F23A0
:10102000026B14682168994321601C005168127A90
:101030009440C26A0C60106801689943016051686D
:10104000127A93400B6010BD000000000000000009
:1010500070B5050072B6C469002C08D0FFF7C8FF50
:101060000023EB61013B63622000FFF781FB62B666
:1010700070BDC0460000000000000000000000003D
:1010800010B504000B0701D5FFF7BAF90F23226B47
:1010900010680168994301605168127A93400B60AF
:1010A00010BDC0460000000000000000000000006D
:1010B00070B50400456B0B0719D40F23E26A106862
:1010C0000168994301605168127A934080220B6055
:1010D0006B68D20113436B6072B6E069002804D0DC
:1010E0000023E3614362FFF743FB62B670BDFFF785
:1010F00087F9E2E7000000000000000000000000A7
:10110000F8B5544B5A6B92697446FC20596B8001B8
:10111000CA6102423AD1FE20104203D12000FFF7FB
:101120008FF9F8BDBE38104202D01D78032D6AD069
:10113000D00608D580254868ED0128434860042181
:101140009868014399609206E8D50F22196B0D68E3
:1011500028689043286015004868097A8D40D96A4C
:1011600005600D682868904328604868097A8A40BD
:1011700002609A68002A2FD172B6D869002803D07D
:101180004262DA61FFF7F4FA62B6C7E70F21186B23
:10119000066835688D4335600E004568007A8640E4
:1011A000D86A2E60066835688D4335604568007AD8
:1011B00081402960D1051BD49968900502D5022091
:1011C00001439960500518D5082001439960D20465
:1011D00002D520221143996072B6D8690028D3D075
:1011E0000022DA6102235B424362FFF7C1FACBE7D8
:1011F0000121986801439960DFE7D204E9D400290E
:1012000000D18BE7E8E70D688543D86A0D60056873
:101210006868002818D004262F681E70033E3E43DD
:101220002E604E680C4D000435404D604D682843DB
:10123000802548604868ED0028438025486048685C
:10124000AD012843486073E780254868ED012843D5
:1012500048606DE7AC090020FFFF00FF00000000C0
:1012600010B5064C2000FFF75BFC0023E361044B44
:101270006363044BE3620C3B236310BDAC090020A5
:1012800000540040B81700080000000000000000F3
:10129000F8B59A230122446B8362103B43622368B2
:1012A0000500934323600378012B18D02200EB6ADA
:1012B00024321B689A602B6B04321B689A606A6840
:1012C0001A4B51680B43236093689B0A9B0263602F
:1012D000136823610123226813432360F8BD144B74
:1012E0009842E3D18027134EBF033369124A3B4330
:1012F00033610023032133610300C06AFFF7F0FC70
:101300000E4A2B000321286BFFF7EAFCF369C0218A
:101310003B43F3611720FFF7EBF880236A6A5B0118
:101320001A436A62AA6A1343AB62BFE7B0C0000007
:10133000AC09002000100240B11000088110000824
:10134000F0B54F464646C0B41F00002389B0129D39
:10135000060089469046446B83606B1C05D00300F1
:101360003E4A290003A8FFF78BF962B68023A169E2
:101370001B021A00194209D072B66B1C02D0069BE0
:10138000002B54D062B6A3691342F5D14B469905A0
:10139000890D72B673689B681B0544D56268304B33
:1013A0001340636063683A04134319430023616088
:1013B000B360336BB26A1B68716A1A604246DA60C6
:1013C000F26A5F60126811601099D16011995160E2
:1013D000012219680A431A606B1C2BD0069B0193EB
:1013E000002B24D04023226802201343236062682C
:1013F0001C4B134080226360636892011343636057
:10140000194CA369F361FFF7C3F9069B0193002B05
:1014100002D003A8FFF754F9A369586A09B00CBCBD
:1014200090469946F0BDFF2349001940B6E70120D8
:101430004042F3E74023226802201343236062689E
:10144000084B13408022636063689201134363601A
:10145000054CA369F361FFF79BF9DDE75110000824
:1014600000FC00FFFFFBFFFF380900200000000028
:1014700010B5744600220A48C36801781A6104292D
:1014800007D1023901701A601A61DA68FD318A43A6
:10149000DA6043685B6898472000FEF7D1FF10BD13
:1014A000E40900200000000000000000000000002F
:1014B00010B50348034BC360FFF70AFB10BDC046DD
:1014C000E4090020000400400000000000000000CB
:1014D000037870B50400012B10D06568A0682968F6
:1014E000FEF74EFE00220821E36801381A605960B9
:1014F000297A80B29862D9601A6170BD094B98420E
:10150000EBD10222084B1020D9691143D961196926
:101510000A431A61002280211A61FEF7E9FF034B9A
:10152000A360DAE7E409002000100240006CDC024E
:10153000C3680139D962012200215A6159621961D7
:10154000D9680A43DA6005221A607047000000007B
:10155000F0B5474680B4F04610231A4EFF33B56805
:101560002F68EC692C621C4216D073681B69002B33
:1015700012D02107C90F0901E20701D50422114346
:10158000A20701D508221143620718D4E20501D54C
:1015900040221143300098474023234209D03B4268
:1015A00007D09F4373682F605B68002B01D0300029
:1015B00098474046FEF744FF04BC9046F0BD202209
:1015C0001143E3E7F40900200000000000000000E0
:1015D00010B5064C2000FFF7EBFA054BA36008237B
:1015E000E360044B23610C3B636110BDF4090020F0
:1015F00000380140B817000800000000000000009B
:1016000010B5FFF7F5FB10BD000000000000000062
:101610007047C0460000000000000000000000000D
:1016200090230122DB055A837047C046000000006A
:101630002A2300B5094A85B01370123B5370193B39
:10164000029300230193064B1C21009305480223BB
:10165000FFF786FA044B186005B000BD180A002099
:10166000100A0020AC0900201C0A00200000000025
:1016700000B50A2085B0FFF793F92A23094A1C21F7
:101680001370293B5370023B029300230193064BD6
:10169000064800930223FFF763FA054B186005B074
:1016A00000BDC046180A0020100A0020AC09002026
:1016B0001C0A0020000000000000000000000000E4
:1016C000F0B54F464646C0B485B0FFF7B1FF0A20DB
:1016D000FFF766F91523224C224E2370E333637023
:1016E000F93B9946029300231F4F9846220001932D
:1016F0001C21023300973000FFF732FA1B4D28609F
:101700000A20FFF74DF917232370093363704B4606
:1017100002934346220001931C21023300973000BC
:10172000FFF71EFA28600A20FFF73AF91823237002
:10173000163B63704B460293434622001C210193E3
:10174000009702333000FFF70BFA28600A20FFF7FA
:1017500027F9FFF78DFF05B00CBC90469946F0BD08
:10176000180A0020AC090020100A00201C0A0020E2
:1017700069646C65000000000000000000000000CB
:101780006D61696E00168811040448080C10141865
:10179000001C1D1E1F2000000000000000000000B3
:1017A0000800024004000240000009001C00024042
:1017B0000400024004010A0030000240040002401C
:1017C00008020A0044000240040002400C030B001F
:1017D000580002400400024010040B00000000000A
:1017E0005500002800000000000000FC4055556531
:1017F000FFFF0000000000000000000000A00A0140
:1018000000000000F003000055055055FFFF0000E8
:1018100000000000110000000000050000000000B2
:1018200000000FF055555005FFFC000000000000BF
:101830000000000000400000000000000000000068
:1018400050155555FFFF000000000000000000008B
:101850001027000021160008000000000000000012
:0C186000130F4210000000000000000008
:04000005080002D11C
:00000001FF
