:020000040800F2
:1000000000040020C102000821040008E1030008E8
:10001000E1030008E1030008E1030008E103000830
:10002000E1030008E1030008E1030008E103000820
:10003000E1030008E1030008E1030008910400085F
:10004000E1030008E1030008E1030008E103000800
:10005000E1030008E1030008E1030008E1030008F0
:10006000E1030008A10B0008D10B0008210C0008D7
:10007000E1030008E1030008E1030008E1030008D0
:1000800091130008E1030008E1030008E103000800
:10009000E1030008E1030008E10300082110000863
:1000A000E1030008E1030008E1030008511400081F
:1000B000E1030008E1030008E1030008E103000890
:1000C000F0B557464E464546E0B484B000F0D8FC43
:1000D00000F04EFA1C4F1D49380000F021FD1C496C
:1000E0001C4800F0F5FC90230222DB055A83023203
:1000F0005A838022184B52015A8301F061FA174B40
:1001000001249A4616239946173B9846144E154DDE
:10011000642000F03DFC4B4633704346019402934B
:100120000095022332001C21380000F009FD5346DF
:1001300018602B78DB0903D09023DB051C83E7E7ED
:100140009023DB055C83E3E7AC09002090170008EF
:1001500080170008E4090020000400481C0A002061
:10016000180A0020100A0020000000000000000013
:10017000002243088B4274D303098B425FD3030AE6
:100180008B4244D3030B8B4228D3030C8B420DD3F9
:10019000FF22090212BA030C8B4202D31212090287
:1001A00065D0030B8B4219D300E0090AC30B8B42C5
:1001B00001D3CB03C01A5241830B8B4201D38B0373
:1001C000C01A5241430B8B4201D34B03C01A524118
:1001D000030B8B4201D30B03C01A5241C30A8B425B
:1001E00001D3CB02C01A5241830A8B4201D38B0246
:1001F000C01A5241430A8B4201D34B02C01A5241EA
:10020000030A8B4201D30B02C01A5241CDD2C3095B
:100210008B4201D3CB01C01A524183098B4201D3D7
:100220008B01C01A524143098B4201D34B01C01AC2
:10023000524103098B4201D30B01C01A5241C3083A
:100240008B4201D3CB00C01A524183088B4201D3A9
:100250008B00C01A524143088B4201D34B00C01A95
:100260005241411A00D20146524110467047FFE701
:1002700001B5002000F00CF802BDC0460029F7D0FF
:1002800076E770470000000000000000000000005A
:100290007047C046000000000000000000000000A1
:1002A0007047C04600000000000000000000000091
:1002B000FEE7C04600000000000000000000000053
:1002C00072B6364D290085F30988022383F314881A
:1002D000BFF36F8F3248334B98420AD2C243D218D1
:1002E000002392080132304C9200C45004339342F0
:1002F000FBD12E48A8420AD2C243002352189208CA
:10030000013229499200C15004339342FBD101F0DC
:10031000F7F82749274B99420BD2CA43D21800233A
:100320009208013224489200C458CC5004339342BE
:10033000FAD12248224B98420BD2C1430024C9185B
:100340000023890801318900C218043314608B42EC
:10035000FAD1FFF7A5FF1B4E1B4B9E420AD2F54375
:100360000024ED18AD080135A300F3580134984777
:10037000A542F9D1FFF7A4FE144E154B9E420AD2B6
:10038000F5430024ED18AD080135A300F3580134FE
:100390009847A542F9D1FFF78BFFC046000800201F
:1003A0000000002000040020555555550004002091
:1003B0000008002000080020A01700080008002006
:1003C000200A0020C0000008C0000008C00000088B
:1003D000C000000800000000000000000000000055
:1003E000FEE7C04600000000000000000000000022
:1003F00072B6FEE7000000000000000000000000F0
:1004000000F066FA8022024B12065A60FEE7C046F0
:1004100000ED00E00000000000000000000000000F
:10042000EFF30983203383F3098862B67047C0462F
:100430000F3017D072B6EFF30982203A82F30988A1
:1004400080230E485B048169D361CB7F002B0AD1E6
:1004500000688968806888425B41DBB2002B0AD162
:10046000074B93617047036898688B6883429B4190
:100470005B42002BF4D0034B9361F3E73809002073
:10048000040400080104000800000000000000004F
:1004900010B5744672B600F0ABF862B62000FFF7F4
:1004A000C7FF10BD000000000000000000000000B9
:1004B000F0B544464D4656465F46F0B46B46CB60B9
:1004C000C3689D46F0BCA046A946B246BB46F0BDF7
:1004D00062B6281CA04700F083FA704700000000B5
:1004E000182270B5FF250D4CC026A446C3001A4043
:1004F0009540914083089B006344B6009C591F229D
:10050000AC4321439951012302409340C02240094A
:100510008000604452008350036070BD00E100E041
:10052000032310B5FF24074A03409446DB009C4098
:1005300099408008800060448269A2431143816130
:1005400010BDC04600ED00E000000000000000000B
:10055000024B034A9B699A61FEE7C04638090020B6
:10056000A0160008000000000000000000000000CD
:1005700000B5154A154B83B0DA6000210A20FFF759
:10058000CFFF80210B20FFF7CBFF00F0D9F800F060
:100590005FF800F035FA00F063FA40210C4800F0F3
:1005A000A7F901220B4B0277986162B60A4A9B6950
:1005B000E0219A610023012200930848084B00F0D3
:1005C000B7F903B000BDC0460000FA0500ED00E039
:1005D0000008002038090020B01600084808002054
:1005E00051050008000000000000000000000000AD
:1005F00070B5124B9B69DA7F002A01D0013ADA7795
:100600001A6A0F4C01321A62E3680133E36023680F
:10061000A34212D09A68013A9A60002A0DD10025AF
:100620001A68D9682260DD60546062B6186988472C
:1006300072B623689A68002AF2D070BD380900208B
:100640002809002000000000000000000000000059
:100650000122044B52429A6000225B601B60DA6008
:100660007047C0462809002000000000000000007C
:1006700010B50C4C03612368C2609A68914204D99A
:100680001B68891A9A688A42FAD35A6803604260E2
:10069000586010608160A34202D09A68511A996034
:1006A00010BDC04628090020000000000000000026
:1006B0000368074A934204D081689A688C46624472
:1006C0009A604268136003685A600023C3607047F1
:1006D00028090020000000000000000000000000C9
:1006E00072B6037F032B19D014D9052B1AD00D2B0A
:1006F00018D001235B4243620023826803770C4BCE
:100700001B6899689142FBD25A6803604260586046
:10071000106001E0002BECD162B67047426A93682A
:1007200001339360026843681A6002685360E0E72F
:100730003809002000000000000000000000000058
:100740000022034B5B601B609A605B611B6170471A
:100750003809002000000000000000000000000038
:10076000002382680377054B1B6899689142FBD28E
:100770005A68036042605860106070473809002072
:100780001422074B10B5996908771868CA77026870
:1007900053601A60986101230377FFF789FE10BD4B
:1007A00038090020000000000000000000000000E8
:1007B00030B5050089B04B1C13D00C4C0C4AA36912
:1007C00003A8FFF755FF2800FFF7DAFF069B019308
:1007D000002B02D003A8FFF76BFFA369586A09B08A
:1007E00030BDFFF7CDFF014CF7E7C04638090020C8
:1007F000E10600080000000000000000000000000A
:10080000124B4162996970B582688C68A2420BD81C
:10081000002101771B6899688A42FBD95A680360F6
:1008200042605860106070BD00220A771A0012689A
:100830009568AC42FBD954680A604C6051602160F5
:10084000986101230377FFF733FEECE738090020B6
:100850000E4B10B518689969026853601A60986168
:10086000012303771333CB7700238A680B770300C8
:1008700000E01B689C689442FBD25A680B604A6097
:1008800059601160FFF714FE10BDC0463809002002
:100890000D4B10B518689969026853601A60986129
:1008A0000123037700238A680B77030000E01B68AD
:1008B0009C689442FBD85A680B604A60596011608A
:1008C000FFF7F6FD10BDC04638090020000000000B
:1008D00010B5054B9B69DB7F002B02D0FFF7D8FFDB
:1008E00010BDFFF7B5FFFBE738090020000000004E
:1008F00002230377002314224377C36383630362D5
:100900008361094BC277133A82775A690361816028
:10091000426158610300283301641061836204332B
:100920000363C3627047C04638090020000000001E
:1009300010B5040072B624394118C1600B61029BE6
:100940004B61114B0B620223037700238260026428
:1009500001224377C3638363036283610B4B827716
:100960005A69036142615861030014212833C17739
:100970001061836204330363C3620021FFF740FF09
:1009800062B6200010BDC046D1040008380900201E
:1009900010B5010072B60620FFF70AFF62B610BD5F
:1009A0000D4B70B59C6925006062A06A2835A8428D
:1009B00006D00368A362FFF7D3FEA06AA842F8D16D
:1009C000637F9B0704D1226963691A6122695361BD
:1009D0000E20FFF7D5FE70BD380900200000000092
:1009E00010B572B6FFF7DCFF10BDC0460000000076
:1009F00000234060006083607047C0460000000034
:100A00000722054B0549073393430B60044B93437F
:100A1000044A13607047C046200A0020580900208D
:100A20000010002054090020000000000000000019
:100A300072B60722C31D93430649074A0868126825
:100A4000121A934203D8C3180B6062B67047002095
:100A5000FBE7C046580900205409002000000000B0
:100A60000548064B10B5036000238360C360103057
:100A7000FFF7BEFF10BDC04660090020310A000824
:100A800010B500F05DF9064800F0F2F900F010F83A
:100A900000F02EF800F074F800F03AFD10BDC046EA
:100AA0001017000800000000000000000000000017
:100AB00010B500F08DFC10BD00000000000000002B
:100AC00001230370002343607047C046000000000C
:100AD00010B5040072B6416000F08AFC0223237056
:100AE00062B610BD00000000000000000000000021
:100AF00010B500F045FB10BD000000000000000034
:100B0000012310B50370002343600C30FFF770FF22
:100B100010BDC04600000000000000000000000002
:100B200010B5040072B6416000F042FB022323704E
:100B300062B610BD000000000000000000000000D0
:100B400010B5040084B072B60020A060033020709D
:100B5000089802900798019006980090200000F0F5
:100B60007FFB431C04D00223237062B604B010BD87
:100B700005232370F9E7C0460000000000000000D4
:100B800010B500F0A5FC10BD000000000000000042
:100B90000123037000234370837043607047C04695
:100BA00010B574460F21074A136819405160064A70
:100BB0001368002B01D0506898472000FFF738FCDD
:100BC00010BDC04600000240800900200000000067
:100BD00010B574460E4B19680906090F07D00A01B3
:100BE0005A600C4A9368002B01D0D0689847084B94
:100BF00019680905090F07D00A025A60054A1369E6
:100C0000002B01D0506998472000FFF711FC10BD60
:100C100000000240800900200000000000000000E9
:100C200010B574460E4B19680904090F07D00A0362
:100C30005A600C4A9369002B01D0D0699847084B41
:100C400019680903090F07D00A045A60054A136A94
:100C5000002B01D0506A98472000FFF7E9FB10BD38
:100C60000000024080090020000000000000000099
:100C700000230B4A0B4913600B4A13600B4A1360A5
:100C80000B600B4993600B600A4913610B600A49C2
:100C900093610B6013620122084B52425A60704705
:100CA000A80900201C000240080002408009002022
:100CB0003000024044000240580002400000024060
:100CC000F8B54F46464698460123C0B4447A994643
:100CD0000126A340174FB4463D681D4222D1164E4F
:100CE000E400B446A251464664441D4366603D603C
:100CF0006B0604D04E46114B5C6926435E610F23A0
:100D0000046825689D432560067A4568B3402B60DA
:100D100000232360002A0AD08901807AFFF7E0FBD4
:100D200000239C4660460CBC90469946F8BD0023C3
:100D30009C46F7E7A8090020800900200010024027
:100D40001E4B01219A6A0022494210B599629A62AB
:100D5000186919611A61D968194880240143D9605A
:100D600018481949DA60486007208A6008608020C6
:100D7000D969400501431548D961016864002143E0
:100D80000160C021186A89000140802080008142F2
:100D900003D08021490219621A628022074B120295
:100DA000196A114207D18020196A80000143196233
:100DB000196A0A431A62FFF75BFF10BD0010024078
:100DC000FFFFBFFF7FBB000010E000E000700040AD
:100DD0000123022022490A6813430B600A68204B52
:100DE0001042FBD003215A680C208A4319005A6034
:100DF0005A685A604B681A4A0340FBD1F9201168BF
:100E0000014011605360516A01330B435362F7385C
:100E1000516A134B0842FBD0A12292035A60002270
:100E200080218020DA621A631A6849040A431A6032
:100E3000800419680A4A0142FBD01121094B0C2099
:100E40001960022351680B435360536804490340FF
:100E5000082BFAD18A69073B13438B617047C04660
:100E600000100240002002400000000000000000CE
:100E7000BC21214AC90353690B4353619023426843
:100E8000DB055A6082689A60C268DA6002695A615A
:100E900042691A6282695A6202681A60026A174BD2
:100EA0005A60426A9A60826ADA60C26A5A61026B68
:100EB0001A62426B5A62C2691A60C26B104B5A6066
:100EC000026C9A60426CDA60826C5A61C26C1A627F
:100ED000026D5A62826B1A60826D0A4B5A60C26D53
:100EE0009A60026EDA60426E5A61826E1A62C26E57
:100EF0005A62426D1A6070470010024000040048B8
:100F00000008004800140048000000000000000035
:100F10000123426B10B511680B4210D01168994340
:100F2000116014680121234205D013688B431360BC
:100F300013681942F9D1012311680B4313600F2381
:100F4000026B14682168994321601C005168127A71
:100F50009440C26A0C60106801689943016051684E
:100F6000127A93400B6010BD0000000000000000EA
:100F700070B5050072B6C469002C08D0FFF7C8FF31
:100F80000023EB61013B63622000FFF7E9FB62B6DF
:100F900070BDC0460000000000000000000000001E
:100FA00010B504000B0701D5FFF722FA0F23226BBF
:100FB00010680168994301605168127A93400B6090
:100FC00010BDC0460000000000000000000000004E
:100FD00070B50400456B0B0719D40F23E26A106843
:100FE0000168994301605168127A934080220B6036
:100FF0006B68D20113436B6072B6E069002804D0BD
:101000000023E3614362FFF7ABFB62B670BDFFF7FD
:10101000EFF9E2E70000000000000000000000001F
:10102000F8B5544B5A6B92697446FC20596B800199
:10103000CA6102423AD1FE20104203D12000FFF7DC
:10104000F7F9F8BDBE38104202D01D78032D6AD0E2
:10105000D00608D580254868ED0128434860042162
:101060009868014399609206E8D50F22196B0D68C4
:1010700028689043286015004868097A8D40D96A2D
:1010800005600D682868904328604868097A8A409E
:1010900002609A68002A2FD172B6D869002803D05E
:1010A0004262DA61FFF75CFB62B6C7E70F21186B9B
:1010B000066835688D4335600E004568007A8640C5
:1010C000D86A2E60066835688D4335604568007AB9
:1010D00081402960D1051BD49968900502D5022072
:1010E00001439960500518D5082001439960D20446
:1010F00002D520221143996072B6D8690028D3D056
:101100000022DA6102235B424362FFF729FBCBE74F
:101110000121986801439960DFE7D204E9D40029EE
:1011200000D18BE7E8E70D688543D86A0D60056854
:101130006868002818D004262F681E70033E3E43BE
:101140002E604E680C4D000435404D604D682843BC
:10115000802548604868ED0028438025486048683D
:10116000AD012843486073E780254868ED012843B6
:1011700048606DE7AC090020FFFF00FF00000000A1
:1011800010B5064C2000FFF7BBFC0023E361044BC5
:101190006363044BE3620C3B236310BDAC09002086
:1011A00000540040E81600080000000000000000A5
:1011B000F8B59A230122446B8362103B4362236893
:1011C0000500934323600378012B18D02200EB6ABB
:1011D00024321B689A602B6B04321B689A606A6821
:1011E0001A4B51680B43236093689B0A9B02636010
:1011F000136823610123226813432360F8BD144B55
:101200009842E3D18027134EBF033369124A3B4310
:1012100033610023032133610300C06AFFF750FDEF
:101220000E4A2B000321286BFFF74AFDF369C0210A
:101230003B43F3611720FFF753F980236A6A5B0190
:101240001A436A62AA6A1343AB62BFE7B0C00000E8
:10125000AC09002000100240D10F0008A10F0008C7
:10126000F0B54F464646C0B41F00002389B0129D1A
:10127000060089469046446B83606B1C05D00300D2
:101280003E4A290003A8FFF7F3F962B68023A1695B
:101290001B021A00194209D072B66B1C02D0069BC1
:1012A000002B54D062B6A3691342F5D14B46990581
:1012B000890D72B673689B681B0544D56268304B14
:1012C0001340636063683A04134319430023616069
:1012D000B360336BB26A1B68716A1A604246DA60A7
:1012E000F26A5F60126811601099D16011995160C3
:1012F000012219680A431A606B1C2BD0069B0193CC
:10130000002B24D04023226802201343236062680C
:101310001C4B134080226360636892011343636037
:10132000194CA369F361FFF72BFA069B0193002B7D
:1013300002D003A8FFF7BCF9A369586A09B00CBC36
:1013400090469946F0BDFF2349001940B6E70120B9
:101350004042F3E74023226802201343236062687F
:10136000084B1340802263606368920113436360FB
:10137000054CA369F361FFF703FADDE7710F00087D
:1013800000FC00FFFFFBFFFF380900200000000009
:1013900010B5744600220A48C36801781A6104290E
:1013A00007D1023901701A601A61DA68FD318A4387
:1013B000DA6043685B6898472000FFF739F810BD92
:1013C000E409002000000000000000000000000010
:1013D00010B50348034BC360FFF772FB10BDC04656
:1013E000E4090020000400400000000000000000AC
:1013F000037870B50400012B10D06568A0682968D7
:10140000FEF7B6FE00220821E36801381A60596031
:10141000297A80B29862D9601A6170BD094B9842EE
:10142000EBD10222084B1020D9691143D961196907
:101430000A431A61002280211A61FFF751F8034B19
:10144000A360DAE7E409002000100240006CDC022F
:10145000F0B5474680B4F04610231A4EFF33B56806
:101460002F68EC692C621C4216D073681B69002B34
:1014700012D02107C90F0901E20701D50422114347
:10148000A20701D508221143620718D4E20501D54D
:1014900040221143300098474023234209D03B4269
:1014A00007D09F4373682F605B68002B01D030002A
:1014B00098474046FEF7BCFF04BC9046F0BD202292
:1014C0001143E3E7F40900200000000000000000E1
:1014D00010B5064C2000FFF75BFB054BA36008230B
:1014E000E360044B23610C3B636110BDF4090020F1
:1014F00000380140E816000800000000000000006D
:1015000010B5FFF765FC10BD0000000000000000F2
:101510007047C0460000000000000000000000000E
:1015200090230122DB055A837047C046000000006B
:101530002A230A4A00B513700023012185B0537095
:101540000193074B4942029100931D310223054844
:10155000FFF7F6FA044B186005B000BD180A00202A
:10156000100A0020AC0900201C0A00200000000026
:1015700000B50A2085B0FFF70BFA2A23094A1C217F
:10158000137007335370323B029300230193064BD1
:10159000064800930223FFF7D3FA054B186005B005
:1015A00000BDC046180A0020100A0020AC09002027
:1015B0001C0A0020000000000000000000000000E5
:1015C000F0B54F464646C0B485B0FFF7B1FF0A20DC
:1015D000FFF7DEF92B232C4C2C4E2370283B637035
:1015E000043B994602930023294F98462200019319
:1015F0001C21023300973000FFF7A2FA254D286026
:101600000A20FFF7C5F915232370633363704B4637
:1016100002934346220001931C21023300973000BD
:10162000FFF78EFA28600A20FFF7B2F9172323701C
:10163000783363704B4602934346220001931C218A
:10164000023300973000FFF77BFA28600A20FFF78B
:101650009FF918232370093B63704B46029343465E
:1016600022001C210193009702333000FFF768FA33
:1016700028600A20FFF78CF9FFF77AFF05B00CBC51
:1016800090469946F0BDC046180A0020AC090020DB
:10169000100A00201C0A00200000000000000000CA
:1016A00069646C650000000000000000000000009C
:1016B0006D61696E00168811040448080C10141836
:1016C000001C1D1E1F200000000000000000000084
:1016D0000800024004000240000009001C00024013
:1016E0000400024004010A003000024004000240ED
:1016F00008020A0044000240040002400C030B00F0
:10170000580002400400024010040B0000000000DA
:101710005500002800000000000000FC4055556501
:10172000FFFF0000000000000000000000A00A0110
:1017300000000000F003000055055055FFFF0000B9
:101740000000000011000000000005000000000083
:1017500000000FF055555005FFFC00000000000090
:101760000000000000400000000000000000000039
:1017700050155555FFFF000000000000000000005C
:1017800010270000211500080000000000000000E4
:0C179000130F42100000000000000000D9
:04000005080002C12C
:00000001FF
