:020000040800F2
:100000000004002021030008010500080105000884
:1000100001050008010500080105000801050008A8
:100020000105000801050008010500083105000868
:100030000105000801050008010500081106000877
:100040000105000801050008010500080105000878
:100050000105000801050008010500080105000868
:10006000010500080105000801050008516A0008A3
:10007000816A0008B16A0008E16A0008116B000893
:10008000416B0008716B00087173000801050008DE
:100090000105000801050008010500080105000828
:1000A0000105000801050008010500080105000818
:1000B0000105000801050008B178000801050008E5
:1000C00001050008010500080105000801050008F8
:1000D0000105000801050008D17A000801050008A3
:1000E00001050008010500080105000801050008D8
:1000F000010500080105000801050008A16B0008C2
:1001000001050008010500080105000801050008B7
:1001100001050008010500080105000801050008A7
:10012000D16B0008016C0008316C0008616C00089C
:10013000916C000801050008010500080105000890
:100140000105000801050008010500080105000877
:10015000C16C0008F16C0008216D00080105000861
:100160000105000801050008010500080105000857
:100170000105000801050008010500080105000847
:100180000105000801050008010500080105000837
:100190000105000801050008010500080105000827
:0C01A00001050008010500080105000829
:1001B00010B582B006F01CFB002400F099FA41F261
:1001C0001C30C4F202040021C2F2000006F0F0FB71
:1001D000042140F28232204607F012FA082140F250
:1001E0008232204607F00CFA2369DA077AD441F20A
:1001F000D42048F6B0414FF48064C4F20204C2F245
:100200000000C0F6000106F013FC4FF4805020837C
:100210004FF480512046192207F0F2F920464FF49E
:10022000005140F29A2207F0EBF920464FF480414A
:1002300040F2822207F0E4F940F29A2220464FF47D
:10024000004107F0DDF941F29C20C2F200000021DC
:1002500006F0FEFA07F0CCF84FF400600322C4F277
:100260000200022107F0CCF941F2083040F6B80153
:10027000C2F20000C2F2000106F01AFB4FF4406027
:10028000C4F202004FF480514FF4817207F0B8F9C4
:100290004FF44060C4F202004FF400414FF4817209
:1002A00007F0AEF941F2983047F611530024C2F23C
:1002B00000004FF4A8714022C0F60003009400F043
:1002C0004FFCC4F2020403E04FF4FA7000F098FC13
:1002D0002169CB07F8D541F21C30C2F2000002F0D0
:1002E00057F9F1E741F21C30C2F2000002F050F978
:1002F0007DE700BFAFF30080AFF30080AFF3008075
:10030000704700BFAFF30080AFF30080AFF3008011
:10031000FEE700BFAFF30080AFF30080AFF30080D3
:1003200072B640F60001C2F2000181F3098802238F
:1003300083F31488BFF36F8F40F2000240F2004451
:10034000C2F20002C2F20004A24217D213464FF0DA
:10035000553043F8040BD643A519A342C5F38005D5
:100360000CD225B1186002F10803A34206D21A4646
:1003700042F8040B5860131DA342F8D340F2004228
:10038000C2F200028A4217D213464FF0553043F8AA
:10039000040BD5434C198B42C4F380040CD224B116
:1003A000186002F108038B4206D21E4646F8040B81
:1003B0005860331D8B42F8D307F09AFC40F6EC04EA
:1003C00040F60001C2F20001C2F20004A14225D2AF
:1003D00048F6F840C0F6000002460B4652F8046B9F
:1003E00043F8046BCD4304EB050CA342CCF380052A
:1003F00014D23DB116681E6001F10803A34200F15A
:1004000008020BD21146184651F8045B526840F8B6
:10041000045B5A60031D0A1DA342F3D340F6EC02AD
:1004200041F2F840C2F20002C2F20000824217D24A
:100430001346002143F8041BD44300EB040E83420F
:10044000CEF380040CD224B1196002F10803834278
:1004500006D21E4646F8041B5960331D8342F8D36A
:1004600040F2AC1540F2AC16C0F60005C0F600062E
:10047000FFF746FFB54219D22C46E94354F8043B36
:1004800077189847B442C7F380070FD22FB123687B
:1004900005F108049847B44208D2254655F8042BC4
:1004A000904760682C1D8047B442F6D340F2AC15EB
:1004B00040F2AC16C0F60005C0F60006FFF778FE65
:1004C000B5421AD22C46EF4354F8043B06EB070C16
:1004D000CCF380079847B4420FD22FB1226805F1C0
:1004E00008049047B44208D2254655F8040B8047CB
:1004F00061682C1D8847B442F6D3FFF709BF00BFDF
:10050000FEE700BFAFF30080AFF30080AFF30080E1
:1005100072B6FEE7AFF30080AFF30080AFF3008068
:1005200000F0AEFA00DF00BFAFF30080AFF3008051
:10053000EFF30983203383F30988002383F31188C1
:10054000704700BFAFF30080AFF30080AFF30080CF
:1005500008B54FF46D43CEF200034FF44072C0F281
:10056000FA520021996007201021DA6000F098F813
:100570000A20202100F094F80B208021BDE80840DB
:1005800000F08EB8AFF30080AFF30080AFF30080CF
:10059000202383F311884FF46D40CEF200004368AE
:1005A00013F400631FD0EFF309824FF0807342F819
:1005B000043CA2F1200181F3098840F62823C2F20D
:1005C00000039969C87F88B118688B688068984271
:1005D00094BF0023012393B140F22153C0F60003DE
:1005E00042F8083C704783F31188704718688B689D
:1005F0008168994234BF00230123002BECD140F2E3
:100600002451C0F6000142F8081C7047AFF3008087
:1006100008B5202383F3118800F0A2F8002383F3A8
:100620001188BDE80840FFF7B3BF00BFAFF30080FB
:100630002DE9F04FC1F80CD0D0F80CD0BDE8F08F08
:10064000002383F311882846A04700F041FB704740
:10065000F0B44FF461438408CEF20003C03400F0DC
:10066000030253F82470D500FF264209AE4027EA62
:10067000060611FA05F500F01F0002F160070121DE
:1006800011FA00F02E4343F8246043F8270043F8A2
:100690002200F0BC704700BFAFF30080AFF30080D2
:1006A00030B44FF46D438508CEF20003AA1D00F06C
:1006B000030053F82250C000FF24844025EA0404BC
:1006C00011FA00F0044343F8224030BC704700BFE9
:1006D00040F62820C2F2000047F640638269C0F667
:1006E00000039361FEE700BFAFF30080AFF300802B
:1006F00030B583B0FFF72CFF00F0DAF800F060F8B7
:1007000001F0AEFB01F0F4FB40F6EC004021C2F238
:10071000000000F0C5F940F62824C2F200040122CE
:10072000A0610277002383F3118862B647F6506117
:10073000A569C0F600011C4640F6381040F2D163AE
:10074000A961C0F60003E021C2F20000009400F0AD
:1007500007FA03B030BD00BFAFF30080AFF30080F5
:1007600038B540F62823C2F200039B69DA7F0AB14C
:10077000013ADA771A6A40F61824C2F20004511CD2
:100780001962E3682168581CA142E06014D08D68AA
:10079000013D8D6085B90B68CA685C602360CD60DF
:1007A000002383F3118808699047202383F311887D
:1007B000216888680028EED038BD00BFAFF3008004
:1007C00040F61823C2F200034FF0FF3000225B60B6
:1007D0001B609860DA607047AFF30080AFF3008071
:1007E00030B440F61824C2F2000403612568C260E8
:1007F000AB68994204D92D68C91AAB688B42FAD309
:100800006B688160A54243600560186018BFAB68E3
:1008100068601CBFC1EB0301A96030BC704700BF1A
:10082000036840F61822C2F2000293421FBF996883
:1008300082688A189A6042681360016800234A60DF
:10084000C3607047AFF30080AFF30080AFF3008068
:10085000202383F31188037F0D2B11D8DFE803F0E9
:1008600023101007100B101010101010100B416AFD
:100870008B685A1C8A6090E80C001A60026853600A
:100880004FF0FF3240F6282342628168002202774F
:10089000C2F200031B689A688A42FBD2596803605F
:1008A000416008605860002383F31188704700BFDF
:1008B00040F62823C2F2000300225B601B609A60AE
:1008C0005B611B61704700BFAFF30080AFF3008036
:1008D00040F62823002281680277C2F200031B68D9
:1008E0009A688A42FBD25968036041600860586088
:1008F000704700BFAFF30080AFF30080AFF300801C
:1009000040F62823C2F2000310B499691A680877E8
:1009100014201468C87701201077104663601C60AB
:100920009A6110BCFFF784BEAFF30080AFF3008084
:1009300030B54B1C87B0054617D040F62824C2F2CC
:10094000000440F65102A369C0F6000201A8FFF7B7
:1009500047FF2846FFF7D4FF049B13B101A8FFF718
:100960005FFFA069406A07B030BD40F62824FFF75A
:10097000C7FFC2F20004F4E7AFF30080AFF30080DA
:1009800040F62822C2F2000230B49469856803461A
:10099000A06859620021854284BF217711460BD897
:1009A0001977126891688D42FBD950681A605860B7
:1009B0000360536030BC704709688D68A842FBD95A
:1009C0004868216060604C60012104601977184616
:1009D0002146936130BCFFF72BBE00BFAFF3008010
:1009E00040F62823C2F2000330B4186899690268FF
:1009F0008C6853601A6001259861142200230577E2
:100A0000CA770B77034600E01B689A68A242FBD2C4
:100A10005A680B604A601160596030BCFFF708BE2D
:100A200040F62823C2F2000330B4186899690268BE
:100A30008C68536001251A609861002305770B7755
:100A4000034600E01B689A68A242FBD85A680B6014
:100A50004A601160596030BCFFF7EABDAFF3008017
:100A600040F6282CC2F2000CDCF80010DCF818006C
:100A70008A6883689A4200D87047FFF7D1BF00BFE9
:100A800040F62821C2F200018869C37F0BB1FFF74D
:100A9000C7BFFFF7A5BF00BFAFF30080AFF3008073
:100AA000F0B440F62824C2F2000400226569016413
:100AB000046100F12C06816000F1280745614FF0C8
:100AC000020360610121142403774277C477C26373
:100AD0008263026281778261286187620663C662EF
:100AE000F0BC7047AFF30080AFF30080AFF300803D
:100AF0002DE9F00740F62825C2F20005A1F1240CEB
:100B000000EB0C07D5F81490C76040F80C30079B39
:100B100040F241617B60C0F6000102233962002689
:100B2000904600F1280A00F12C02037714210123DA
:100B30000561C0F80880C0F8149046776861C177F5
:100B4000C0F84080C6638663066283778661C9F811
:100B50001000C0F828A00263C262BDE8F007704729
:100B600010B59C4682B0202383F31188049C634611
:100B70000094FFF7BDFF00210446FFF701FF0023AB
:100B800083F31188204602B010BD00BFAFF3008090
:100B900010B5202383F3118840F62823C2F2000306
:100BA0009B691C6C9A68944201D0824200D2986082
:100BB0001864FFF755FF002383F31188204610BD0A
:100BC00010B52023044683F311880021FFF7D8FED7
:100BD000002383F31188204610BD00BFAFF30080CF
:100BE000202383F31188417F41F0040343770023DE
:100BF00083F31188704700BFAFF30080AFF300802C
:100C000008B50146202383F311880620FFF790FEE4
:100C1000002383F3118808BDAFF30080AFF3008099
:100C200008B5202383F3118840F61823C2F200038D
:100C3000D968411A02D00620FFF77AFE002383F319
:100C4000118808BDAFF30080AFF30080AFF30080E0
:100C500008B5202383F3118840F6282CC2F2000C3B
:100C6000DCF80010DCF818008A6883689A4201D327
:100C7000FFF7B6FE002383F3118808BDAFF30080B1
:100C800038B540F62823C2F200039C69254660620D
:100C900055F8280FA84206D00168A162FFF718FE98
:100CA000A06AA842F8D194F81DC05FEA8C7001BF19
:100CB000226960690261226908BF50610E20BDE8A7
:100CC0003840FFF71DBE00BFAFF30080AFF30080D8
:100CD000202383F31188FFF7D3BF00BFAFF3008059
:100CE00038B50446202383F31188037F0E2B0AD0E6
:100CF00040F62825C2F20005826AA96907200A6029
:100D0000A162FFF7FDFD656A002383F31188204689
:100D100000F016F8284638BDAFF30080AFF300802E
:100D2000202383F31188817F4B1C8377002383F377
:100D300011887047AFF30080AFF30080AFF30080FD
:100D40000146202383F31188827F531EDAB2827713
:100D5000002383F3118822B990F81CC0BCF10E0F58
:100D600000D07047437F03F00303012B09D0022B0F
:100D7000F7D143690269406C1A610A69536101F055
:100D8000F7B9436902691A6101694B6101F018B949
:100D900070B582B00C4615461E4601F0C9F8A8B1E0
:100DA000202383F311882146069C33462A4600946B
:100DB000FFF79EFE0123437700210446FFF7E0FD85
:100DC000002383F31188204602B070BD0446FAE781
:100DD000F0B583B004460D4616461F4601F0B0F943
:100DE000A8B1202383F31188616800972A4633460F
:100DF000FFF77EFE02234377446400210546FFF798
:100E0000BFFD002383F31188284603B0F0BD0546DB
:100E1000FAE700BFAFF30080AFF30080AFF30080CC
:100E2000202383F3118840F62820C2F2000000231B
:100E30000069817F4A1C827783F31188704700BF65
:100E400010B5202383F3118840F628230469C2F2E9
:100E500000039C4209D0A27F511CA177002383F399
:100E60001188FFF76DFF204610BD0024F6E700BF94
:100E70004060006081607047AFF30080AFF3008096
:100E8000F8B5876881600137002F044629DC406887
:100E9000436863601C60FFF71BFD6FF0010607F0FD
:100EA000010346627D1CEFB14BB16068416861602F
:100EB0000C60FFF70DFD0135012D466213D060680F
:100EC000436863601C60FFF703FD46626068426828
:100ED00062601460FFF7FCFC691C46620235002961
:100EE000EDD1F8BDF8BDF8BDAFF30080AFF30080E1
:100EF00008B5202383F31188FFF7C2FFFFF7B0FD89
:100F0000002383F3118808BDAFF30080AFF30080A6
:100F100081684A1E002A10B50346826001DB00206A
:100F200010BD40F62824C2F200040320A2695362D7
:100F30005968136051605A600A60FFF7E1FCA369C9
:100F4000586A10BDAFF30080AFF30080AFF30080AC
:100F500008B5202383F31188FFF7DAFF002383F31A
:100F6000118808BDAFF30080AFF30080AFF30080BD
:100F700003468068421E002A10B49A6002DB0020FB
:100F800010BC704771B140F62824C2F2000403205F
:100F9000A26953625C6882E818005A60226010BC43
:100FA000FFF7C6BC98604FF0FF30E9E7AFF3008071
:100FB00008B5202383F31188FFF7DAFF002383F3BA
:100FC000118808BDAFF30080AFF30080AFF300805D
:100FD00008B50246202383F3118881684B1C002B3F
:100FE000836003DD002383F3118808BD0068036874
:100FF000002113605A60FFF7C3FC002383F31188BC
:1010000008BD00BFAFF30080AFF30080AFF30080F6
:1010100003468068421C002A9A6000DD70471A6807
:101020001168104619604B6000235362FFF750BCF3
:10103000F8B50D1E044637DD816800264B1C6F1E77
:10104000B342836007F001072FDD013D2CD07FB153
:10105000A1684B1C002BA3602FDD013D08D134E0BB
:10106000A068411C013D0029A16013DD013D1AD09B
:10107000A268501C0028A060F2DC2068036823608E
:101080005C60FFF725FC4662A068411C013D002919
:10109000A160EBDC2068036823605C60FFF718FC4C
:1010A000013D4662E4D1F8BDF8BD006802682260E7
:1010B0005460FFF70DFC4662C7E7206802682260B3
:1010C0005460FFF705FC4662C7E7F8BDAFF3008048
:1010D00010B5024682B0202383F311888368013360
:1010E000002B83601CDD8A68501E0028886007DBA7
:1010F000FFF7B6FC0020002383F3118802B010BD77
:1011000040F62824C2F200044B68A469032084E856
:101110000A004C601C606162FFF7F2FB606AEAE75C
:101120000068036813605A600191FFF7D1FB00214A
:1011300041620199D7E700BFAFF30080AFF30080B1
:101140000023406000608360704700BFAFF3008001
:10115000F8B540F628230546C2F2000380689C6972
:10116000002850D0A26881688A4206D9037F826035
:10117000042B30D0052B1BD093B12B461B689D420E
:1011800003D09868A2689042F8D25968236004207E
:1011900061600C605C606562BDE8F840FFF7B0BB61
:1011A00090E80C001A6001684B60FFF791FBE4E7E0
:1011B00041680768466A0F600768334679601B68B4
:1011C0009E4202D099689142F9D25A680360426007
:1011D00010605860D1E741680768466A0F60076889
:1011E000334679601B689E4212D099689142F9D2C9
:1011F0005A680360426010605860B068A2688368F3
:101200009342B3D3B9E7E36BAC60EB60E563F8BD41
:101210003346EDE7AFF30080AFF30080AFF300801B
:1012200008B5202383F31188FFF792FF002383F38F
:10123000118808BDAFF30080AFF30080AFF30080EA
:101240000246202383F31188836800201BB100230A
:1012500083F31188704740F6282CC2F2000C01205D
:10126000DCF81830D96B9360D160DA63002383F324
:1012700011887047AFF30080AFF30080AFF30080B8
:1012800040F62822C2F20002F8B59269202383F3C7
:101290001188D46B2368E168A342D1631CD0176C1A
:1012A00049B10868884203D08068874238BF074642
:1012B000C9680029F5D11D68DE6B97601846256066
:1012C00000216C60A360E660DC63FFF759FB00233C
:1012D00083F311882046F8BD0023A360002383F325
:1012E00011882046F8BD00BFAFF30080AFF3008047
:1012F00040F62823C2F2000370B59969CC6B2368CD
:10130000E268A342CA6318D00E6C4AB110689042DA
:1013100003D08068864238BF0646D268002AF5D1DD
:101320001A68DD6B8E60184622605460A360E56029
:10133000DC63FFF7CDFA204670BD0021A160204696
:1013400070BD00BFAFF30080AFF30080AFF300804B
:1013500040F62822C2F2000270B52023946983F37C
:101360001188E36BC3B100251A68D9689A42E1631A
:1013700008BF9D6009D01168D66B196010464B609C
:101380009A60DE60D363FFF7A3FAE36B002BEBD127
:10139000236CA360FFF764FB002383F3118870BD07
:1013A00040600060704700BFAFF30080AFF3008083
:1013B00008B50246202383F311880068904205D0C7
:1013C0000368002113605A60FFF7DAFA002383F301
:1013D000118808BDAFF30080AFF30080AFF3008049
:1013E00008B503460068984206D002681A60536048
:1013F000FFF76EFA0023436208BD00BFAFF3008021
:1014000038B504460068A0420AD06FF001050368B1
:1014100023605C60FFF75CFA45622068A042F6D169
:1014200038BD00BFAFF30080AFF30080AFF30080A2
:1014300008B5202383F31188FFF7E2FFFFF710FBC5
:10144000002383F3118808BDAFF30080AFF3008061
:1014500040F62823C2F2000370B505469C69FFF7E9
:1014600047FF656206462B462A4603E09068A1685E
:10147000884210D312689542F8D15A68236062609E
:1014800014605C600520FFF73BFA646A3046FFF7A2
:101490005FFE204670BD1346EFE700BFAFF300804C
:1014A00008B5202383F31188FFF7D2FF002383F3CD
:1014B000118808BDAFF30080AFF30080AFF3008068
:1014C000F8B504460E46FFF713FF40F62823C2F294
:1014D00000030546986927462346446203E099685D
:1014E0008268914213D31B689C42F8D17C680760E4
:1014F00044602060786031460520FFF719FA044601
:10150000013002D02846FFF723FE2046F8BD1F46D3
:10151000ECE700BFAFF30080AFF30080AFF30080D3
:1015200008B5202383F31188FFF7CAFF002383F354
:10153000118808BDAFF30080AFF30080AFF30080E7
:1015400030B4202383F3118840F62823C2F200032D
:1015500004689D690C600024016023464D608A6028
:10156000CC6083F3118830BC704700BFAFF30080BC
:10157000202383F31188024602E0994207D01A46DD
:1015800013688342F9D1002383F3118870470B68F5
:101590001360002383F31188704700BFAFF300800E
:1015A00010B4202383F3118840F62824C2F20004EB
:1015B0000023A1698A6B22EA00048C6383F31188FB
:1015C000104010BC704700BFAFF30080AFF3008045
:1015D000202383F3118840F6282CC2F2000C00234C
:1015E000DCF81820916B0843906383F311887047EF
:1015F00008B5826B037F0A43082B82630CD0092B4A
:1016000000D008BD436A02EA03018B42F9D1FFF71B
:101610005FF90022426208BD436A1A42F7D108BD51
:1016200008B5202383F31188FFF7E2FFFFF718FACC
:10163000002383F3118808BDAFF30080AFF300806F
:1016400070B50468A04205460E4608D0201D0BC8A0
:101650003343E360FFF7CCFF2468A542F6D170BDA9
:1016600008B5202383F31188FFF7EAFFFFF7F8F9A5
:10167000002383F3118808BDAFF30080AFF300802F
:10168000F8B50D46074641B10024012616FA04F3C9
:101690002B4203D10134002DF8D1F8BD57F8242096
:1016A000204625EA030501349047002DEED1F4E7EA
:1016B00038B540F62823C2F2000305469C69202372
:1016C00083F31188A36B10EA030206D1606208203D
:1016D000FFF716F9A36B05EA03025042104023EA14
:1016E0000001A163002383F3118838BDAFF30080AC
:1016F00038B540F62823C2F2000305469C69202332
:1017000083F31188A36B184006D108206562FFF7A8
:10171000F7F8A36B05EA030023EA0001A1630023A5
:1017200083F3118838BD00BFAFF30080AFF30080B2
:1017300038B540F62823C2F2000304469D692023F1
:1017400083F31188AB6B00EA0302824204D0686223
:101750000920FFF7D5F8AB6B23EA0400A863002348
:1017600083F31188204638BDAFF30080AFF30080CB
:1017700040F62823C2F2000370B59E690546202377
:1017800083F31188B36B10EA03040ED121B9234609
:1017900083F31188204670BD70620820FFF7C8F8F7
:1017A0000028F4DBB36B05EA03046242144023EA29
:1017B0000400B063002383F31188204670BD00BF8E
:1017C00040F62823C2F2000370B59E690446202328
:1017D00083F31188B36B10EA03050ED121B92B46B0
:1017E00083F31188284670BD70620820FFF7A0F8C7
:1017F0000028F4DBB36B04EA030523EA0500B063B9
:10180000002383F31188284670BD00BFAFF300802A
:1018100038B540F62823C2F2000304469D69202310
:1018200083F31188AB6B00EA030282420ED029B920
:101830000B4683F311880C46204638BD68620920A8
:10184000FFF776F80028A8BFAB6B07DB23EA04009C
:10185000A863002383F31188204638BD002383F357
:1018600011881C46F8E700BFAFF30080AFF300809B
:1018700070B540F62822C2F200022023946983F357
:10188000118800F12C056562067F036B25600C2E24
:101890006163636004631C6007D00A20FFF730F8BF
:1018A000606A002383F3118870BDFFF711F80A20E6
:1018B000FFF726F8606A002383F3118870BD00BF2C
:1018C00010B5202383F3118840F62824C2F20004C7
:1018D000A3691A4652F82C0F904208D00168D962C9
:1018E0004A600B220277002383F3118810BD0C207D
:1018F000FFF706F8A3691A4652F82C0FEEE700BF6F
:1019000008B5202383F31188FFF73AF8002383F307
:10191000118808BDAFF30080AFF30080AFF3008003
:1019200038B504460B4601EB82051C301146E360D6
:10193000A36084E82800FFF79BFA04F1100000215F
:10194000BDE83840FFF794BAAFF30080AFF30080F2
:1019500010B52023044683F3118803684268C360EE
:10196000D11AA3601C308910FFF78AFA04F1100025
:101970000021FFF785FAFFF773F8002383F311883E
:1019800010BD00BFAFF30080AFF30080AFF3008065
:1019900070B504460D461C301146FFF7E9FA0646BD
:1019A00078B9A368626843F8045B9342A36028BFD8
:1019B000236804F1100028BFA360FFF729FBFFF79D
:1019C0004FF8304670BD00BFAFF30080AFF300802A
:1019D00008B5202383F31188FFF7DAFF002383F390
:1019E000118808BDAFF30080AFF30080AFF3008033
:1019F000436A002B10B510DD82684468013B4362E6
:101A000042F8041BA24228BF0368826028BF83609B
:101A10001030FFF7FDFA002010BD4FF0FF3010BD71
:101A200070B504460D461C301146FFF7A1FA064674
:101A300060B9E3682268043B9342E36008D304F191
:101A400010001D60FFF7E4FAFFF70AF8304670BD9A
:101A50006068031FE360F2E7AFF30080AFF300803C
:101A600008B5202383F31188FFF7DAFF002383F3FF
:101A7000118808BDAFF30080AFF30080AFF30080A2
:101A8000436A002B10B510DDC2680468043A013BBC
:101A9000A2424362C26002D243681A1FC260103081
:101AA0001160FFF7B5FA002010BD4FF0FF3010BDF8
:101AB00070B504460D4610301146FFF759FA064638
:101AC00080B9E368626853F8041B93422960E360BD
:101AD00028BF236804F11C0028BFE360FFF798FAD1
:101AE000FEF7BEFF304670BDAFF30080AFF300805D
:101AF00008B5202383F31188FFF7DAFF002383F36F
:101B0000118808BDAFF30080AFF30080AFF3008011
:101B10008369002B10B511DDC2684468013B836105
:101B200052F8043BA2420B6028BF0368C26028BF82
:101B3000C3601C30FFF76CFA002010BD4FF0FF307F
:101B400010BD00BFAFF30080AFF30080AFF30080A3
:101B500010B4024671B140F62824C2F200040D20F0
:101B6000A3695A62546883E814005360236010BC70
:101B7000FEF7DEBE4FF0FF3010BC7047AFF30080C1
:101B800010B4C361019B40608A1800240060846027
:101B900041618161C1600261036210BC704700BF96
:101BA00038B5C1680446006861610023A042A161A4
:101BB000A3600AD06FF00105026822605460FEF74E
:101BC00087FE456220688442F6D138BDAFF30080BD
:101BD000426908B503468069824298681AD001308C
:101BE000986002F8011B18695A6182420BD218688A
:101BF00098420DD0016819604B60FEF769FE002322
:101C00004362184608BD1868DA6898425A61F1D1F3
:101C1000002008BD0028E2D06FF0030008BD00BF1F
:101C200070B5202304460D4683F31188C36903B1C0
:101C30009847A6684EB920462946FFF789FF002835
:101C4000F7DA334683F3118870BDA3692269013E38
:101C5000A66013F8010B9342A36124BFE368A3615C
:101C6000002383F3118870BDAFF30080AFF30080D1
:101C70002DE9F0471D4604460E469146D0F81C80DB
:101C8000202383F311880027B8F1000F01D02046EC
:101C9000C047D4F808A0BAF1000F0BD1204629465E
:101CA000FFF756FF0028F4D0534683F311883846D7
:101CB000BDE8F087A3690AF1FF31A16013F8010BB9
:101CC000F0552269A361934224BFE368A361002316
:101CD00083F3118801374F45E9D0202383F311881E
:101CE000D2E700BFAFF30080AFF30080AFF3008016
:101CF00010B4C361019B40608C1800608260416138
:101D00008161C1600461036210BC7047AFF3008061
:101D100038B50169C368044600686361CA1AA04205
:101D2000A361A2600AD06FF00105026822605460CE
:101D3000FEF7CEFD456220688442F6D138BD00BF73
:101D4000F8B504460D461646202383F31188A7688C
:101D50004FB920463146FFF7FBFE0028F7DA3B4635
:101D600083F31188F8BD6369013FA76003F8015B45
:101D700022696361934224BFE3686361E3690BB145
:101D800020469847002383F311881846F8BD00BF0A
:101D900041698269914210B50346816816D04C1C96
:101DA0009C6012F8014B18699A6182420BD2186844
:101DB000984206D0016819604B60FEF789FD002348
:101DC0004362204610BDDA689A61F0E70029E6D048
:101DD0006FF0020010BD00BFAFF30080AFF30080D2
:101DE0002DE9F0471E4604460D461746D0F81C90D4
:101DF000202383F311884FF00008D4F808A0BAF12B
:101E0000000F21D00AF1FF31A1606369287803F83F
:101E1000010B22696361934224BFE3686361B9F1F6
:101E2000000F01D02046C847002383F31188013FEB
:101E300008F1010811D00135202383F31188D4F86B
:101E400008A0BAF1000FDDD120463146FFF780FE31
:101E50000028D2D0534683F311884046BDE8F0876E
:101E6000094940F6482240F644234CF2000CC2F2E5
:101E70000002C2F20003C2F2010C21F007002CF0B4
:101E80000701106019607047FF140020AFF3008055
:101E9000202383F3118840F6482340F6442CC2F2F5
:101EA0000003C2F2000C1A68DCF80010073020F0C2
:101EB0000700891A88429ABF101818600022002370
:101EC00083F3118810467047AFF30080AFF30080B2
:101ED00040F6442240F64821C2F20002C2F200015C
:101EE00010680B68C01A7047AFF30080AFF3008032
:101EF00040F65023C2F2000341F691620021C0F681
:101F0000000203F110001A609960D960FFF718B958
:101F1000002303608160C360083A10300B604A60A0
:101F2000FFF70EB9AFF30080AFF30080AFF300808E
:101F3000F8B540F65024C2F20004002818BF044649
:101F4000073104F1100021F0070604F10805FFF73E
:101F500067F900E01D462B6803B35A689642F9D82A
:101F600006F108018A4216D34FF6F870CFF6FF70DB
:101F70005F18D3F800E0C6EB000C0CEB020043F84E
:101F800001E078602F605E601D4645F8084BFFF762
:101F900077F92846F8BD1A682A60F5E7FFF770F967
:101FA0002568002DF5D006F10800A8470546002851
:101FB000EFD000F1080580E850002846F8BD00BFCA
:101FC00070B50646A0F1080450F8080C00F10805A9
:101FD0001030FFF725F92B46591B484240EB010210
:101FE0009C4288BF42F0010272B11A6872B19442F9
:101FF0000CD31346591B484240EB01029C4288BF58
:1020000042F00102002AF0D11B68E5E756F8041CF3
:1020100046F8082C1C6001F1080256F8085CA0186C
:10202000A8420AD05A6802F1080E03EB0E0C644570
:1020300012D0BDE87040FFF723B94068A2580818D5
:10204000083046F8040C46F8082C5A6802F1080ECD
:1020500003EB0E0C6445ECD156F8040C56F8081C42
:102060001218083283E80600E3E700BFAFF30080F0
:1020700038B540F65024C2F20004002818BF0446C8
:1020800004F110000D46FFF7CBF8A3681A461C4672
:102090003BB10022144659681B6852180134002BCA
:1020A000F9D105B12A60FFF7EBF8204638BD00BF33
:1020B0000023036041608260704700BFAFF300807F
:1020C00070B4002A35D0013A02F00105202383F3D1
:1020D0001188046800230C60016083F31188436851
:1020E000C91832B365B1202383F311880468002333
:1020F0000C60016083F311884368013A194418D0D9
:10210000202383F31188046800230C60016083F3AB
:1021100011884568013A4C19202383F31188066819
:1021200000234E51046083F311884168013A214431
:10213000E6D170BC704700BFAFF30080AFF3008002
:1021400008B50246202383F31188006828B103688C
:102150001360002383F3118808BD9368002BF8D027
:1021600050689847002383F3118808BDAFF30080BF
:10217000202383F31188026800230A60016083F33F
:1021800011887047AFF30080AFF30080AFF3008099
:1021900041F20513C2F2000301221A70704700BF1A
:1021A00070B541F238164C25C2F20006306804685A
:1021B0002D21A268904730680168013D8B682D2170
:1021C00041F238149847013DC2F20004EED1206874
:1021D000026847F690611368C0F600010222984732
:1021E00070BD00BFAFF30080AFF30080AFF300809D
:1021F000F0B585B000283AD04CF6CD426F466C461B
:10220000CCF6CC42A2FB0013DB0803EB830CA0EB63
:102210004C013031C9B2184604F8011B002BF1D132
:10222000BC4222D9013C41F23816E307C2F2000653
:1022300015D5306803689A689047306814F8011D16
:1022400003689A689047BC420FD0306814F8011CAC
:102250000368651E9A68904715F8011C023C3068B7
:1022600003689A689047BC42EFD105B0F0BD41F2D7
:102270003810C2F200003021006802689368984765
:10228000F3E700BFAFF30080AFF30080AFF300804F
:1022900038B5017861B141F238150446C2F2000543
:1022A000286802689368984714F8011F0029F7D13D
:1022B00038BD00BFAFF30080AFF30080AFF3008004
:1022C00008B5FFF7E5FF41F23810C2F2000047F60B
:1022D000906100680268C0F6000113680222984706
:1022E00008BD00BFAFF30080AFF30080AFF3008004
:1022F000202383F3118841F20812C2F20002002366
:10230000116801F8010B116083F31188704700BF59
:1023100010B491B941F2041441F20C1141F20012CF
:10232000C2F20004C2F20001C2F2000201231060F6
:1023300023700B70184610BC70470020FBE700BFED
:10234000F0B441F20814C2F2000441F23C122368D6
:10235000C2F200029D1A15F0010F164617D09342E3
:1023600017D911F8015B1778561CAF420FD015E052
:102370000D4696F800C015F8017B0136BC450DD11D
:102380004F7896F800C0691C0136BC4506D1B342AF
:10239000EED80B7813B92260184610E041F204140D
:1023A00041F20C1141F20012C2F20004C2F200012B
:1023B000C2F200020123106023700B701846F0BCBB
:1023C000704700BFAFF30080AFF30080AFF3008031
:1023D00040F6182CC2F2000C521ADCF80C30591AD4
:1023E000914210B412D341F2041441F20C1141F2A3
:1023F0000012C2F20004C2F20001C2F20002012384
:10240000106023700B70184610BC70470020FBE76B
:1024100010B541F22414C2F20004206808B1FEF79E
:10242000DFFB606808B1FEF7DBFBA06808B1FEF7D0
:10243000D7FBE06808B1FEF7D3FB206918B1BDE80F
:102440001040FEF7CDBB10BDAFF30080AFF30080AE
:1024500038B541F22414C2F20004206818B1FEF726
:102460003FFC00232360606841F22415C2F200059E
:1024700018B1FEF735FC00206860A06841F2241511
:10248000C2F2000518B1FEF72BFC0021A960E0683C
:1024900041F22415C2F2000518B1FEF721FC00221A
:1024A000EA60206941F22414C2F2000418B1FEF778
:1024B00017FC0023236138BDAFF30080AFF3008029
:1024C00040F62823C2F200034FF47A719B6930B4BE
:1024D00001FB00F544F6D354196A6A1EC1F2620486
:1024E0004D1CA4FB022005EB90101A6A8A4234BFEF
:1024F00000240124814208D282422CBF002204F031
:102500000102002AF1D130BC704782422CBF224622
:1025100044F00102002AE8D1F5E700BFAFF30080E4
:1025200008B50120FEF76CFB40F61823C2F2000349
:10253000D86808BDAFF30080AFF30080AFF3008030
:1025400041F2051CC2F2000C10B500248CF80040CA
:10255000202383F311884FF47A7202FB00F144F6D2
:10256000D3534A1EC1F26203A3FB0220810942F247
:10257000911241F210102346C2F200000131C0F660
:102580000002FEF72DF9234683F3118810BD00BF2A
:102590002DE9F04F41F23816C2F2000685B03060E6
:1025A00048F6880041F20C15C0F600000395FFF7CD
:1025B00087FE47F69460C0F60000FFF781FE47F6FD
:1025C000B060C0F60000FFF77BFE47F6B460C0F6CF
:1025D0000000FFF75DFE47F6C860C0F60000FFF799
:1025E0006FFE47F6D060C0F60000FFF751FE47F6D9
:1025F000E460C0F60000FFF763FE47F6FC60C0F63B
:102600000000FFF745FE47F61070C0F60000FFF728
:1026100057FE47F61C70C0F60000FFF739FE47F67C
:102620003070C0F60000FFF74BFE47F63C70C0F676
:102630000000FFF72DFE47F65070C0F60000FFF7D0
:102640003FFE47F65C70C0F60000FFF721FE47F63C
:102650007070C0F60000FFF733FE47F68870C0F6D2
:102660000000FFF715FE47F69C70C0F60000FFF76C
:1026700027FE47F6D070C0F60000FFF709FE47F6C8
:10268000E470C0F60000FFF71BFE039B48F68800CD
:10269000C2F20003C0F600000393FFF711FE039897
:1026A00048F28001002248F2F00341F2081541F29D
:1026B0003C1B41F2041A41F22417C0F600010270DB
:1026C000C0F6000302910192C2F20005C2F2000BB3
:1026D000C2F2000AC2F2000701994A1C0192984610
:1026E0004FF0000958F8041B002971D0FFF758FD7E
:1026F00048F20C00C0F60000FFF7CAFD0198FFF792
:1027000077FD48F21C00C0F6000009F10109FFF74F
:10271000BFFD4846FFF76CFD48F22000C0F6000000
:10272000FFF7B6FD58F8044C2068FFF7B1FD48F2FA
:102730002400C0F60000FFF7C3FDC820FEF760FAD2
:1027400058F8044CC5F800B000223A607A60BA60CC
:10275000FA603A6163688AF8002003B19847E1683B
:102760008847A36803B19847FFF772FE9AF8000004
:10277000002850D048F22800C0F60000FFF788FD7E
:1027800041F2001CC2F2000CDCF80000FFF730FD43
:1027900048F24000C0F60000FFF77AFD2B685B4569
:1027A0000CD941F23C14C2F20004306814F8011B49
:1027B0000268936898472A68A242F6D848F2440013
:1027C000C0F60000FFF77CFD58F8041B00298DD1EE
:1027D000029850F8043F0290002B7FF47DAFFFF782
:1027E000DFFC48F68800C0F60000FFF769FD48F2FC
:1027F0005C00C0F60000FFF74BFD039803788BB92F
:1028000048F25400C0F60000FFF75AFD039A107812
:1028100005B0BDE8F08F48F24800C0F60000FFF7B1
:102820004FFD5FE748F26C00C0F60000FFF748FD7F
:10283000ECE700BFAFF30080AFF30080AFF30080A0
:10284000F8B540F62824C2F20004A3699D686E1C06
:102850003046FEF79DF9421B514241EB020107460B
:102860000120FFF755FD00B1F8BDA0698268B11ADB
:102870000220D1F1000C4CEB0101FFF749FD0028CB
:10288000F2D13846FEF784F9311A4B4243EB01018D
:102890000320FFF73DFD0028E6D1A06981684B1BAE
:1028A00004205A4242EB0301FFF732FD0028DBD13E
:1028B000202383F31188A3699A68911C99600346C9
:1028C00083F31188A769BA68AF1CC7EB020E052015
:1028D000DEF1000343EB0E01FFF71AFD0028C3D120
:1028E0003046FEF755F9411B484240EB01010620F6
:1028F000FFF70EFD0028B7D1A06981687A1A07207A
:10290000534243EB0201FFF703FD0028ACD1A0695D
:10291000016C721A0820534243EB0201FFF7F8FCE6
:102920000028A1D1EF1C3846FEF732F9321A534283
:1029300043EB02010920FFF7EBFC002894D1A069CA
:102940008368F91A0A20D1F1000C4CEB0101FFF762
:10295000DFFC002888D1A369196C7A1A0B20544235
:1029600044EB0201FFF7D4FC40F62824C2F2000435
:1029700000287FF479AF202383F31188A2690346EE
:102980009560156483F311886EE700BFAFF3008094
:10299000F0B540F62827C2F2000747F67066BD6919
:1029A000C0F60006AB68706842F6713583B0C0F6B9
:1029B000000548F210141A1FC0F600042B464FF40D
:1029C000A8710094FEF7CCF8BC693168A26841F2A6
:1029D0002414C2F2000448F2241E6060C0F6000E07
:1029E000053A2B4608464FF4A871CDF800E0FEF7F3
:1029F000B7F8BB6931699A68206048F2141CC0F6C8
:102A0000000C013A2B4608464FF4A871CDF800C0DF
:102A1000FEF7A6F8BB69F1689A68206148F2181EB3
:102A2000C0F6000E2B460846023A4FF4A871CDF8C6
:102A300000E0FEF795F82023E06083F31188BB697E
:102A4000B0689A6848F21C162B46C0F600064FF490
:102A5000A871033A0096FEF74BF8A060002383F3B9
:102A60001188A068FEF7ACF8FFF7F2FC48F22011DD
:102A70000120C0F6000103B0BDE8F040FFF760BCE4
:102A8000F0B540F62827C2F2000747F67066BD6928
:102A9000C0F60006AA68306842F6713583B0C0F609
:102AA000000548F22414053A2B46C0F600044FF402
:102AB000A8710094FEF754F8BC69D6F804C0A36866
:102AC00041F22414C2F2000448F2101E20601A1FC2
:102AD000C0F6000E2B464FF4A8716046CDF800E01A
:102AE000FEF73EF8BA69D6F808C09368606048F20D
:102AF0001C1EDA1EC0F6000E2B464FF4A87160466D
:102B0000CDF800E0FEF72CF8B969D6F80CC08A6859
:102B1000A06048F2181EC0F6000E6046023A2B462E
:102B20004FF4A871CDF800E0FEF71AF8BB693769D9
:102B30009A68E06048F214164FF4A871013A2B46E7
:102B4000C0F6000638460096FEF70AF82061FFF747
:102B50007FFC48F220110120C0F6000103B0BDE85F
:102B6000F040FFF7EDBB00BFAFF30080AFF3008094
:102B700008B50078FFF7BCFB002008BDAFF300806C
:102B800038B540F61824C2F20004FFF7C9FCE56826
:102B90006420FEF735F8012005F1640105F16502B6
:102BA000FFF716FC00B138BDE5686420FEF728F891
:102BB000022005F1640105F16502FFF709FC002818
:102BC000F1D1E5684FF47A70FEF71AF805F57A71DD
:102BD00003204A1CFFF7FCFB0028E4D1E46804F161
:102BE00064052846FEF71CF80420294604F1650216
:102BF000BDE83840FFF7ECBBAFF30080AFF30080D7
:102C000040F60000C2F200000021FEF731B900BF1B
:102C100040F60000C2F200000021FEF729B900BF13
:102C200040F60000C2F200000021FEF721B900BF0B
:102C300000B587B0002103A8FEF71AF9002103A808
:102C4000FEF756F9059901200029CCBF002101218A
:102C5000FFF75EFB08B107B000BD40F6282CC2F2BA
:102C6000000C47F67060DCF81820C0F6000092688F
:102C7000006803A942F64153013A0091C0F60003EF
:102C80004FF4A871FDF76CFF41F22413C2F2000368
:102C9000186003A8FEF75CF9059902200029CCBF53
:102CA00000210121FFF734FB0028D4D1202383F336
:102CB0001188059B002B3EDDFDF7D2FE002383F338
:102CC0001188059903209942D4BF00210121FFF703
:102CD0001FFB0028BFD1059AA2F101010420D1F108
:102CE000000E4EEB0101FFF713FB0028B3D12023A8
:102CF00083F311880598002819DDFDF7B1FE002344
:102D000083F31188059903209942D4BF0021012142
:102D1000FFF7FEFA00289ED10599A1F101030520D5
:102D2000D3F1000C4CEB0301FFF7F2FA93E703A891
:102D3000FEF76EF9E1E703A8FEF76AF9BCE700BF0A
:102D400008B5202383F311888368002B06DDFDF787
:102D500087FE002383F31188184608BDFEF758F953
:102D6000FDF77EFE002383F31188184608BD00BFDF
:102D700010B540F60004C2F200042046FEF7E8F861
:102D80002046FEF725F9002010BD00BFAFF30080FC
:102D900010B5044640F60000C2F20000FEF7D8F875
:102DA0002078FFF7A5FA002010BD00BFAFF3008028
:102DB00008B53220FDF724FF202383F3118840F665
:102DC0000000C2F20000FEF723F9FDF749FE0023E0
:102DD00083F31188184608BDAFF30080AFF300807D
:102DE0002DE9F04340F62826C2F2000647F6706847
:102DF000C0F60008B769D8F80090B86883B048F208
:102E0000141742F69153421D4FF4A871C0F6000307
:102E1000C0F6000748460097FDF7A2FEB569D8F84E
:102E200004C0AC6841F22415C2F2000548F2181E35
:102E300042F691532860C0F6000E621C4FF4A87150
:102E4000C0F600036046CDF800E0FDF789FEB369E7
:102E5000D8F808C09A68686048F21C1E42F6915380
:102E6000C0F6000E4FF4A8710332C0F600036046AE
:102E7000CDF800E0FDF774FEB169D8F80CC08C689D
:102E8000A86048F2101E42F691536046C0F6000E4C
:102E9000221D4FF4A871C0F60003CDF800E0FDF745
:102EA0005FFEB369D8F810E09A68E86048F224142D
:102EB00042F691534FF4A8710232C0F600037046F7
:102EC000C0F600040094FDF74BFE40F60004C2F289
:102ED000000428612046FEF77BF82046FEF778F8CC
:102EE0002046FEF775F82046FEF772F82046FEF7FA
:102EF0006FF8FFF7ADFA48F220110120C0F600018B
:102F0000FFF71EFA804610B103B0BDE8F083B36945
:102F10009A68009742F6915348464FF4A8710532DB
:102F2000C0F60003FDF71CFE2023286083F3118800
:102F300002212046FEF77CF8FDF792FD434683F31D
:102F40001188FFF785FAA268A2F1010E0220DEF1D6
:102F5000000141EB0E0103B0BDE8F043FFF7D8B923
:102F600010B540F6282EC2F2000E47F67060DEF86B
:102F70001810C0F600008A68006882B042F67153EB
:102F80000132C0F6000300244FF4A8710094FDF74D
:102F9000E7FD41F2241CC2F2000C40F60004C2F22C
:102FA0000004CCF8000021462046FEF791F8226884
:102FB000131B0120594241EB0301FFF7A9F908B1A6
:102FC00002B010BDA3680220D3F1010138BF002177
:102FD000FFF79EF90028F3D121462046FEF778F846
:102FE0002368191B03204A4242EB0101FFF790F9C5
:102FF0000028E5D1A2680420D2F1010138BF0021E8
:1030000002B0BDE81040FFF783B900BFAFF3008006
:1030100070B540F60004C2F20004002182B02046E0
:10302000FDF7C6FFA0F1FF33594241EB0301012038
:10303000FFF76EF908B102B070BD2368191B0220BA
:103040004A4242EB0101FFF763F90028F3D1A2687D
:103050000320D2F1010138BF0021FFF759F9002800
:10306000E9D140F6282EC2F2000E47F6706CDEF869
:103070001820C0F6000C9168DCF80050009042F671
:10308000B1534A1EC0F600034FF4A8712846FDF75D
:1030900067FD41F22415C2F200054FF4FA71286071
:1030A0002046FDF785FF0546FFF7D2F90420D5F14C
:1030B000010138BF0021FFF72BF90028BBD122689E
:1030C000111B05204B4243EB0101FFF721F90028BA
:1030D000B1D1A3680620D3F1010138BF0021FFF769
:1030E00017F90028A7D140F61826C2F20006FFF70C
:1030F00017FA4120F668FFF7FBF84FF4FA71204603
:10310000FDF756FFA0F1FF31484240EB01010720D7
:10311000FFF7FEF800288ED12368C4EB030C0820CB
:10312000DCF1000242EB0C01FFF7F2F8002882D13B
:10313000A1680920D1F1010138BF0021FFF7E8F8AB
:1031400000287FF478AF4220FFF7D2F84FF4FA71ED
:103150002046FDF72DFFA0F1FF32504240EB020167
:103160000720FFF7D5F800287FF465AF2268111B10
:1031700008204B4243EB0101FFF7CAF800287FF417
:103180005AAFA3680920D3F1010138BF0021FFF72E
:10319000BFF800287FF44FAF4320FFF7A9F84FF4A2
:1031A000FA712046FDF704FFA0F1FF31484240EBE1
:1031B00001010720FFF7ACF800287FF43CAF23683B
:1031C000C4EB030E0820DEF1000242EB0E01FFF714
:1031D0009FF800287FF42FAFA1680920D1F10101E9
:1031E00038BF0021FFF794F800287FF424AF442073
:1031F000FFF77EF84FF4FA712046FDF7D9FEA0F1F3
:10320000FF32504240EB02010720FFF781F800280F
:103210007FF411AF2268111B08204B4243EB0101E0
:10322000FFF776F800287FF406AFA3680920D3F1F2
:10323000010138BF0021FFF76BF800287FF4FBAED7
:103240004520FFF755F84FF4FA712046FDF7B0FE20
:10325000A0F1FF30D0F1000C4CEB00010720FFF78C
:1032600057F800287FF4E7AE2268111B0820D1F13F
:10327000000E4EEB0101FFF74BF800287FF4DBAEA8
:10328000A3680920D3F1010138BF0021FFF740F8FE
:1032900000287FF4D0AE48F220110A20C0F60001C9
:1032A000FFF74EF800287FF4C6AE06F51C62111D2C
:1032B0000B20093202B0BDE87040FFF789B800BFAB
:1032C00040F62820F0B5C2F2000047F67065836929
:1032D000C0F600059E68286883B048F2141443F2D3
:1032E000F133721CC0F600044FF4A871C0F600035D
:1032F0000094FDF735FC41F22414D5F804E0C2F245
:10330000000448F21C1743F2C1332060B21C70461F
:10331000C0F600074FF4A871C0F600030097FDF750
:103320001FFCAF68606048F2181543F281334FF418
:10333000A871F21CC0F60003C0F6000538460095DF
:10334000FDF70EFC40F62C05C2F20005A0602846F1
:10335000FEF72EF82846FEF72BF8FFF779F848F22B
:10336000A0210120C0F6000103B0BDE8F040FEF747
:10337000E7BF00BFAFF30080AFF30080AFF3008082
:1033800010B5044640F61C00C2F20000FDF748FFED
:103390002078FEF7ADFFFDF773FF002010BD00BFE2
:1033A00010B5044640F60C00C2F20000FDF738FFED
:1033B0002078FEF79DFFFDF763FF002010BD00BFE2
:1033C00010B5044640F60C00C2F20000FDF728FFDD
:1033D00040F62C00C2F20000FEF762F82078FEF7FB
:1033E00087FFFDF74DFF002010BD00BFAFF3008049
:1033F00010B5044640F61C00C2F20000FDF710FFB5
:1034000040F60C00C2F20000FDF70AFF40F62C0067
:103410004FF0FF31C2F20000FEF782F82078FEF78D
:1034200067FFFDF72DFFFDF72BFF002010BD00BF4C
:1034300040F62C0008B5C2F20000FDF7B1FF40F6DF
:103440000C00C2F20000FDF77BFE40F61C00C2F249
:103450000000BDE80840FDF773BE00BFAFF3008079
:1034600008B540F62C00C2F20000FDF799FF40F6C7
:103470000C00C2F20000BDE80840FDF761BE00BFCD
:1034800008B540F62C00C2F20000FDF789FF40F6B7
:103490000C00C2F20000BDE80840FDF751BE00BFBD
:1034A00040F60C00C2F20000FDF74ABEAFF3008008
:1034B00008B540F60C00C2F20000FDF741FE40F6F0
:1034C0001C00C2F20000BDE80840FDF739BE00BF95
:1034D00008B540F60C00C2F20000FDF731FE40F6E0
:1034E0001C00C2F20000BDE80840FDF729BE00BF85
:1034F00040F60C00C2F20000FDF722BEAFF30080E0
:1035000040F60C00C2F20000FDF71ABEAFF30080D7
:1035100040F62820F0B5C2F2000047F670668369D5
:10352000C0F600069F68306843F2C13583B0C0F62C
:10353000000548F224147A1C2B46C0F600044FF410
:10354000A8710094FDF70CFB41F22414C2F20004B0
:10355000D6F804C0206048F2101EC0F6000EBA1C57
:103560002B464FF4A8716046CDF800E0FDF7F8FA5D
:10357000D6F808C0606048F21C1EC0F6000EFA1CA7
:103580002B464FF4A8716046CDF800E0FDF7E8FA4D
:10359000D6F80CC0A06048F2181E6046C0F6000EB7
:1035A0003A1D2B464FF4A871CDF800E0FDF7D8FA8C
:1035B000D6F810E0E06048F214164FF4A8717A1DB6
:1035C0002B467046C0F600060096FDF7C9FA20614A
:1035D00040F62C00C2F20000FDF72AFFFEF738FF8C
:1035E00048F220110120C0F6000103B0BDE8F04010
:1035F000FEF7A6BEAFF30080AFF30080AFF300800C
:1036000040F62820F0B5C2F2000047F670668369E4
:10361000C0F600069F68306843F2C13583B0C0F63B
:10362000000548F224147A1C2B46C0F600044FF41F
:10363000A8710094FDF794FA41F22414C2F2000438
:103640007168206048F2101EC0F6000EBA1C2B46AE
:1036500008464FF4A871CDF800E0FDF781FAB16893
:10366000606048F21C1CC0F6000CFA1C2B46084691
:103670004FF4A871CDF800C0FDF772FAF168A060B0
:1036800048F2181EC0F6000E3A1D2B4608464FF4AD
:10369000A871CDF800E0FDF763FA3269E06048F206
:1036A00014162B46C0F6000610464FF4A8717A1D7A
:1036B0000096FDF755FA2023206183F3118840F628
:1036C0002C04C2F200042046FDF78AFE2046FDF7D6
:1036D00087FE2046FDF784FE2046FDF781FE20464A
:1036E000FDF77EFEFDF7BCF9002383F31188FEF79A
:1036F000AFFE48F220110120C0F6000103B0BDE882
:10370000F040FEF71DBE00BFAFF30080AFF30080B6
:10371000F0B540F62827C2F2000747F67065BE698B
:1037200040F60C0083B0B668C0F60005C2F2000097
:10373000FDF776FD48F2241443F2A133721C286889
:10374000C0F600044FF4A871C0F600030094FDF722
:1037500007FA41F22414C2F20004D5F804C0206034
:1037600048F2101E43F2A133C0F6000EB21C4FF413
:10377000A871C0F600036046CDF800E0FDF7F0F94F
:10378000D5F808C0606048F21C1E43F2A133C0F6B1
:10379000000EF21C4FF4A871C0F600036046CDF88D
:1037A00000E0FDF7DDF9D5F80CC0A06048F2181E66
:1037B00043F2A1336046C0F6000E321D4FF4A871EB
:1037C000C0F60003CDF800E0FDF7CAF9D5F810E027
:1037D000E06048F2141543F2A133721D4FF4A87152
:1037E000C0F600037046C0F600050095FDF7B8F975
:1037F0002061FDF745FDFEF72BFEB8698268931B3B
:103800000120594241EB0301FEF782FD08B103B0EC
:10381000F0BD48F220110220C0F6000103B0BDE85F
:10382000F040FEF78DBD00BFAFF30080AFF3008026
:10383000F8B540F62825C2F2000540F60C04AB6945
:10384000C2F2000420469E68FDF7FAFC0146012002
:10385000FEF75EFD00B1F8BD2046FDF7F1FCD0F1AA
:10386000010138BF00210220FEF752FD0746002863
:10387000F1D1202383F31188FDF73AFD3B4683F312
:10388000118823681A1B0320514241EB0201FEF705
:103890003FFD0028DFD1A1680420D1F1010138BF2C
:1038A0000021FEF735FD0028D5D1A86981688B1B62
:1038B00005205A4242EB0301FEF72AFD0028CAD137
:1038C0002046FDF7ADFCFDF743FD2268C4EB020C7A
:1038D0000620DCF1000343EB0C01FEF719FD002884
:1038E000B9D1A1680720D1F1010138BF0021BDE89D
:1038F000F840FEF70DBD00BFAFF30080AFF30080CE
:103900002DE9F04740F62824C2F2000447F670661D
:10391000A769C0F60006BF68D6F8009082B007F12C
:10392000010848F2181543F6D133C0F600054FF4EC
:10393000A8714246C0F6000348460095FDF710F90D
:1039400041F22415D6F804A0C2F20005BE1C48F2CC
:10395000141E43F6B13328604FF4A871C0F6000E70
:103960003246C0F600035046CDF800E0FDF7F8F807
:10397000686040F61C00C2F20000FDF751FCA0692F
:103980008368DA1B0120514241EB0201FEF7C0FCC3
:1039900010B102B0BDE8F0876420FDF731F9A369EA
:1039A0009A68C8EB02010220D1F1000C4CEB010136
:1039B000FEF7AEFC0028ECD140F60C00C2F200008D
:1039C000FDF72EFCA0698368C8EB03020320514277
:1039D00041EB0201FEF79CFC0028DAD16420FDF7E0
:1039E0000FF9A3699A68911B0420D1F1000C4CEBEC
:1039F0000101FEF78DFC0028CBD1FDF741FCA06949
:103A00008268C8EB02010520D1F1000C4CEB0101EA
:103A1000FEF77EFC0028BCD16420FDF7F1F8A26916
:103A20009168C8EB01030620D3F1000C4CEB0301B5
:103A3000FEF76EFC0028ACD1FDF78AFCA069826815
:103A4000D11B07204B4243EB0101FEF761FC00282C
:103A50009FD1FEF7FDFC48F2101C43F6D133C0F6AF
:103A6000000C4FF4A8714246C0F600034846CDF85A
:103A700000C0FDF775F848F21C1E43F6B1334FF451
:103A8000A8712860C0F6000E3246C0F6000350460A
:103A9000CDF800E0FDF764F8686040F61C00C2F263
:103AA0000000FDF7BDFBA0698268D11B08204B42D6
:103AB00043EB0101FEF72CFC00287FF46AAF642081
:103AC000FDF79EF8A0698268C8EB020109204B420D
:103AD00043EB0101FEF71CFC00287FF45AAF40F6CF
:103AE0000C00C2F20000FDF79BFBA2699168C8EBD5
:103AF00001030A20D3F1000C4CEB0301FEF708FC94
:103B000000287FF446AF6420FDF77AF8A069836847
:103B10009D1B0B206C4244EB0501FEF7F9FB40F6C0
:103B200028240546C2F2000400287FF432AF202387
:103B300083F31188FDF7DCFBFCF792FF2B4683F340
:103B40001188A3699A68C8EB02010C20D1F1000C1E
:103B50004CEB0101FEF7DCFB00287FF41AAF642078
:103B6000FDF74EF8A0698268C8EB02010D20D1F183
:103B7000000C4CEB0101FEF7CBFB00287FF409AFF2
:103B8000FDF7E6FBA2699168CB1B0E20D3F1000C78
:103B90004CEB0301FEF7BCFB00287FF4FAAE02B049
:103BA000BDE8F047FEF754BCAFF30080AFF30080F0
:103BB00008B59620FDF724F840F60C00C2F200008C
:103BC000FDF72EFBFDF75CFB002008BDAFF3008086
:103BD00008B53220FDF714F840F61C00C2F20000D0
:103BE000FDF71EFBFDF74CFB002008BDAFF3008086
:103BF0002DE9F04140F62826C2F2000682B0FEF719
:103C00008FFCB76947F67065C0F60005BA6828688A
:103C100040F61828C2F2000843F6816300274FF4EB
:103C2000A871053AC0F60003D8F80C800097FCF79D
:103C300097FFB469D5F804E0A268009741F2241414
:103C4000C2F2000443F6316320604FF4A87170465D
:103C5000043AC0F60003FCF783FFB369D5F808C047
:103C60009A68606043F6016360464FF4A871033AB6
:103C7000C0F600030097FCF773FFB169D5F80CE0BC
:103C80008A68A06043F6E15370464FF4A871023A87
:103C9000C0F600030097FCF763FFB3692D699A68CB
:103CA000E06043F6B1534FF4A871013AC0F6000347
:103CB00028460097FCF754FF2061FEF7C9FB48F245
:103CC00020110120C0F60001FEF73AFB10B102B04E
:103CD000BDE8F081022008F16E0108F1730202B024
:103CE000BDE8F041FEF774BBAFF30080AFF3008096
:103CF0002DE9F04140F62826C2F2000682B0FEF718
:103D00000FFCB76947F67065BA68C0F6000540F663
:103D10001824C2F2000443F6017300272868D4F87F
:103D20000C8000974FF4A871013AC0F60003FCF72D
:103D300017FFB169D5F804E08A68009741F22414AE
:103D4000C2F2000443F6E16320604FF4A8717046AC
:103D5000023AC0F60003FCF703FFB369AD689A6846
:103D6000606043F6B1634FF4A871033AC0F60003F4
:103D700028460097FCF7F4FEA060FEF769FB48F2C6
:103D8000A0210120C0F60001FEF7DAFA10B102B05E
:103D9000BDE8F081022008F1640108F1690202B077
:103DA000BDE8F041FEF714BBAFF30080AFF3008035
:103DB00008B53220FCF724FF40F61C00C2F20000D8
:103DC000FDF72EFA0A20FEF77BFBFDF759FA41209A
:103DD000FEF78EFA002008BDAFF30080AFF300803D
:103DE00008B52820FCF70CFF1420FEF769FB4220E1
:103DF000FEF77EFA002008BDAFF30080AFF300802D
:103E000008B51420FCF7FCFE40F61C00C2F20000CE
:103E1000FDF706FA0A20FEF753FBFDF731FA4320BF
:103E2000FEF766FA002008BDAFF30080AFF3008014
:103E300008B50A20FCF7E4FE40F61C00C2F20000C0
:103E4000FDF7EEF91420FEF73BFB40F60C00C2F242
:103E50000000FDF7E5F90A20FEF732FBFDF710FA46
:103E60000A20FEF72DFBFDF70BFA4420FEF740FA7F
:103E7000002008BDAFF30080AFF30080AFF30080F7
:103E800040F60C0008B5C2F20000FDF7C9F91E208B
:103E9000FEF716FBFDF7F4F94520FEF729FA00209E
:103EA00008BD00BFAFF30080AFF30080AFF3008028
:103EB00040F60C0008B5C2F20000FDF7B1F9282069
:103EC000FEF7FEFAFDF7DCF90A20FEF7F9FA4320C7
:103ED000FEF70EFA002008BDAFF30080AFF30080BC
:103EE00008B51420FCF78CFE2820FEF7E9FA4220E2
:103EF000FEF7FEF9002008BDAFF30080AFF30080AD
:103F000008B52820FCF77CFE40F60C00C2F2000049
:103F1000FDF786F90A20FEF7D3FAFDF7B1F9412043
:103F2000FEF7E6F9002008BDAFF30080AFF3008094
:103F300010B540F6282CC2F2000C47F67060DCF891
:103F4000181082B08A680091C0F6000043F6C17371
:103F500001324FF4A871C0F600030068FCF700FEC0
:103F600041F22413C2F200031860FDF7A9FC446B70
:103F70002146FDF7C5FCE0B2FEF7BAF9FDF7A0FC5B
:103F8000446B2146FDF7BCFCE0B2FEF7B1F9FDF74A
:103F900097FC446B2146FDF7B3FCE0B2FEF7A8F9AD
:103FA00048F2A0210120C0F6000102B0BDE8104097
:103FB000FEF7C6B9AFF30080AFF30080AFF3008027
:103FC00010B541210446FDF753FC42212046FDF780
:103FD0004FFC20464321FDF74BFC002010BD00BFE5
:103FE00040F6340040F67021C2F20000C2F2000137
:103FF0000522FDF795BC00BFAFF30080AFF3008052
:1040000070B540F63404C2F200040120636AA3F1E3
:104010000502514241EB020182B0FEF779F9002816
:1040200045D1422120464FF0FF32FDF7D1FCD0F1BF
:10403000010138BF00210220FEF76AF9B8BB432115
:1040400020464FF0FF32FDF7C3FCD0F1010138BF2D
:1040500000210220FEF75CF948BB442120464FF0C6
:10406000FF32FDF7B5FCD0F1010138BF002102207D
:10407000FEF74EF9D8B9452120464FF0FF32FDF743
:10408000A7FCD0F1010138BF00210220FEF740F962
:1040900068B9412120464FF0FF32FDF7E1FCD0F135
:1040A000010138BF00210320FEF732F908B102B048
:1040B00070BD582101222046FDF78AFCA0F1FF3592
:1040C000684240EB05010420FEF722F9054600286E
:1040D000EDD1202383F3118858212046FDF788FC79
:1040E0002B46024683F31188A2F1FF310520D1F15E
:1040F000000C4CEB0101FEF70BF90028D7D1582139
:1041000001222046FDF7ACFCA0F1FF30434243EB17
:1041100000010620FEF7FCF805460028C7D1202341
:1041200083F3118858212046FDF7AAFC2B4602464E
:1041300083F31188A2F1FF310720D1F1000C4CEB81
:104140000101FEF7E5F80028B1D1202383F311889F
:10415000646A0820D4F1010138BF0021FEF7D8F8C5
:1041600040F634040646C2F2000418B1002383F37B
:1041700011889CE7034683F31188202383F3118879
:10418000A569A5F1050E0920DEF1000343EB0E0140
:10419000FEF7BEF8054618B1334683F3118886E76B
:1041A000034683F31188202383F31188A368E26810
:1041B000D11A0A20D1F1000C4CEB0101FEF7A8F84E
:1041C0000346002840F0E58083F311884FF0FF326A
:1041D00001A92046FDF78CFCD0F1010138BF002178
:1041E0000B20FEF795F800287FF461AF9DF80400DE
:1041F000FEF77EF801A920464FF0FF32FDF778FC6C
:10420000D0F1010138BF00210B20FEF781F8002812
:104210007FF44DAF9DF80400FEF76AF801A920462F
:104220004FF0FF32FDF764FCD0F1010138BF0021EF
:104230000B20FEF76DF800287FF439AF9DF80400DD
:10424000FEF756F801A920464FF0FF32FDF750FC6B
:10425000D0F1010138BF00210B20FEF759F80028EA
:104260007FF425AF9DF80400FEF742F801A920462F
:104270004FF0FF32FDF73CFCD0F1010138BF0021C7
:104280000B20FEF745F800287FF411AF9DF80400DD
:10429000FEF72EF848F220110C20C0F60001FEF7C0
:1042A0004FF800287FF403AF472120464FF0FF323C
:1042B000FDF78EFBD0F1010138BF00210D20FEF784
:1042C00027F800287FF4F3AE40F63404C2F200046D
:1042D00001A920464FF0FF32FDF70AFCD0F10101A1
:1042E00038BF00210E20FEF713F800287FF4DFAE60
:1042F0002368A268991A0F20D1F1000E4EEB01013C
:10430000FEF706F800287FF4D2AE2268E368D11ADF
:104310001020D1F1000E4EEB0101FDF7F9FF00284E
:104320007FF4C5AE012201A92046FDF7E1FBA0F113
:10433000FF35684240EB05011120FDF7E9FF054616
:1043400000287FF4B4AE202383F31188204601A90E
:10435000FDF7DEFB2B46024683F31188A2F1FF3105
:104360001220D1F1000C4CEB0101FDF7D1FF054605
:1043700000287FF49CAE202383F31188616AA1F1A9
:10438000050313205E4246EB0301FDF7C1FF06461D
:1043900018B12B4683F3118889E6034683F311880D
:1043A000202383F31188A5691420D5F1010138BFBA
:1043B0000021FDF7ADFF054600287FF4EDAE034672
:1043C00083F31188202383F31188E168A368C3EB8A
:1043D000010E1520DEF1000242EB0E01FDF798FF01
:1043E00003460028D5D183F31188202383F3118855
:1043F00041212046FDF7FCFAD0F1010138BF002130
:104400001620FDF785FF00287FF451AE422120469B
:10441000FDF7EEFAD0F1010138BF00211720FDF7BA
:1044200077FF00287FF443AE40F63404C2F2000464
:1044300043212046FDF7DCFAD0F1010138BF00210D
:104440001820FDF765FF00287FF431AE4421204697
:10445000FDF7CEFAD0F1010138BF00211920FDF798
:1044600057FF054600287FF422AE20464521FDF780
:10447000BFFA2B46844683F311881A20DCF1010130
:1044800038BF0021FDF744FF00287FF410AEE1683B
:10449000A2688B1A1B205A4242EB0301FDF738FF3A
:1044A00000287FF404AE0525202383F3118840F60D
:1044B0003404C2F20004204601A9FDF729FB0023C1
:1044C000844683F31188C3EB0C011C204B4243EB61
:1044D0000101FDF71DFF00287FF4E9AD9DF8040000
:1044E000FDF706FF013DDFD148F220111D20C0F687
:1044F0000001FDF725FF00287FF4D9AD202383F3C9
:104500001188626AA2F1050E1E20DEF1000343EB62
:104510000E01FDF7FDFE2B4683F3118800287FF482
:10452000C6AD202383F31188A1691F20D1F10101B9
:1045300038BF0021FDF7ECFE2B4683F311880028DD
:104540007FF4B5ADE168A368C3EB010C2020DCF17A
:10455000000242EB0C01FDF7DBFE00287FF4A7AD63
:10456000202383F3118845212046FDF789FAD0F1F5
:10457000010138BF00212120FDF7CAFE00287FF489
:1045800096AD44212046FDF77BFAD0F1010138BFFA
:1045900000212220FDF7BCFE00287FF488AD4321D6
:1045A0002046FDF76DFAD0F1010138BF002123202C
:1045B000FDF7AEFE00287FF47AAD42212046FDF7DC
:1045C0005FFAD0F1010138BF00212420FDF7A0FEE1
:1045D00000287FF46CAD40F63404C2F2000420469B
:1045E0004121FDF74DFA0023844683F31188C3EB84
:1045F0000C0325205A4242EB0301FDF789FE0028F7
:104600007FF455ADE168A368CA1A2620514241EBF8
:104610000201FDF77DFE00287FF449AD052520232A
:1046200083F3118840F63404C2F2000401A9204645
:10463000FDF76EFA0023014683F31188CA1A27207A
:10464000D2F1000C4CEB0201FDF762FE00287FF472
:104650002EAD9DF80400FDF74BFE013DDFD148F281
:1046600020112820C0F60001FDF76AFE00287FF423
:104670001EAD202383F31188636AA3F1050E292060
:10468000DEF1000242EB0E01FDF742FE2B4683F302
:10469000118800287FF40BAD202383F31188A169D2
:1046A0002A20D1F1010138BF0021FDF731FE2B4650
:1046B00083F3118800287FF4FAACE168A2688B1AB2
:1046C0002B205A4242EB0301FDF722FE00287FF423
:1046D000EEAC2046FDF73CF9202383F31188626A93
:1046E000A2F105012C204B4243EB0101FDF710FE26
:1046F0002B4683F3118800287FF4D9AC202383F361
:104700001188A3692D20D3F1010138BF0021FDF7E5
:10471000FFFD2B4683F3118800287FF4C8AC2023CB
:1047200083F31188A3682268D11A2E20D1F1000CDE
:104730004CEB0101FDF7ECFD2B4683F311880028BB
:104740007FF4B5AC202383F311882368E268991ABB
:104750002F20D1F1000E4EEB0101FDF7D9FD05E54B
:104760004FF0FF30FCF71CBFAFF30080AFF30080C9
:104770004FF0FF30FCF714BFAFF30080AFF30080C1
:104780004FF0FF30FCF70CBFAFF30080AFF30080B9
:1047900040F65C0008B50021C2F20000FCF760FFA3
:1047A0003220FCF72DFA40F66000C2F20000002132
:1047B000FCF756FF002008BDAFF30080AFF3008088
:1047C00010B504463220FCF71BFA20460121FCF705
:1047D00027FF002010BD00BFAFF30080AFF30080C3
:1047E00010B540F65C04C2F2000488B001222046F5
:1047F00069462460FCF7A4FE204604A90222FCF7C7
:104800009FFE21680120091B18BF0121FDF780FDD3
:1048100008B108B010BD20466946FCF7A9FE226821
:104820000220111B18BF0121FDF772FD0028F0D1F5
:10483000204604A9FCF79CFE21680B1B0320D3F142
:10484000000C4CEB0301FDF763FD0028E1D148F2B9
:1048500000500721C0F60000FCF712FF48F2A0212B
:104860000420C0F60001FDF76BFDD2E7AFF3008036
:104870004320FDF73DBD00BFAFF30080AFF30080E4
:104880004220FDF735BD00BFAFF30080AFF30080DD
:104890004120FDF72DBD00BFAFF30080AFF30080D6
:1048A000002108B54FF0FF30FCF762FFD0F10101A5
:1048B00038BF00210120FDF72BFD00B108BD0146E6
:1048C0004FF0FF30FCF77CFFD0F1010138BF002131
:1048D0000220FDF71DFD0028F0D101464FF0FF300A
:1048E000FCF796FFD0F1010138BF00210320FDF74E
:1048F0000FFD0028E2D10A214FF0FF30FCF738FF0E
:10490000D0F1010138BF00210420FDF701FD00288E
:10491000D4D10A214FF0FF30FCF752FFD0F1010152
:1049200038BF00210520FDF7F3FC0028C6D10A217D
:104930004FF0FF30FCF76CFFD0F1010138BF0021D0
:104940000620BDE80840FDF7E3BC00BFAFF30080E0
:104950002DE9F04307208BB0FCF73AFE4FF0FF3013
:10496000FCF7A6FEA0F10100414241EB000101204D
:10497000FDF7CEFC10B10BB0BDE8F0834FF0FF3077
:10498000FCF796FEA0F102035A4242EB030102201B
:10499000FDF7BEFC0028EED14FF0FF30FCF788FE9B
:1049A000A0F10401D1F1000C4CEB01010320FDF753
:1049B000AFFC0028DFD14FF0FF30FCF7F1FDD0F164
:1049C000010138BF00210420FDF7A2FC0028D2D14C
:1049D00040F62826C2F2000647F67067FDF7A0FDF4
:1049E000C0F60007B569D7F80080AC68009540F6BE
:1049F0001825C2F2000544F2C173621E4FF4A8717B
:104A0000C0F600034046EF6841F22414FCF7A8F812
:104A1000C2F2000420604FF0FF30FCF749FE07F1BE
:104A20003201814607F137020520FDF7D1FC00284D
:104A3000A1D1A9F1010E0620DEF1000343EB0E0126
:104A4000FDF766FC002896D14FF0FF30FCF7A8FD7B
:104A5000D0F1010138BF00210720FDF759FC0028E3
:104A600089D1FDF7F5FC0520FCF7B2FD4FF0FF30D2
:104A7000FCF73EFEA0F10502504240EB0201082087
:104A8000FDF746FC00287FF476AF4FF0FF30FCF7CF
:104A900087FDD0F1010138BF00210920FDF738FC66
:104AA00000287FF468AFFDF73BFDB169EF688868C7
:104AB000009144F2C173421E4FF4A871C0F6000386
:104AC0004046FCF74DF820604FF0FF30FCF710FE39
:104AD00007F13201814607F137020A20FDF778FC21
:104AE00000287FF448AFA9F101020B20534243EBA9
:104AF0000201FDF70DFC00287FF43DAF4FF0FF30C1
:104B0000FCF74EFDD0F1010138BF00210C20FDF76C
:104B1000FFFB00287FF42FAF40F65C0740F66009EA
:104B2000C2F20007C2F20009FDF792FC384602A962
:104B300001223F60C9F80090FCF702FD06A904229B
:104B40004846FCF7FDFCFDF7EBFCB669ED68B06884
:104B500044F2917348F21416421E4FF4A871C0F645
:104B60000003C0F6000640460096FBF7F9FF206000
:104B70000520FCF7DDFD0D2005F1320105F13702BE
:104B8000FDF726FC00287FF4F6AE4FF0FF30FCF76F
:104B900007FDD0F1010138BF00210E20FDF7B8FB61
:104BA00000287FF4E8AEFDF753FC384602A9FCF775
:104BB000DFFC484606A9FCF7DBFC3B68D91B0F204D
:104BC000D1F1000C4CEB0101FDF7A2FB00287FF4B2
:104BD000D2AED9F80010C9EB01021020D2F1000EBC
:104BE0004EEB0201FDF794FBC5E600BFAFF300807A
:104BF00070B582B0FDF76CF901A90020FDF738FA15
:104C000010210020FDF794F9011C18BF0121044672
:104C10000120FDF77DFB054608B102B070BD2046BE
:104C2000FDF7CEF96FF0FF012846FDF781F9D0F1CD
:104C3000010138BF00210220FDF76AFB0028ECD1FA
:104C400041F2501001A9C2F20000FDF711FA41F241
:104C500050101021C2F20000FDF76AF9054641F23A
:104C600050101021C2F20000FDF762F9044641F233
:104C700050101021C2F20000FDF75AF906462846EE
:104C8000FDF79EF92046FDF79BF93046FDF798F9B0
:104C900041F250106946C2F20000FDF7E9F9A0F1B7
:104CA0000100414241EB00010320FDF731FB0028E8
:104CB000B3D141F250101021C2F20000FDF738F9D3
:104CC000044641F250101021C2F20000FDF730F905
:104CD000054641F250101021C2F20000FDF728F9FC
:104CE000FDF76EF92846FDF76BF92046FDF768F9E8
:104CF00041F250106946C2F20000FDF7B9F9A0F187
:104D000001035A4242EB03010420FDF701FB002896
:104D100083D141F250101121C2F20000FDF708F9D1
:104D2000044641F250101021C2F20000FDF700F9D4
:104D300005462046FDF744F941F250106946C2F29B
:104D40000000FDF795F9A0F10201D1F1000C4CEB48
:104D500001010520FDF7DCFA00287FF45EAF41F287
:104D600050101021C2F20000FDF7E2F8044641F2B3
:104D700050106946C2F20000FDF77AF9012808BF19
:104D800001460BD041F250106946C2F20000FDF717
:104D90006FF9A0F10202504240EB02010620FDF73C
:104DA000B7FA00287FF439AF2846FDF709F9204605
:104DB000FDF706F941F250106946C2F20000FDF716
:104DC00057F9A0F101014B4243EB01010720FDF728
:104DD0009FFA00287FF421AF41F250101021C2F257
:104DE0000000FDF7A5F8054641F250101021C2F26F
:104DF0000000FDF79DF804462846FDF7E1F841F272
:104E000050106946C2F20000FDF732F9A0F102022B
:104E1000504240EB02010820FDF77AFA00287FF4A7
:104E2000FCAE41F250102021C2F20000FDF780F8E4
:104E3000FDF7C6F82046FDF7C3F841F25010694669
:104E4000C2F20000FDF714F9A0F101014B4243EB5F
:104E500001010920FDF75CFA00287FF4DEAE41F283
:104E600050106946C2F20000FDF702F941F25010FD
:104E70000099C2F20000FDF75BF8044641F25010C1
:104E80006946C2F20000FDF7F3F8D0F1010138BF26
:104E900000210A20FDF73CFA00287FF4BEAE204630
:104EA000FDF78EF841F250106946C2F20000FDF79E
:104EB000DFF8A0F1010CDCF1000040EB0C010B204D
:104EC000FDF726FA00287FF4A8AE9DE80A00C3EBA0
:104ED000010E0C20DEF1000242EB0E01FDF718FA84
:104EE0009BE600BFAFF30080AFF30080AFF300801C
:104EF00041F2501040F67021C2F20000C2F20001EF
:104F00004FF4D262FDF704B8AFF30080AFF3008036
:104F100000207047AFF30080AFF30080AFF3008054
:104F200040F66400C2F200004FF4A8710022FDF7C1
:104F3000BFB800BFAFF30080AFF30080AFF30080D5
:104F400038B547F67064C0F6000440F66400256882
:104F500005222946C2F20000FDF7B2F840F66400CF
:104F6000C2F20000FDF7ECF8011C18BF012101207E
:104F7000FDF7CEF9002840F0BE8040F66400C2F292
:104F80000000FDF7DDF8011C18BF01210120FDF72D
:104F9000BFF9002840F0AF8040F66400C2F2000084
:104FA000FDF7CEF8011C18BF01210120FDF7B0F973
:104FB000002840F0A08040F66400C2F20000FDF737
:104FC000BFF8011C18BF01210120FDF7A1F900283D
:104FD00040F0918040F66400C2F20000FDF7B0F8A6
:104FE000011C18BF01210120FDF792F9002840F0B3
:104FF000828040F66400C2F20000FDF7A1F8D0F113
:10500000010138BF00210220FDF782F9002872D18A
:1050100040F66400C2F200002946FDF7A9F840F608
:105020006400C2F200006168FDF7A2F840F6640077
:10503000C2F20000A168FDF79BF840F66400C2F2DE
:105040000000E168FDF794F840F664002169C2F2BF
:105050000000FDF78DF840F66400C2F20000FDF795
:105060006FF8011C18BF01210320FDF751F900283A
:1050700041D140F66400C2F20000FDF761F8011C66
:1050800018BF01210320FDF743F9A0BB40F66400DF
:10509000C2F20000FDF754F8011C18BF01210320E3
:1050A000FDF736F938BB40F66400C2F20000FDF7A8
:1050B00047F8011C18BF01210320FDF729F9D0B9D9
:1050C00040F66400C2F20000FDF73AF8011C18BF78
:1050D00001210320FDF71CF968B940F66400C2F213
:1050E0000000FDF72DF8D0F1010138BF00210420A8
:1050F000FDF70EF900B138BD40F6640044F61172B8
:105100001021C0F60002C2F20000FCF7D1FF40F609
:105110006400C2F20000FDF713F8D0F1010138BFBE
:1051200000210520BDE83840FDF7F2B8AFF300805C
:1051300038B50546FBF774FE002403461846AB421B
:1051400008BF44F00104FBF77BFE03460028F5D1BD
:10515000204638BDAFF30080AFF30080AFF300808E
:1051600040F6282C10B5C2F2000C82B0DCF8180012
:10517000826848F2141441F2801045F2B123013ADA
:10518000C0F600044FF4A871C0F60003C2F200009C
:105190000094FBF7FDFD04460120A37F1A1A51423B
:1051A00041EB0201FDF7B4F808B102B010BD204692
:1051B000FBF7B6FDA27F0220131A594241EB03010F
:1051C000FDF7A6F80028F0D12046FBF7B9FDA37F34
:1051D000A3F101010320D1F1000C4CEB0101FDF71B
:1051E00097F80028E1D12046FFF7A2FF01460420EE
:1051F000FDF78EF80028D8D12046FFF799FF014629
:105200000520FDF785F80028CFD12046FBF798FD53
:10521000A27F0620D2F1010138BF0021FDF778F806
:105220000028C2D194F81CE00720DEF1010138BF4C
:105230000021FDF76DF80028B7D12046FFF778FF71
:1052400001460820FDF764F80028AED12046FFF79C
:105250006FFF01460920FDF75BF80028A5D1322039
:10526000FBF7CEFC237FA3F10E010A20D1F1000C45
:105270004CEB0101FDF74CF8002896D12046FFF7D2
:1052800057FF01460B20FDF743F800288DD120463B
:10529000FFF74EFFD0F1010138BF00210C2002B012
:1052A000BDE81040FDF734B8AFF30080AFF30080E5
:1052B00008B50078FDF71CF8002008BDAFF30080AA
:1052C00041F2801040F67021C2F20000C2F20001EB
:1052D0004FF4D262FCF71CBEAFF30080AFF3008046
:1052E00041F2801040F67021C2F20000C2F20001CB
:1052F0004FF4D262FCF70CBEAFF30080AFF3008036
:1053000040F6282038B5C2F2000047F67064C0F6B7
:105310000004836921689D6841F27010C2F20000A8
:10532000FCF726FF41F270106168C2F20000FCF742
:105330001FFF41F27010A168C2F20000FCF718FFD5
:1053400041F27010E168C2F20000FCF711FF41F277
:10535000701045F2B12248F21413691EC0F6000223
:10536000C0F60003C2F20000FBF732FD41F2241444
:10537000C2F2000445F2B122206048F2181341F253
:105380007010A91EC0F60002C0F60003C2F20000B1
:10539000FBF71EFD45F2B122606048F21C1341F29A
:1053A0007010E91EC0F60002C0F60003C2F2000051
:1053B000FBF70EFD45F2B122A06048F2101341F256
:1053C0007010291FC0F60002C0F60003C2F20000F0
:1053D000FBF7FEFC45F2B122E06048F2241341F2F3
:1053E0007010691FC2F20000C0F60002C0F6000390
:1053F000FBF7EEFC2168206149B1616839B1A16811
:1054000029B1E16819B1D0F1010138BF00210120B3
:10541000FCF77EFF00B138BDFDF71AF848F2E05105
:105420000220C0F60001FCF78BFF0028F3D141F207
:105430007010C2F20000FCF783FE011C18BF0121AE
:105440000320FCF765FF0028E5D141F27010C2F29D
:105450000000FCF775FE011C18BF01210320FCF7BA
:1054600057FF0028D7D141F27010C2F20000FCF7BC
:1054700067FE011C18BF01210320FCF749FF00282B
:10548000C9D141F27010C2F20000FCF759FE011CB4
:1054900018BF01210320FCF73BFF0028BBD141F2DC
:1054A0007010C2F20000FCF74BFED0F1010138BFD2
:1054B00000210420BDE83840FCF72ABFAFF300808C
:1054C00041F27010C2F200004FF4A8710022FCF704
:1054D000EFBD00BFAFF30080AFF30080AFF30080FB
:1054E000F0B540F62821C2F2000185B08B6941F287
:1054F00080109D6803A9C2F20000FCF7B9FD48F2D4
:10550000141441F2801045F2B123C0F600044FF4A8
:10551000A8716A1EC0F60003C2F200000094FBF7F7
:1055200037FC41F22414C2F2000448F2181620603D
:1055300045F2B12341F28010AA1EC0F60003C0F666
:1055400000064FF4A871C2F200000096FBF720FCA1
:10555000606041F2801002A9C2F20000FCF788FDF1
:1055600041F280100299C2F20000FCF7E1FC48F21F
:105570001C17064645F2B12341F280104FF4A87182
:10558000EA1EC0F60003C0F60007C2F20000009752
:10559000FBF7FEFBA0603046FCF712FD216829B145
:1055A000616819B1A16800292ED000210120FCF703
:1055B000AFFE08B105B0F0BDFCF74AFF48F2E85174
:1055C0000220C0F60001FCF7BBFE0028F2D141F238
:1055D000801002A9C2F20000FCF74AFDA0F101010F
:1055E0004B4243EB01010320FCF792FE0028E1D17E
:1055F0000299039BC3EB010C0420DCF1000242EB97
:105600000C01FCF785FED5E7E0680028CED12269C1
:10561000D2F1010138BF0021C8E700BFAFF300801D
:10562000704700BFAFF30080AFF30080AFF300809E
:1056300040F6700008B50021C822C2F20000FCF755
:105640007FFB002008BD00BFAFF30080AFF30080F8
:1056500010B547F67063C0F6000382B0196840F6D3
:10566000700045F221630024C2F200000422C0F65B
:1056700000030094FCF73CFB02B010BDAFF30080C8
:1056800040F6940008B5C821C2F20000FCF7C8FA41
:10569000002008BDAFF30080AFF30080AFF30080BF
:1056A00010B547F67063C0F6000382B0196840F683
:1056B000940045F221630024C2F200000422C0F6E7
:1056C00000030094FCF75CFA02B010BDAFF3008059
:1056D0002DE9F041202382B083F3118840F6700554
:1056E000C2F2000500216A69AB699A4200F0A0800D
:1056F0000120FCF70DFE064600286CD1034683F31B
:10570000118840F67004C2F20004412120464FF097
:10571000FF32FCF715FB422120464FF0FF32FCF729
:105720000FFB432120464FF0FF32FCF709FB2046D8
:1057300044214FF0FF32FCF703FB202383F3118851
:10574000AD680220D5F1010138BF0021FCF7E0FD72
:105750000546002845D1034683F31188202383F3AF
:1057600011882046FCF714FB2B4683F31188C0B246
:10577000FCF7BEFD202383F311882046FCF708FBCD
:105780002B4683F31188C0B2FCF7B2FD202383F3CC
:1057900011882046FCF7FCFA2B4683F31188C0B22F
:1057A000FCF7A6FD202383F311882046FCF7F0FACE
:1057B0002B4683F31188C0B2FCF79AFD202383F3B4
:1057C00011886069A269904218BF294635D003202C
:1057D000FCF79EFD48B1002383F3118802B0BDE8B9
:1057E000F081334683F31188F8E7034683F3118889
:1057F00048F2E0510420C0F60001FCF7A1FD054687
:105800000028EBD1202383F3118840F67004C2F204
:1058100000042046FCF7BCFA033014BF002101212C
:105820000520FCF775FD68B12B4683F31188D5E799
:10583000A968003118BF01215AE7A368191C18BFD5
:105840000121C4E7034683F3118847F67065C0F66B
:10585000000508226E6820463146FCF7C1FAA0F127
:105860000401D1F1000C4CEB01010620FCF750FDC6
:1058700080460028B2D1202383F31188A76807202F
:10588000D7F1010138BF0021FCF742FD074618B1EE
:10589000434683F31188A1E7034683F3118840F65A
:1058A000282EC2F2000E2868DEF818309D68009796
:1058B00045F231634FF4A8716A1CC0F60003FBF790
:1058C0004FF941F2241CC2F2000C2023CCF8000056
:1058D00083F311882169E268A568881A431BA3F144
:1058E00004020820554245EB0201FCF711FD054674
:1058F00018B13B4683F3118870E7034683F31188A0
:10590000FCF7A6FD202383F311882046FCF700FA5C
:105910002B4683F31188202383F311882069E168E3
:10592000A368C1EB000CC3EB0C020920514241EB10
:105930000201FCF7EDFC034600287FF475AF83F30A
:105940001188022231462046FCF74AFAA0F10203F0
:105950005A4242EB03010A20FCF7DAFC0346002816
:105960007FF43CAF314602222046FCF739FAA0F121
:105970000201484240EB01010B20FCF7C9FC002862
:105980007FF42CAF202383F31188A2680C20D2F17E
:10599000010138BF0021FCF7BBFC002383F3118811
:1059A00000287FF41BAF40F6700019460A22C2F2AD
:1059B0000000FCF7C5F9A0F1FF3CDCF1000040EB72
:1059C0000C010D2002B0BDE8F041FCF7A1BC00BF06
:1059D0002DE9F043202383B083F3118840F694042B
:1059E000C2F200040120A168D1F1010138BF0021F9
:1059F000FCF78EFC054630BB034683F31188202359
:105A000083F3118841212046FCF7E2F84221204629
:105A1000FCF7DEF843212046FCF7DAF82046442163
:105A2000FCF7D6F82B4683F31188202383F31188E3
:105A30006269A3699A4218BF294658D00220FCF730
:105A400067FC064628B1002383F3118803B0BDE844
:105A5000F083034683F31188202383F3118840F6F3
:105A60009405C2F2000501462846FCF7B1F804305F
:105A700014BF002101210320FCF74AFC074690BB1C
:105A8000034683F311884FF0FF312846FCF7C8F82E
:105A9000C0B2FCF72DFC4FF0FF312846FCF7C0F8F0
:105AA000C0B2FCF725FC4FF0FF312846FCF7B8F8F0
:105AB000C0B2FCF71DFC4FF0FF312846FCF7B0F8F0
:105AC000C0B2FCF715FC202383F31188A9680420D9
:105AD000D1F1010138BF0021FCF71AFC60B13B464F
