:020000040800F2
:1000000000040020810C0008810D0008810D00080B
:10001000810D0008810D0008810D0008810D000888
:10002000810D0008810D0008810D0008B10D000848
:10003000810D0008810D0008810D0008810E000867
:10004000810D0008810D0008810D0008810D000858
:10005000810D0008810D0008810D0008810D000848
:10006000810D0008810D0008810D0008B1170008FE
:10007000E11700081118000841180008711800085D
:10008000A1180008D1180008810D0008810D000892
:10009000810D0008810D0008810D0008810D000808
:1000A000810D0008D11F0008810D00080120000803
:1000B000810D0008810D0008810D0008810D0008E8
:1000C000810D0008810D0008810D0008810D0008D8
:1000D000810D0008810D000871230008810D0008C2
:1000E000810D0008810D0008810D0008810D0008B8
:1000F000810D0008810D0008810D0008011900081C
:10010000810D0008810D0008810D0008810D000897
:10011000810D0008810D0008810D0008810D000887
:10012000311900086119000891190008C119000867
:10013000F1190008810D0008810D0008810D0008EB
:10014000810D0008810D0008810D0008810D000857
:10015000211A0008511A0008811A0008912300088A
:10016000810D0008810D0008810D0008810D000837
:10017000810D0008810D0008810D0008810D000827
:10018000810D0008810D0008810D0008810D000817
:10019000810D0008810D0008810D0008810D000807
:0C01A000810D0008810D0008810D000891
:1001B000F0B587B001F034FA00F0D2FE8B498C48DC
:1001C0008C4C01F095FA40F2024280218A4801F0FD
:1001D00077FE40F202424021874801F071FE8749D4
:1001E000874801F085FA40F282320421854801F007
:1001F00067FE40F282320821824801F061FE8249A6
:10020000824801F035FA82224FF40071804801F0F3
:1002100057FE82224FF400617D4801F051FE822298
:100220004FF400517A4801F04BFE82224FF4804196
:10023000774801F045FE01228021764801F040FE1A
:1002400001224FF48071734801F03AFE012210211F
:10025000704801F035FE01224FF400716D4801F045
:100260002FFE00221146694801F012FA00220121F6
:10027000664801F00DFA00220221644801F008FAF4
:1002800000220321614801F003FA00224FF40051DB
:10029000604801F015FE00224FF480415D4801F0F6
:1002A0000FFE002240215A4801F00AFE00222021C0
:1002B000574801F005FE00224FF40061564801F056
:1002C000FFFD00220221534801F0FAFD00224FF405
:1002D00080514F4801F0F4FD002280214C4801F08C
:1002E000EFFD08224D494E4801F0F2F808224D4931
:1002F0004D4801F0EDF808224C494D48002501F029
:10030000E7F808224B494C4801F0E2F84B4B0095C6
:1003100040224FF4A8714A4801F022F8494B009559
:1003200040224FF49D61484801F01AF8474B009570
:1003300040224FF49D61464801F012F8454B00956C
:1003400040224FF49D61444801F00AF80095434B68
:10035000434840224FF49D6101F002F8244801F027
:100360000FFA234801F0E4F9254801F0E1F93D4A8C
:100370001F48052101F0F4F902A94FF0FF32284887
:1003800001F0DEF803A94FF0FF32274801F0D8F85A
:1003900004A94FF0FF32264801F0D2F805A94FF02A
:1003A000FF32254801F0CCF853214FF0730E059B26
:1003B000029F039E049D21704FF0450C0D4A0C488E
:1003C00084F801E0082184F807E0637184F806C02E
:1003D000A770E670257101F09BF9064A08480821CC
:1003E00001F096F9642000F0FBFFB7E70008002059
:1003F000E00A0020841C00200008024020080020A1
:10040000C40A00200000024040080020B00A00207A
:100410000010024000040240000C0240301B00208B
:1004200078210020801B0020A0210020D01B00206C
:10043000C8210020201C0020FC0A00208126000882
:10044000280B0020E1270008780C002081270008F5
:10045000901C00201127000860110020B126000820
:1004600048160020701C0020000000000000000062
:1004700081F0004102E000BF83F0004330B54FEA55
:1004800041044FEA430594EA050F08BF90EA020FC2
:100490001FBF54EA000C55EA020C7FEA645C7FEA55
:1004A000655C00F0E2804FEA5454D4EB5555B8BF78
:1004B0006D420CDD2C4480EA020281EA030382EAE9
:1004C000000083EA010180EA020281EA0303362D7B
:1004D00088BF30BD11F0004F4FEA01314FF4801C4E
:1004E0004CEA113102D0404261EB410113F0004F60
:1004F0004FEA03334CEA133302D0524263EB430317
:1005000094EA050F00F0A780A4F10104D5F1200EB4
:100510000DDB02FA0EFC22FA05F2801841F100010F
:1005200003FA0EF2801843FA05F359410EE0A5F1E3
:1005300020050EF1200E012A03FA0EFC28BF4CF014
:10054000020C43FA05F3C01851EBE37101F00045CA
:1005500007D54FF0000EDCF1000C7EEB00006EEBD7
:100560000101B1F5801F1BD3B1F5001F0CD3490861
:100570005FEA30004FEA3C0C04F101044FEA4452B8
:1005800012F5800F80F09A80BCF1004F08BF5FEA3F
:10059000500C50F1000041EB045141EA050130BD1F
:1005A0005FEA4C0C404141EB010111F4801FA4F1C2
:1005B0000104E9D191F0000F04BF01460020B1FA17
:1005C00081F308BF2033A3F10B03B3F120020CDA4F
:1005D0000C3208DD02F1140CC2F10C0201FA0CF02D
:1005E00021FA02F10CE002F11402D8BFC2F1200C92
:1005F00001FA02F120FA0CFCDCBF41EA0C01904048
:10060000E41AA2BF01EB0451294330BD6FEA040490
:100610001F3C1CDA0C340EDC04F11404C4F120027B
:1006200020FA04F001FA02F340EA030021FA04F38D
:1006300045EA030130BDC4F10C04C4F1200220FAE4
:1006400002F001FA04F340EA0300294630BD21FA22
:1006500004F0294630BD94F0000F83F4801306BFE8
:1006600081F480110134013D4EE77FEA645C18BFDC
:100670007FEA655C29D094EA050F08BF90EA020F73
:1006800005D054EA000C04BF1946104630BD91EA6B
:10069000030F1EBF0021002030BD5FEA545C05D16E
:1006A0004000494128BF41F0004130BD14F58004AD
:1006B0003CBF01F5801130BD01F0004545F0FE4121
:1006C00041F470014FF0000030BD7FEA645C1ABF56
:1006D000194610467FEA655C1CBF0B46024650EA8D
:1006E000013406BF52EA033591EA030F41F40021B9
:1006F00030BD00BF90F0000F04BF0021704730B53F
:100700004FF4806404F132044FF000054FF0000113
:1007100050E700BF90F0000F04BF0021704730B5D4
:100720004FF4806404F1320410F0004548BF4042A9
:100730004FF000013EE700BF42004FEAE2014FEAFE
:1007400031014FEA02701FBF12F07F4393F07F4FD9
:1007500081F06051704792F0000F14BF93F07F4F0B
:10076000704730B54FF4607401F0004521F000414E
:1007700020E700BF50EA010208BF704730B54FF0D4
:1007800000050AE050EA010208BF704730B511F0D9
:10079000004502D5404261EB41014FF4806404F111
:1007A00032045FEA915C3FF4DCAE4FF003025FEA93
:1007B000DC0C18BF03325FEADC0C18BF033202EB1B
:1007C000DC02C2F1200300FA03FC20FA02F001FA75
:1007D00003FE40EA0E0021FA02F11444C1E600BF14
:1007E00070B54FF0FF0C4CF4E06C1CEA11541DBFC7
:1007F0001CEA135594EA0C0F95EA0C0F00F0DEF892
:100800002C4481EA030621EA4C5123EA4C5350EA76
:10081000013518BF52EA033541F4801143F48013C7
:1008200038D0A0FB02CE4FF00005E1FB02E506F058
:100830000042E0FB03E54FF00006E1FB03569CF0AD
:10084000000F18BF4EF0010EA4F1FF04B6F5007FB3
:1008500064F5407404D25FEA4E0E6D4146EB060625
:1008600042EAC62141EA55514FEAC52040EA5E50AE
:100870004FEACE2EB4F1FD0C88BFBCF5E06F1ED858
:10088000BEF1004F08BF5FEA500E50F1000041EB8F
:10089000045170BD06F0004646EA010140EA02003C
:1008A00081EA0301B4EB5C04C2BFD4EB0C0541EA5E
:1008B000045170BD41F480114FF0000E013C00F373
:1008C000AB8014F1360FDEBF002001F0004170BD97
:1008D000C4F10004203C35DA0C341BDC04F11404B0
:1008E000C4F1200500FA05F320FA04F001FA05F23C
:1008F00040EA020001F0004221F0004110EBD37009
:1009000021FA04F642EB06015EEA430E08BF20EA34
:10091000D37070BDC4F10C04C4F1200500FA04F3D7
:1009200020FA05F001FA04F240EA020001F0004169
:1009300010EBD37041F100015EEA430E08BF20EADC
:10094000D37070BDC4F1200500FA05F24EEA020E24
:1009500020FA04F301FA05F243EA020321FA04F053
:1009600001F0004121FA04F220EA020000EBD3700A
:100970005EEA430E08BF20EAD37070BD94F0000F0A
:100980000FD101F00046400041EB010111F4801F3E
:1009900008BF013CF7D041EA060195F0000F18BFEF
:1009A000704703F00046520043EB030313F4801F2B
:1009B00008BF013DF7D043EA0603704794EA0C0FE5
:1009C0000CEA135518BF95EA0C0F0CD050EA4106FB
:1009D00018BF52EA4306D1D181EA030101F0004178
:1009E0004FF0000070BD50EA410606BF10461946A0
:1009F00052EA430619D094EA0C0F02D150EA0136AC
:100A000013D195EA0C0F05D152EA03361CBF1046EC
:100A100019460AD181EA030101F0004141F0FE418B
:100A200041F470014FF0000070BD41F0FE4141F40F
:100A3000780170BD70B54FF0FF0C4CF4E06C1CEA0F
:100A400011541DBF1CEA135594EA0C0F95EA0C0FC4
:100A500000F0A7F8A4EB050481EA030E52EA03357F
:100A60004FEA013100F088804FEA03334FF08055A0
:100A700045EA131343EA12634FEA022245EA1115CD
:100A800045EA10654FEA00260EF000419D4208BF7E
:100A9000964244F1FD0404F5407402D25B084FEA2B
:100AA0003202B61A65EB03055B084FEA32024FF4D7
:100AB00080104FF4002CB6EB020E75EB030E22BF34
:100AC000B61A754640EA0C005B084FEA3202B6EBF4
:100AD000020E75EB030E22BFB61A754640EA5C00A3
:100AE0005B084FEA3202B6EB020E75EB030E22BF33
:100AF000B61A754640EA9C005B084FEA3202B6EB34
:100B0000020E75EB030E22BFB61A754640EADC00F2
:100B100055EA060E18D04FEA051545EA16754FEA54
:100B200006164FEAC30343EA52734FEAC2025FEA72
:100B30001C1CC0D111F4801F0BD141EA00014FF001
:100B400000004FF0004CB6E711F4801F04BF0143D2
:100B50000020B4F1FD0C88BFBCF5E06F3FF6AFAEEE
:100B6000B5EB030C04BFB6EB020C5FEA500C50F17E
:100B7000000041EB045170BD0EF0004E4EEA113101
:100B800014EB5C04C2BFD4EB0C0541EA045170BD08
:100B900041F480114FF0000E013C90E645EA060E4C
:100BA0008DE60CEA135594EA0C0F08BF95EA0C0F7A
:100BB0003FF43BAF94EA0C0F0AD150EA01347FF4C2
:100BC00034AF95EA0C0F7FF425AF104619462CE799
:100BD00095EA0C0F06D152EA03353FF4FDAE1046FC
:100BE000194622E750EA410618BF52EA43067FF44D
:100BF000C5AE50EA41047FF40DAF52EA43057FF4DD
:100C0000EBAE12E700000000000000000000000052
:100C10004FEA410212F5001215D211D56FF4787324
:100C2000B3EB625212D94FEAC12343F0004343EAC7
:100C3000505311F0004F23FA02F018BF40427047A2
:100C40004FF00000704750EA013005D111F000402C
:100C500008BF6FF0004070474FF00000704700BFC2
:100C6000704700BF0000000000000000000000000E
:100C7000FEE700BF000000000000000000000000D0
:100C800072B6304880F30988022383F31488BFF3D7
:100C90006F8F2D4B2D4A93420BD2D9430A4422F039
:100CA000030204321A444FF0553143F8041B9342B7
:100CB000FBD1274B83420BD2264AD21A22F00302E1
:100CC00004321A444FF0553143F8041B9342FBD1D0
:100CD00001F0AEFC204A214B9A420CD2D04318447A
:100CE00020F003001E4B0430184453F8041B42F854
:100CF000041B8342F9D11B4B1B4A93420AD2D943AE
:100D00000A4422F0030204321A44002143F8041B6F
:100D10009A42FBD1154D164CFFF7A2FFAC4204D20C
:100D200054F8043B9847AC42FAD3124D124CFFF7EB
:100D30003FFAAC4204D254F8043B9847AC42FAD391
:100D4000FFF796FF000800200000002000040020AC
:100D500000040020FF070020000800207408002085
:100D6000A02D000874080020F0210020AC0100082C
:100D7000AC010008AC010008AC0100080000000054
:100D8000FEE700BF000000000000000000000000BF
:100D900072B6FEE700000000000000000000000046
:100DA00000F0A6FA00DF00BF000000000000000015
:100DB000EFF30983203383F30988002383F3118839
:100DC000704700BF000000000000000000000000AD
:100DD00008B5094B094A002199600720DA60102103
:100DE00000F096F820210A2000F092F880210B20D4
:100DF000BDE8084000F08CB800ED00E00003FA0503
:100E0000202383F31188174B5B6813F4006319D018
:100E1000EFF309834FF0807243F8042CA3F1200212
:100E200082F3098810498A69D07F70B10868916897
:100E300082688A4294BF002201227AB10B4A43F8A9
:100E4000082C704783F3118870470868916882689E
:100E50008A4234BF00220122002AEFD1044A43F81B
:100E6000082C704700ED00E0B0090020A10D00083B
:100E7000A40D0008000000000000000000000000B9
:100E800008B5202383F3118800F09AF8002383F338
:100E90001188BDE80840FFF7B3BF00BF00000000A5
:100EA0002DE9F04FC1F80CD0D0F80CD0BDE8F08F90
:100EB000002383F311882846A04700F0C1FA704749
:100EC00070B420F0030404F1604404F56144C200EE
:100ED0004309D4F8005302F01802FF269B00964005
:100EE00003F16043914003F5614325EA060200F0F7
:100EF0001F00012505FA00F01143C4F80013C3F8E0
:100F0000800170BC18607047000000000000000005
:100F100020F0030303F1604303F56D4300F0030089
:100F200010B4C0009A69FF248440814022EA040082
:100F30000843986110BC70470000000000000000EA
:100F4000024B034A9B699A61FEE700BFB00900208B
:100F5000B02B0008000000000000000000000000AE
:100F600000B583B0FFF734FF00F0DAF800F058F86E
:100F700000F00EFB00F044FB40210B4800F0C8F9E4
:100F80000A49012288610277002383F3118862B63F
:100F90008969074888610093E021064B064800F004
:100FA000DFF903B05DF804FB74080020B0090020ED
:100FB000C02B0008410F0008C008002000000000FE
:100FC00070B5134B9B69DA7F0AB1013ADA771A6A76
:100FD000104C01321A62E36822680133A242E360D6
:100FE00014D09668013E966086B91168D568216074
:100FF000D66000234C6083F311881069A847202332
:1010000083F3118822689368002BEED070BD00BF77
:10101000B0090020A009002000000000000000002E
:10102000044B4FF0FF3100225B601B609960DA6077
:10103000704700BFA0090020000000000000000071
:1010400070B40C4E3468A5680361A942C26004D92B
:101050002468491BA5688D42FAD363684360B44293
:10106000046060601860816002D0A368591AA160B2
:1010700070BC7047A00900200000000000000000C4
:10108000074A0368934203D0996882680A449A60C9
:1010900042681360016800234A60C360704700BF64
:1010A000A009002000000000000000000000000077
:1010B00010B4202383F31188037F0D2B11D8DFE8B0
:1010C00003F025101007100B101010101010100B4B
:1010D000426A93680133936090E80C001A600268DA
:1010E00053604FF0FF34002381680B4A446203775A
:1010F000126893688B42FBD2516841600260002302
:101100005060086083F3118810BC7047002383F39C
:10111000118810BC704700BFB0090020000000001B
:10112000034B00225B601B605B611B619A60704730
:10113000B0090020000000000000000000000000D6
:1011400000228168074B10B4044602771B689A6836
:101150008A42FBD25A686260236020465C60146059
:1011600010BC7047B0090020000000000000000023
:10117000084B99691A6810B408771420C87710686A
:101180001860012443601477104610BC9A61FFF781
:1011900087BE00BFB0090020000000000000000072
:1011A00030B54B1C87B012D00C4C0D4AA3690546D4
:1011B00001A8FFF745FF2846FFF7DAFF049B13B1AC
:1011C00001A8FFF75DFFA369586A07B030BD034C63
:1011D000FFF7CEFFA369586A07B030BDB009002001
:1011E000B110000800000000000000000000000036
:1011F000144BF0B404469D694162A868A16881421D
:101200004FF000020BD822771B689A689142FBD9F5
:101210005A68626023605C601460F0BC70472A7793
:101220001A46126891688842FBD956686E60012799
:101230002A60556035602777294620469C61F0BCBE
:10124000FFF72EBEB00900200000000000000000E3
:101250000E4B1868026830B401219C691A60536013
:10126000142501770022A168E5779861227703466B
:1012700000E01B689A688A42FBD25A686260236069
:1012800021465C60146030BCFFF70ABEB009002044
:101290000D4B1868026810B401219C691A605360F4
:1012A00001770022A16822779861034600E01B685D
:1012B0009A688A42FBD85A686260236021465C6063
:1012C000146010BCFFF7ECBDB00900200000000066
:1012D000044B1A689B6992689B689A4200D87047D1
:1012E000FFF7D6BFB009002000000000000000009A
:1012F000034B9B69DB7F0BB1FFF7CABFFFF7A8BFAA
:10130000B009002000000000000000000000000004
:10131000F0B50F4C0164656945610022816004618C
:1013200000F12C0160614FF0020E1427012600F13C
:10133000280480F81CE0C77786774277C26382630F
:1013400002628261286184620163C162F0BD00BFF4
:10135000B0090020000000000000000000000000B4
:10136000F8B51E460446202383F31188174B243911
:1013700045185F69C5604650069E15496E60296232
:101380004FF0020C0025826002644FF0140E00F151
:101390002C0200F12806012103618177476180F862
:1013A0001CC0586180F81FE04577C56385630562FE
:1013B00085612946386186620263C262FFF718FFC1
:1013C0002B4683F311882046F8BD00BFB0090020EA
:1013D000B10E000800000000000000000000000046
:1013E00008B50146202383F311880620FFF7D8FEB5
:1013F000002383F3118808BD0000000000000000F6
:1014000038B50E4B9C692546606255F8280FA842F6
:1014100006D00368A362FFF793FEA06AA842F8D142
:10142000637F9B0704D1636922691A612269536152
:101430000E20BDE83840FFF79BBE00BFB00900207A
:10144000202383F31188FFF7DBBF00BF00000000FB
:1014500040600060816070470000000000000000F4
:1014600003468068421E002A9A6001DB0020704714
:1014700010B459B1084A926953625C68032082E84B
:1014800018005A60226010BCFFF78ABE986010BC3A
:101490004FF0FF30704700BFB0090020000000008F
:1014A00083680133002B836000DD704703681A688E
:1014B00002600021506018465962FFF741BE00BF2C
:1014C0000023406000608360704700BF00000000A0
:1014D00010B50B4601EB820141600446C360836096
:1014E000036011461C30FFF7B3FF04F11000002128
:1014F000BDE81040FFF7ACBF000000000000000096
:1015000038B5436A002B12DD84684568221D013B13
:10151000AA42436228BF03688260216000F1100084
:1015200028BF40F8083CFFF7BBFF002038BD4FF054
:10153000FF3038BD00000000000000000000000087
:1015400070B5202304460E4683F3118811461030EF
:10155000FFF786FF054680B9E368626819680433BF
:101560009342E36028BF2368316004F11C0028BF68
:10157000E360FFF795FFFFF7ABFE002383F31188CD
:10158000284670BD000000000000000000000000C0
:10159000054A064B0648074922F0070223F00703D5
:1015A00002600B60704700BFF721002000C00120DF
:1015B000D0090020CC09002000000000000000003D
:1015C00010B4202383F31188094C0A4B2268196850
:1015D000C31D23F00703891A8B429DBF9B1823600C
:1015E00010460020002383F3118810BC704700BF11
:1015F000D0090020CC0900200000000000000000FD
:10160000044B054A1A6003F1100000229A60DA6068
:10161000FFF756BFD8090020C115000800000000E0
:1016200008B500F0BDFA064800F072FB00F010F8B3
:1016300000F03EF800F04CF8BDE8084001F000B8BA
:10164000A02C0008000000000000000000000000C6
:1016500000F006BD000000000000000000000000D7
:101660000122002302704360704700BF00000000A9
:1016700010B52023044683F311888B8803814160D1
:1016800000F0FEFC02232370002383F3118810BDB9
:1016900008B5202383F3118800F072FD002383F343
:1016A000118808BD000000000000000000000000DC
:1016B00000F066BC00000000000000000000000018
:1016C000002301220270436083600C30FFF7F8BEF4
:1016D00000F06EBE000000000000000000000000EE
:1016E000002301220270437083704360704700BF83
:1016F00010B52023044683F31188416000F080FE7A
:1017000002232370002383F3118810BD0000000022
:1017100010B52023044683F3118800F021FF012334
:101720006370002383F3118810BD00BF0000000028
:10173000202383F311884378012B04D00020002359
:1017400083F31188704710B5044600F019FF002399
:101750006370002383F3118810BD00BF00000000F8
:1017600010B52023044683F3118800F019FF0123EC
:10177000A370002383F3118810BD00BF0000000098
:10178000202383F311888378012B04D000200023C9
:1017900083F31188704710B5044600F021FF002341
:1017A000A370002383F3118810BD00BF0000000068
:1017B00008B5074B074A196801F03D0199601368A5
:1017C0000BB150689847BDE80840FFF719BB00BF50
:1017D00000600240F8090020000000000000000046
:1017E000084B094819688268890901F03D0110B564
:1017F0008C019C600AB1C0689047BDE81040FFF7BB
:10180000FFBA00BF00600240F8090020000000009D
:10181000084B094819680269090C01F03D0110B52F
:101820000C049C600AB140699047BDE81040FFF786
:10183000E7BA00BF00600240F80900200000000085
:10184000084B094819688269890D01F03D0110B5FE
:101850008C059C600AB1C0699047BDE81040FFF755
:10186000CFBA00BF00600240F8090020000000006D
:1018700008B5074B07485968026A01F03D01D96075
:101880000AB1406A9047BDE80840FFF7B9BA00BF07
:1018900000600240F8090020000000000000000085
:1018A000084B09485968826A890901F03D0110B561
:1018B0008C01DC600AB1C06A9047BDE81040FFF7B8
:1018C0009FBA00BF00600240F8090020000000003D
:1018D000084B09485968026B090C01F03D0110B52D
:1018E0000C04DC600AB1406B9047BDE81040FFF784
:1018F00087BA00BF00600240F80900200000000025
:10190000084B09485968826B890D01F03D0110B5FB
:101910008C05DC600AB1C06B9047BDE81040FFF752
:101920006FBA00BF00600240F8090020000000000C
:1019300008B5074B07481968026C01F03D01996032
:101940000AB1406C9047BDE80840FFF759BA00BFA4
:1019500000640240F80900200000000000000000C0
:10196000084B09481968826C890901F03D0110B5DE
:101970008C019C600AB1C06C9047BDE81040FFF735
:101980003FBA00BF00640240F809002000000000D8
:10199000084B09481968026D090C01F03D0110B5AA
:1019A0000C049C600AB1406D9047BDE81040FFF701
:1019B00027BA00BF00640240F809002000000000C0
:1019C000084B09481968826D890D01F03D0110B579
:1019D0008C059C600AB1C06D9047BDE81040FFF7D0
:1019E0000FBA00BF00640240F809002000000000A8
:1019F00008B5074B07485968026E01F03D01D960F0
:101A00000AB1406E9047BDE80840FFF7F9B900BF42
:101A100000640240F80900200000000000000000FF
:101A2000084B09485968826E890901F03D0110B5DB
:101A30008C01DC600AB1C06E9047BDE81040FFF732
:101A4000DFB900BF00640240F80900200000000078
:101A5000084B09485968026F090C01F03D0110B5A7
:101A60000C04DC600AB1406F9047BDE81040FFF7FE
:101A7000C7B900BF00640240F80900200000000060
:101A8000084B09485968826F890D01F03D0110B576
:101A90008C05DC600AB1C06F9047BDE81040FFF7CD
:101AA000AFB900BF00640240F80900200000000048
:101AB0000E490F4A0F48002310B40B600E4C194614
:101AC00001E052F80C0C016044F833100133102B84
:101AD00002F10C02F5D10949094A10BC4FF0FF335D
:101AE0008B60CB609360D360704700BF780A0020A2
:101AF000EC2B000810600240F80900200060024052
:101B0000006402400000000000000000000000002F
:101B1000F8B5204F467A3D68012404FA06FE1EEA15
:101B2000050F32D11C4C4EEA050504EBC60E15F02C
:101B3000FF0F3D6044F83620CEF8043004D0174C37
:101B4000236B43F40013236315F47F4F17D105680B
:101B50002B6823F01F032B602B6813F00104FBD1CB
:101B6000077A46683D23BB40212733602C606F61B4
:101B70006AB10901807AFFF7A3F92046F8BD074C46
:101B8000236B43F480032363E1E72046F8BD10464E
:101B9000F8BD00BF780A0020F80900200038024094
:101BA0001F4B20491A694FF0FF300022F0B5186131
:101BB0001A615C6958615A611C6A1B4E1B4F1C4DAF
:101BC00064F080541C621A620724D3F824E058623F
:101BD0005A624F608A600C60F168164841F080716B
:101BE000F160296841F001012960196C41F08051D0
:101BF0001964016841F480710160196F01F440714A
:101C0000B1F5007F03D04FF4803119671A67094A94
:101C1000536823F400735360BDE8F040FFF748BFFA
:101C20000038024010E000E0F0ED00E03F900200DC
:101C3000001000E000700040000000000000000004
:101C40002C492D4B4FF080504FF4404208641A60ED
:101C50000B6843F001030B600A68264B9007FBD525
:101C60009A6822F003029A609A689A6019468B6813
:101C7000204A13F00C03FAD1116801F0F901116048
:101C80009360136843F4803313601168194B890320
:101C9000FBD55A6F42F001025A675A6F15499007F7
:101CA000FBD5164B4B600B68134A43F080730B60F7
:101CB00053685904FCD50F490A680E4B9201FBD5B5
:101CC0000F4A1049996040F2057111609A6842F01C
:101CD00002029A601A469368064903F00C03082B27
:101CE000F9D14B6C43F480434B644B6E43F4804317
:101CF0004B667047003802400070004008544007AF
:101D0000003C024000940838000000000000000081
:101D1000F0B4654D654C2F6B6549664A664B40F2E1
:101D2000FF1637432F632F6D3E432E654568656070
:101D30008568A560C568E5600569656145692562D6
:101D40008569656205682560046A4C60446A8C6038
:101D5000846ACC60C46A4C61046B0C62446B4C6254
:101D6000C4690C60C16B5160016C9160416CD160C1
:101D7000816C5161C16C1162016D5162816B1160A6
:101D8000826D5A60C26D9A60026EDA60426E5A616C
:101D9000826E1A62C26E5A62426D1A60426FC3F856
:101DA0000424826FC3F80824C26FC3F80C24D0F84F
:101DB0008020C3F81424D0F88420C3F82024D0F85D
:101DC0008820C3F82424026FC3F80024D0F89020A0
:101DD000C3F80428D0F89420C3F80828D0F8982035
:101DE000C3F80C28D0F89C20C3F81428D0F8A02001
:101DF000C3F82028D0F8A420C3F82428D0F88C20D9
:101E0000C3F8002803F54063D0F8AC205A60D0F83E
:101E1000B0209A60D0F8B420DA60D0F8B8205A61C7
:101E2000D0F8BC201A62D0F8C0205A62D0F8A8209E
:101E30001A60D0F8C820C3F80424D0F8CC20C3F826
:101E40000824D0F8D020C3F80C24D0F8D420C3F84C
:101E50001424D0F8D820C3F82024D0F8DC20C3F80C
:101E60002424D0F8C420C3F80024D0F8E420C3F818
:101E70000428D0F8E820C3F80828D0F8EC20C3F8EC
:101E80000C28D0F8F020C3F81428D0F8F420C3F8B8
:101E90002028D0F8F820C3F82428D0F8E020C3F890
:101EA0000028F0BC704700BF00380240000002402C
:101EB0000004024000080240000C02400000000044
:101EC0002DE9F04F4FF00F0C02F0030EC2F3800724
:101ED000C2F3C106C2F341150024C2F3C3124FF08E
:101EE00001094FF0030830E0D0F820B02BEA0303DB
:101EF00043EA0A030362436809FA04FA23EA0A037D
:101F00003B4343606300D0F808A008FA03F3DB43C7
:101F10000AEA030A4AEA060AC0F808A0D0F80CA0A8
:101F200003EA0A0A4AEA050AC0F80CA0D0F800A0A1
:101F300003EA0A0343EA0E030360490819D07F004D
:101F4000B600AD004FEA8E0E013404F007039B008B
:101F500011F0010F02FA03FA0CFA03F3EDD0072C8B
:101F6000C2D9D0F824B02BEA030343EA0A03436240
:101F7000C1E7BDE8F08F00BF0000000000000000D6
:101F800010B50A4C0A4B4FF6FF7220461A80FFF735
:101F900097FB084B08480949094AE06103F10C0026
:101FA00023626062A162E26210BD00BF800A00206D
:101FB0007C0A0020042C00080038004016000100B4
:101FC00046000100000000000000000000000000CA
:101FD00008B50648064A43686FF001019B68116125
:101FE0009847BDE80840FEF70BBF00BFB00A0020CD
:101FF00000000140000000000000000000000000A0
:10200000134B10B51C69DA681440A4B2E2B2D24393
:10201000A0071A6117D4610710D4220709D4E30678
:1020200003D50C4843689B6A9847BDE81040FEF70B
:10203000E7BE084843681B6A9847F0E705484368CD
:102040009B699847E9E7034843681B699847E2E7BB
:1020500000000140B00A0020000000000000000065
:1020600010B5034C2046FFF7FBFA024B236110BD6D
:10207000B00A002000000140000000000000000045
:102080000378012B70B5044655D0036900221A600D
:102090005A639A63DA631A645A6261682589CA6866
:1020A000E0680E68B0FBF6F06C1E013802F00F021B
:1020B000CD6A80B2A4B2012A9862DC625D6003D06E
:1020C000022A0CBF03220022486900F00F000128F9
:1020D0002ED002282AD0C86900F00F00012822D093
:1020E00002281ED0486A00F00F00012803D0022801
:1020F00003D142F4005242F48052086B89681A629C
:1021000020F0FF02002918BF42F00102012500243F
:102110004FF4004085215D611C61DA6058641960EC
:1021200070BD42F4007242F48072DBE742F020029C
:1021300042F01002CFE70F4B984205D0236946F6D4
:1021400068029A61DA61A8E70B4B5A6C42F001020F
:102150005A645A6A002042F001025A6270215862A1
:102160001920FEF7ADFE70211B20FEF7A9FE034BE0
:10217000E360E3E7B00A002000380240007A030A77
:10218000436810B4046903EBC10001F10C0300695A
:1021900004EB83035A6048B10223E26803FA01F1B9
:1021A0000A4203D10A43C943E260216110BC70476F
:1021B00001690A68136823F01F0313601368DB07C3
:1021C000FCD430B444690D7A496822683D23AB40A1
:1021D0000B60136823F01F031360136813F00103EF
:1021E000FBD1257A826860683D21A940016030BC3E
:1021F000938113829382704700000000000000006A
:102200002DE9F0418668B3893488B18840F20F1215
:10221000A4B2224007469DB2E2B143681B694FF663
:10222000FF623280B3B114F0080F0CBF00211021FF
:10223000E20748BF41F00401A00748BF41F0080190
:10224000620748BF41F02001E00548BF41F040016E
:102250003846984762060FD56B060DD57A6825F08B
:10226000400352689BB24FF6BF713180B3811AB1FF
:102270003846BDE8F0411047BDE8F081000000009D
:1022800011F00C0F38B5044623D161690A68136850
:1022900023F01F0313601368DB07FCD462680D7A18
:1022A000486851683D23AB40036029B1A1688B8920
:1022B0009BB243F040038B811368022262702BB102
:1022C000204698476378022B00D038BD0023637006
:1022D00038BDFEF75DFDD8E70000000000000000FB
:1022E00011F00C0F70B504463BD1A3784BB963686D
:1022F000DB68002B34D0218B204689B2BDE87040CA
:10230000184721690A68136823F01F0313601368D4
:10231000DB07FCD460680D7A4E6881683D23AB40D2
:1023200002253360A57039B120468847A378AB42B7
:1023300016D1236960681A68C168E368002914BF70
:102340004FF488714FF480710B430025012104F193
:102350001800A570D0605160136013680B431360C0
:1023600070BDFEF715FDC0E7000000000000000092
:1023700008B50348FFF744FFBDE80840FEF740BD3D
:10238000C40A00200000000000000000000000005F
:1023900008B50348FFF734FFBDE80840FEF730BD3D
:1023A000E00A002000000000000000000000000023
:1023B00070B50C4D0C4C0D4E2846FFF791F90C4BA7
:1023C000AB60062204F10C0330462C616B61EA60BD
:1023D000FFF786F9074BB36004F13C0378343361AF
:1023E000746170BDC40A00201C2C0008E00A0020A3
:1023F0000044004000140140000000000000000004
:10240000F8B50378012B04463FD085680023A370FC
:1024100063702046FFF7CCFEA368484A93424CD035
:1024200002F58062934248D06268454B5169B3FB24
:10243000F1F39BB22B81D768138B508B918B226960
:102440002E88AE88E6681268002F43F404534FF0DC
:1024500000072F8040F0400014BF4FF488774FF4FE
:10246000807743F00C0341F0C1019BB23E4380B240
:10247000012789B218342882A982AB81D4605760C1
:10248000166013683B431360F8BD2E4B98423BD057
:102490002D4B98421ED063681B8B03F4A053B3F5F9
:1024A000805F12D022696369A568106819680022EC
:1024B0002B1D83608B602283A8E76268234B5169E0
:1024C000B3FBF1F39BB22B81B5E7E36843F42053F0
:1024D000E360E7E703461E4A00690C21FFF718FB9B
:1024E00023461C4A60690C21FFF712FB1A4A536C01
:1024F00043F020035364C0214720FEF7E1FCE3686A
:1025000043F02063E360C6E70346114A00690C21EB
:10251000FFF7FEFA23460F4A60690C21FFF7F8FA2D
:102520000D4A136C43F400331364C0212620FEF7D8
:10253000C7FCE36843F00063E360ACE700100140D0
:1025400080DE8002C40A0020E00A002000BD0105F0
:10255000E12200088122000800380240000000004B
:102560004369C0681B6840F48A60DA60596018608B
:102570001A6842F001021A60704700BF00000000B4
:1025800041690A68136823F01F0313601368DB07AF
:10259000FCD4087A49683D2383400B60506870473B
:1025A00070B405692C68236823F01F032360236837
:1025B000DB07FCD42E7A6D683D23B3402B60C368E3
:1025C000E26043F4826361602360236843F00103A7
:1025D000236070BC704700BF0000000000000000D6
:1025E000014600690268136823F01F031360136833
:1025F000DB07FCD430B44B68057ADC6840683D23C7
:10260000AB400360CB685068002C0CBF4FF4807463
:102610004FF48874234318310124D160546013604F
:1026200013682343136030BC704700BF00000000F4
:10263000FFF706BB000000000000000000000000E3
:10264000704700BF00000000000000000000000014
:10265000704700BF00000000000000000000000004
:10266000704700BF000000000000000000000000F4
:10267000704700BF000000000000000000000000E4
:102680000A4808B501224FF480410446FFF718FCC0
:102690004FF480452E4626834FF4FA70FEF7A0FED5
:1026A00065834FF4FA70FEF79BFEF4E7000C0240DE
:1026B000F8B50026124F324633463D693C69C5F3F2
:1026C0000035C4F3C0140BB905B101360AB904B121
:1026D000013E3046FEF71EF807A3D3E90023FEF7BC
:1026E0007FF8FEF795FA01460648FEF709FF2B46EC
:1026F0002246E2E7AFF30080C976BE9F1A2FBD3FA6
:1027000000100240FC0A0020000000000000000051
:102710002DE9F0410026DFF85880134F324633464A
:10272000D8F810503C69C5F3C025C4F340040BB978
:1027300005B1013E0AB904B101363046FDF7EAFFA2
:1027400007A3D3E90023FEF74BF8FEF761FA014631
:102750000648FEF7D5FE2B462246E1E7AFF30080A0
:102760002D431CEBE2368A3F00040240C8210020C2
:10277000000C02400000000000000000000000000B
:10278000F8B50026124F324633463D693C69C5F321
:102790008015C4F340140BB905B101360AB904B170
:1027A000013E3046FDF7B6FF07A3D3E90023FEF74D
:1027B00017F8FEF72DFA01460648FEF7A1FE2B4654
:1027C0002246E2E7AFF30080FCA9F1D24D62703FF0
:1027D00000100240A02100200000000000000000C6
:1027E000F8B50026124F324633463D693C69C5F3C1
:1027F0004035C4F380340BB905B101360AB904B1D0
:10280000013E3046FDF786FF07A3D3E90023FDF71D
:10281000E7FFFEF7FDF901460648FEF771FE2B467D
:102820002246E2E7AFF30080FCA9F1D24D62703F8F
:102830000004024078210020000000000000000099
:10284000704700BF00000000000000000000000012
:102850002DE9F04FB1F1300618BF0126312883B0C1
:102860000F460446904602D1002E40F0B080322C34
:1028700052D1002E50D0AD4DDFF8BC924FF4004342
:1028800000224FF4805A4FF4005BA9F818A01146BB
:10289000A9F81AB02846A9F81A300193FEF7F8FEF5
:1028A000A34B2A8983FB0232520828460121FEF7F6
:1028B000EFFE284600220221FEF7EAFE0022032155
:1028C0002846FEF7E5FEB8F1300F9A4A019B4FF417
:1028D00080714ED0332C518323D10022A9F81830B7
:1028E0001146A9F81AB02846A9F81AA0FEF7D0FE9A
:1028F000284600220121FEF7CBFE2A898C4B83FB60
:102900000232284652080221FEF7C2FE00220321AD
:102910002846FEF7BDFEABE0332C02D1002E40F07E
:102920008180342C4DD1002E4BD0804C002211469A
:102930002046FEF7ADFE204600220121FEF7A8FE4C
:10294000204600220221FEF7A3FE2389784A82FB5B
:102950000332204692080321FEF79AFEB8F1300FA9
:1029600000F0BE80734B4FF400725A8303B0BDE891
:10297000F08F332C1183D4D10022A9F818301146DE
:10298000A9F81AB02846A9F81AA0FEF781FE00227D
:1029900001212846FEF77CFE2A89654B83FB023223
:1029A000520802212846FEF773FE00220321284622
:1029B000FEF76EFE5F4B1022342C1A8301D1002EDD
:1029C00076D1302F00F0918003B0BDE8F08F574DE5
:1029D000594B2A894FF4005119834FF480504FF41A
:1029E000004158835208598328460021FEF750FEC3
:1029F000284600220121FEF74BFE28460022022134
:102A0000FEF746FE002228460321FEF741FE494B11
:102A1000B8F1300F4FF080020CBF1A835A83342C68
:102A200081D0CEE7444B414D4FF400421A834FF41E
:102A3000005000224FF48051588359832846114694
:102A4000FEF726FE284600220121FEF721FE2B89F3
:102A5000374A82FB0332520828460221FEF718FE4D
:102A6000284600220321FEF713FEB8F1300FA1D053
:102A7000304B1022342C5A83A3D1002EA1D0002237
:102A800011462A48FEF704FE002201212748FEF7DE
:102A9000FFFD002202212548FEF7FAFD2B89244A7A
:102AA000224882FB033292080321FEF7F1FD59E729
:102AB000002211461D48FEF7EBFD002201211B48B4
:102AC000FEF7E6FD002202211848FEF7E1FD2B8902
:102AD000174A164882FB033292080321FEF7D8FDFD
:102AE000144B4FF400721A836EE7002211460F4810
:102AF000FEF7CEFD002201210C48FEF7C9FD0022A1
:102B000002210A48FEF7C4FD002203210748FEF710
:102B1000BFFD094B4FF480504FF400514FF4004279
:102B2000588359835A8303B0BDE8F08FB00A002060
:102B30006766666600040240000C02400000000068
:102B400030B5184C002187B004F108050A4601E0B1
:102B5000A54211D014F8013F532B0FD00029F7D014
:102B600006A901EB82010132042A41F8143C0BD082
:102B7000A5424FF00101EDD107B030BD0029EFD1E2
:102B8000012101930A46E3E7019B532BF0D1059BFA
:102B9000452BEDD102A807C8FFF75AFE00221146C7
:102BA000D6E700BF6F1C00200000000000000000FE
:102BB00069646C6500000000000000000000000077
:102BC0006D61696E00168811040448080C10141811
:102BD000001C1D1E1F20000000000000000000005F
:102BE000106002400860024000000B0028600240B4
:102BF0000860024006010C0040600240086002408C
:102C000010020D00586002400860024016030E00DA
:102C1000706002400C60024000040F0088600240B7
:102C20000C60024006051000A06002400C600240EB
:102C300010061100B86002400C60024016072F0019
:102C40001064024008640240000838002864024012
:102C500008640240060939004064024008640240EA
:102C6000100A3A005864024008640240160B3B0008
:102C7000706402400C640240000C3C008864024016
:102C80000C640240060D4400A06402400C64024043
:102C9000100E4500B86402400C640240160F460056
:102CA00000AAA02A00000000FFABFFFF5400014073
:102CB000FFFF00000000565500AA0A00802008000F
:102CC00040020000FFFFFFFF15455155FFFF0000C8
:102CD000000000044000000001802002000000000D
:102CE000FFFFFFFF54154554FFFF00000000006088
:102CF000000606000001005500000000FFFFFFFF76
:102D000055505500FF0F00000000000000000000BB
:102D10004000000000000000FFFFFFFF0000000077
:102D2000FFFF0000000000000000000000000000A5
:102D300000000000FFFFFFFF00000000FFFF000099
:102D40000000000000000000000000000000000083
:102D5000FFFFFFFF00000000FFFF00000000000079
:102D6000000000000000000000000000FFFFFFFF67
:102D700000000000FFFF0000000000000000000055
:102D80000000000000000000FFFFFFFF0000000047
:0C2D9000FFFF0000000000000000000039
:102DA0004128000851260008412B00087126000820
:102DB000612600088025000000000040000000009F
:102DC0000000000000000000000000000000000003
:102DD000000000008025000000000040000000000E
:102DE000A08601000A0000000000000011000000A1
:102DF00000000000110000000000000011000000B1
:102E000000000000110000000000000000000000B1
:042E100000000000BE
:0400000508000C8162
:00000001FF
