:020000040800F2
:100000000004002071040008710500087105000853
:1000100071050008710500087105000871050008E8
:10002000710500087105000871050008A1050008A8
:1000300071050008710500087105000871060008C7
:1000400071050008710500087105000871050008B8
:1000500071050008710500087105000871050008A8
:10006000710500087105000871050008110E0008EF
:10007000410E0008710E0008A10E0008D10E000804
:10008000010F0008310F0008710500087105000814
:100090007105000871050008710500087105000868
:1000A0007105000831160008710500086116000886
:1000B0007105000871050008710500087105000848
:1000C0007105000871050008710500087105000838
:1000D0007105000871050008A118000871050008E5
:1000E0007105000871050008710500087105000818
:1000F000710500087105000871050008610F00080E
:1001000071050008710500087105000871050008F7
:1001100071050008710500087105000871050008E7
:10012000910F0008C10F0008F10F0008211000080E
:1001300051100008710500087105000871050008DC
:1001400071050008710500087105000871050008B7
:1001500081100008B1100008E1100008C118000863
:100160007105000871050008710500087105000897
:100170007105000871050008710500087105000887
:100180007105000871050008710500087105000877
:100190007105000871050008710500087105000867
:0C01A000710500087105000871050008D9
:1001C00000B583B000F07CFD00F0C2FA314932483E
:1001D000324D00F0BDFD40F202428021304801F076
:1001E0009FF940F2024240212D4801F099F92D4932
:1001F0002D4800F0ADFD40F282320421284601F086
:100200008FF940F282320821284601F089F9002353
:1002100000934022254B26484FF4A87100F088FC3B
:1002200001224FF40041234801F07AF928460122C7
:10023000802101F075F942F2107000F0B9FC4FF026
:1002400080042C83144800F0CBFD134800F0A0FD7F
:10025000154800F0C5FD144800F09AFD164800F05E
:1002600037F8154A01460C4800F082FD4FF4FA7049
:1002700000F09EFC04221149114801F0A9FC00285D
:10028000DFD0104800F024F80E4A0146024800F082
:100290006FFDD4E700080020D00A002000000240D3
:1002A0000008024044080020B40A0020A11B0008F6
:1002B000F00A0020000C024020080020B0240008B2
:1002C000B4240008A40C002000000000000000007E
:1002D00090F800F06DE9024520F007016FF0000C86
:1002E00010F0070491F820F040F049804FF000042E
:1002F0006FF00700D1E9002391F840F000F1080009
:1003000082FA4CF2A4FA8CF283FA4CF3A2FA8CF340
:100310004BBBD1E9022382FA4CF200F10800A4FAA7
:100320008CF283FA4CF3A2FA8CF3E3B9D1E90423FB
:1003300082FA4CF200F10800A4FA8CF283FA4CF332
:10034000A2FA8CF37BB9D1E9062301F1200182FAEC
:100350004CF200F10800A4FA8CF283FA4CF3A2FAF2
:100360008CF3002BC6D0002A04BF04301A4612BA00
:10037000B2FA82F2FDE8024500EBD2007047D1E903
:10038000002304F00305C4F100004FEAC50514F092
:10039000040F91F840F00CFA05F562EA05021CBF63
:1003A00063EA050362464FF00004A9E7000000007D
:1003B00001F0FF01102A2BDB10F0070F08D010F816
:1003C000013B013A8B422DD010F0070F42B3F6D11A
:1003D000F0B441EA012141EA014122F007047FF033
:1003E00000070023F0E80256083C85EA010586EA8A
:1003F000010685FA47F5A3FA87F586FA47F6A5FAC6
:1004000087F68EB9EED1F0BC01F0FF0102F00702D1
:1004100032B110F8013B013A83EA010313B1F8D17C
:100420000020704701387047002D06BF354603385D
:10043000073815F0010F07D1013015F4807F02BF96
:10044000013015F4C03F0130F0BC0138704700BFE7
:10045000704700BF00000000000000000000000026
:10046000FEE700BF000000000000000000000000E8
:1004700072B6304880F30988022383F31488BFF3EF
:100480006F8F2D4B2D4A93420BD2D9430A4422F051
:10049000030204321A444FF0553143F8041B9342CF
:1004A000FBD1274B83420BD2264AD21A22F00302F9
:1004B00004321A444FF0553143F8041B9342FBD1E8
:1004C00001F04EFB204A214B9A420CD2D0431844F3
:1004D00020F003001E4B0430184453F8041B42F86C
:1004E000041B8342F9D11B4B1B4A93420AD2D943C6
:1004F0000A4422F0030204321A44002143F8041B88
:100500009A42FBD1154D164CFFF7A2FFAC4204D224
:1005100054F8043B9847AC42FAD3124D124CFFF703
:100520004FFEAC4204D254F8043B9847AC42FAD395
:10053000FFF796FF000800200000002000040020C4
:1005400000040020FF0700200008002064080020AD
:10055000C0240008640800200C0D0020AC01000835
:10056000AC010008AC010008AC010008000000006C
:10057000FEE700BF000000000000000000000000D7
:1005800072B6FEE70000000000000000000000005E
:1005900000F096FA00DF00BF00000000000000003D
:1005A000EFF30983203383F30988002383F3118851
:1005B000704700BF000000000000000000000000C5
:1005C00008B5094B094A002199600720DA6010211B
:1005D00000F096F820210A2000F092F880210B20EC
:1005E000BDE8084000F08CB800ED00E00003FA051B
:1005F000202383F31188174B5B6813F4006319D031
:10060000EFF309834FF0807243F8042CA3F120022A
:1006100082F3098810498A69D07F70B108689168AF
:1006200082688A4294BF002201227AB10B4A43F8C1
:10063000082C704783F311887047086891688268B6
:100640008A4234BF00220122002AEFD1044A43F833
:10065000082C704700ED00E0A0090020910500087B
:1006600094050008000000000000000000000000E9
:1006700008B5202383F3118800F09AF8002383F350
:100680001188BDE80840FFF7B3BF00BF00000000BD
:100690002DE9F04FC1F80CD0D0F80CD0BDE8F08FA8
:1006A000002383F311882846A04700F0B1FA704771
:1006B00070B420F0030404F1604404F56144C20006
:1006C0004309D4F8005302F01802FF269B0096401D
:1006D00003F16043914003F5614325EA060200F00F
:1006E0001F00012505FA00F01143C4F80013C3F8F8
:1006F000800170BC1860704700000000000000001E
:1007000020F0030303F1604303F56D4300F00300A1
:1007100010B4C0009A69FF248440814022EA04009A
:100720000843986110BC7047000000000000000002
:10073000024B034A9B699A61FEE700BFA0090020B3
:10074000C0220008000000000000000000000000BF
:1007500000B583B0FFF734FF00F0DAF800F058F886
:1007600000F066FA00F09CFA40210B4800F0B8F95E
:100770000A49012288610277002383F3118862B657
:100780008969074888610093E021064B064800F01C
:10079000CFF903B05DF804FB64080020A009002035
:1007A000D022000831070008B00800200000000037
:1007B00070B5134B9B69DA7F0AB1013ADA771A6A8E
:1007C000104C01321A62E36822680133A242E360EE
:1007D00014D09668013E966086B91168D56821608C
:1007E000D66000234C6083F311881069A84720234A
:1007F00083F3118822689368002BEED070BD00BF90
:10080000A009002090090020000000000000000066
:10081000044B4FF0FF3100225B601B609960DA608F
:10082000704700BF90090020000000000000000099
:1008300070B40C4E3468A5680361A942C26004D943
:100840002468491BA5688D42FAD363684360B442AB
:10085000046060601860816002D0A368591AA160CA
:1008600070BC7047900900200000000000000000EC
:10087000074A0368934203D0996882680A449A60E1
:1008800042681360016800234A60C360704700BF7C
:10089000900900200000000000000000000000009F
:1008A00010B4202383F31188037F0D2B11D8DFE8C8
:1008B00003F025101007100B101010101010100B63
:1008C000426A93680133936090E80C001A600268F2
:1008D00053604FF0FF34002381680B4A4462037772
:1008E000126893688B42FBD251684160026000231A
:1008F0005060086083F3118810BC7047002383F3B5
:10090000118810BC704700BFA00900200000000043
:10091000034B00225B601B605B611B619A60704748
:10092000A0090020000000000000000000000000FE
:1009300000228168074B10B4044602771B689A684E
:100940008A42FBD25A686260236020465C60146071
:1009500010BC7047A009002000000000000000004B
:10096000084B99691A6810B408771420C877106882
:100970001860012443601477104610BC9A61FFF799
:1009800087BE00BFA009002000000000000000009A
:1009900030B54B1C87B012D00C4C0D4AA3690546EC
:1009A00001A8FFF745FF2846FFF7DAFF049B13B1C4
:1009B00001A8FFF75DFFA369586A07B030BD034C7B
:1009C000FFF7CEFFA369586A07B030BDA009002029
:1009D000A108000800000000000000000000000066
:1009E000144BF0B404469D694162A868A168814235
:1009F0004FF000020BD822771B689A689142FBD90E
:100A00005A68626023605C601460F0BC70472A77AB
:100A10001A46126891688842FBD956686E600127B1
:100A20002A60556035602777294620469C61F0BCD6
:100A3000FFF72EBEA009002000000000000000000B
:100A40000E4B1868026830B401219C691A6053602B
:100A5000142501770022A168E57798612277034683
:100A600000E01B689A688A42FBD25A686260236081
:100A700021465C60146030BCFFF70ABEA00900206C
:100A80000D4B1868026810B401219C691A6053600C
:100A900001770022A16822779861034600E01B6875
:100AA0009A688A42FBD85A686260236021465C607B
:100AB000146010BCFFF7ECBDA0090020000000008E
:100AC000034B9B69DB7F0BB1FFF7DABFFFF7B8BFC2
:100AD000A00900200000000000000000000000004D
:100AE000F0B50F4C016465694561002281600461C5
:100AF00000F12C0160614FF0020E1427012600F175
:100B0000280480F81CE0C77786774277C263826347
:100B100002628261286184620163C162F0BD00BF2C
:100B2000A0090020000000000000000000000000FC
:100B3000F8B51E460446202383F31188174B243949
:100B400045185F69C5604650069E15496E6029626A
:100B50004FF0020C0025826002644FF0140E00F189
:100B60002C0200F12806012103618177476180F89A
:100B70001CC0586180F81FE04577C5638563056236
:100B800085612946386186620263C262FFF728FFE9
:100B90002B4683F311882046F8BD00BFA009002032
:100BA000A106000800000000000000000000000096
:100BB00008B50146202383F311880620FFF7E8FEDD
:100BC000002383F3118808BD00000000000000002E
:100BD00038B50E4B9C692546606255F8280FA8422F
:100BE00006D00368A362FFF7A3FEA06AA842F8D16B
:100BF000637F9B0704D1636922691A61226953618B
:100C00000E20BDE83840FFF7ABBE00BFA0090020B2
:100C1000202383F31188FFF7DBBF00BF0000000033
:100C20000023406000608360704700BF0000000048
:100C3000054A064B0648074922F0070223F007033E
:100C400002600B60704700BF130D002000C0012040
:100C5000C0090020BC0900200000000000000000C6
:100C600010B4202383F31188094C0A4B22681968B9
:100C7000C31D23F00703891A8B429DBF9B18236075
:100C800010460020002383F3118810BC704700BF7A
:100C9000C0090020BC090020000000000000000086
:100CA000044B054A1A6003F1100000229A60DA60D2
:100CB000FFF7B6BFC8090020610C00080000000063
:100CC00008B500F09DFA064800F052FB00F010F85D
:100CD00000F01EF800F02CF8BDE8084000F048BF16
:100CE000B023000800000000000000000000000029
:100CF00000F0E6BC00000000000000000000000062
:100D00000122002302704360704700BF0000000012
:100D100000F066BC000000000000000000000000C1
:100D2000002301220270436083600C30FFF778BF1C
:100D300000F0D6BD00000000000000000000000030
:100D4000002301220270437083704360704700BF2C
:100D500010B52023044683F31188416000F0E8FDBC
:100D600002232370002383F3118810BD00000000CC
:100D700010B52023044683F3118800F089FE012377
:100D80006370002383F3118810BD00BF00000000D2
:100D9000202383F311884378012B04D00020002303
:100DA00083F31188704710B5044600F081FE0023DC
:100DB0006370002383F3118810BD00BF00000000A2
:100DC00010B52023044683F3118800F081FE01232F
:100DD000A370002383F3118810BD00BF0000000042
:100DE000202383F311888378012B04D00020002373
:100DF00083F31188704710B5044600F089FE002384
:100E0000A370002383F3118810BD00BF0000000011
:100E100008B5074B074A196801F03D01996013684E
:100E20000BB150689847BDE80840FFF7E1BB00BF31
:100E300000600240E80900200000000000000000FF
:100E4000084B094819688268890901F03D0110B50D
:100E50008C019C600AB1C0689047BDE81040FFF764
:100E6000C7BB00BF00600240E8090020000000008E
:100E7000084B094819680269090C01F03D0110B5D9
:100E80000C049C600AB140699047BDE81040FFF730
:100E9000AFBB00BF00600240E80900200000000076
:100EA000084B094819688269890D01F03D0110B5A8
:100EB0008C059C600AB1C0699047BDE81040FFF7FF
:100EC00097BB00BF00600240E8090020000000005E
:100ED00008B5074B07485968026A01F03D01D9601F
:100EE0000AB1406A9047BDE80840FFF781BB00BFE8
:100EF00000600240E809002000000000000000003F
:100F0000084B09485968826A890901F03D0110B50A
:100F10008C01DC600AB1C06A9047BDE81040FFF761
:100F200067BB00BF00600240E8090020000000002D
:100F3000084B09485968026B090C01F03D0110B5D6
:100F40000C04DC600AB1406B9047BDE81040FFF72D
:100F50004FBB00BF00600240E80900200000000015
:100F6000084B09485968826B890D01F03D0110B5A5
:100F70008C05DC600AB1C06B9047BDE81040FFF7FC
:100F800037BB00BF00600240E809002000000000FD
:100F900008B5074B07481968026C01F03D019960DC
:100FA0000AB1406C9047BDE80840FFF721BB00BF85
:100FB00000640240E809002000000000000000007A
:100FC000084B09481968826C890901F03D0110B588
:100FD0008C019C600AB1C06C9047BDE81040FFF7DF
:100FE00007BB00BF00640240E809002000000000C9
:100FF000084B09481968026D090C01F03D0110B554
:101000000C049C600AB1406D9047BDE81040FFF7AA
:10101000EFBA00BF00640240E809002000000000B1
:10102000084B09481968826D890D01F03D0110B522
:101030008C059C600AB1C06D9047BDE81040FFF779
:10104000D7BA00BF00640240E80900200000000099
:1010500008B5074B07485968026E01F03D01D96099
:101060000AB1406E9047BDE80840FFF7C1BA00BF23
:1010700000640240E80900200000000000000000B9
:10108000084B09485968826E890901F03D0110B585
:101090008C01DC600AB1C06E9047BDE81040FFF7DC
:1010A000A7BA00BF00640240E80900200000000069
:1010B000084B09485968026F090C01F03D0110B551
:1010C0000C04DC600AB1406F9047BDE81040FFF7A8
:1010D0008FBA00BF00640240E80900200000000051
:1010E000084B09485968826F890D01F03D0110B520
:1010F0008C05DC600AB1C06F9047BDE81040FFF777
:1011000077BA00BF00640240E80900200000000038
:101110000E490F4A0F48002310B40B600E4C1946BD
:1011200001E052F80C0C016044F833100133102B2D
:1011300002F10C02F5D10949094A10BC4FF0FF3306
:101140008B60CB609360D360704700BF680A00205B
:10115000FC22000810600240E80900200060024004
:1011600000640240000000000000000000000000D9
:10117000F8B5204F467A3D68012404FA06FE1EEABF
:10118000050F32D11C4C4EEA050504EBC60E15F0D6
:10119000FF0F3D6044F83620CEF8043004D0174CE1
:1011A000236B43F40013236315F47F4F17D10568B5
:1011B0002B6823F01F032B602B6813F00104FBD175
:1011C000077A46683D23BB40212733602C606F615E
:1011D0006AB10901807AFFF76BFA2046F8BD074C27
:1011E000236B43F480032363E1E72046F8BD1046F8
:1011F000F8BD00BF680A0020E8090020003802405E
:101200001F4B20491A694FF0FF300022F0B51861DA
:101210001A615C6958615A611C6A1B4E1B4F1C4D58
:1012200064F080541C621A620724D3F824E05862E8
:101230005A624F608A600C60F168164841F0807114
:10124000F160296841F001012960196C41F0805179
:101250001964016841F480710160196F01F44071F3
:10126000B1F5007F03D04FF4803119671A67094A3E
:10127000536823F400735360BDE8F040FFF748BFA4
:101280000038024010E000E0F0ED00E03F90020086
:10129000001000E0007000400000000000000000AE
:1012A0002C492D4B4FF080504FF4404208641A6097
:1012B0000B6843F001030B600A68264B9007FBD5CF
:1012C0009A6822F003029A609A689A6019468B68BD
:1012D000204A13F00C03FAD1116801F0F9011160F2
:1012E0009360136843F4803313601168194B8903CA
:1012F000FBD55A6F42F001025A675A6F15499007A1
:10130000FBD5164B4B600B68134A43F080730B60A0
:1013100053685904FCD50F490A680E4B9201FBD55E
:101320000F4A1049996040F2057111609A6842F0C5
:1013300002029A601A469368064903F00C03082BD0
:10134000F9D14B6C43F480434B644B6E43F48043C0
:101350004B66704700380240007000400854400758
:10136000003C02400094083800000000000000002B
:10137000F0B4654D654C2F6B6549664A664B40F28B
:10138000FF1637432F632F6D3E432E65456865601A
:101390008568A560C568E560056965614569256280
:1013A0008569656205682560046A4C60446A8C60E2
:1013B000846ACC60C46A4C61046B0C62446B4C62FE
:1013C000C4690C60C16B5160016C9160416CD1606B
:1013D000816C5161C16C1162016D5162816B116050
:1013E000826D5A60C26D9A60026EDA60426E5A6116
:1013F000826E1A62C26E5A62426D1A60426FC3F800
:101400000424826FC3F80824C26FC3F80C24D0F8F8
:101410008020C3F81424D0F88420C3F82024D0F806
:101420008820C3F82424026FC3F80024D0F8902049
:10143000C3F80428D0F89420C3F80828D0F89820DE
:10144000C3F80C28D0F89C20C3F81428D0F8A020AA
:10145000C3F82028D0F8A420C3F82428D0F88C2082
:10146000C3F8002803F54063D0F8AC205A60D0F8E8
:10147000B0209A60D0F8B420DA60D0F8B8205A6171
:10148000D0F8BC201A62D0F8C0205A62D0F8A82048
:101490001A60D0F8C820C3F80424D0F8CC20C3F8D0
:1014A0000824D0F8D020C3F80C24D0F8D420C3F8F6
:1014B0001424D0F8D820C3F82024D0F8DC20C3F8B6
:1014C0002424D0F8C420C3F80024D0F8E420C3F8C2
:1014D0000428D0F8E820C3F80828D0F8EC20C3F896
:1014E0000C28D0F8F020C3F81428D0F8F420C3F862
:1014F0002028D0F8F820C3F82428D0F8E020C3F83A
:101500000028F0BC704700BF0038024000000240D5
:101510000004024000080240000C024000000000ED
:101520002DE9F04F4FF00F0C02F0030EC2F38007CD
:10153000C2F3C106C2F341150024C2F3C3124FF037
:1015400001094FF0030830E0D0F820B02BEA030384
:1015500043EA0A030362436809FA04FA23EA0A0326
:101560003B4343606300D0F808A008FA03F3DB4371
:101570000AEA030A4AEA060AC0F808A0D0F80CA052
:1015800003EA0A0A4AEA050AC0F80CA0D0F800A04B
:1015900003EA0A0343EA0E030360490819D07F00F7
:1015A000B600AD004FEA8E0E013404F007039B0035
:1015B00011F0010F02FA03FA0CFA03F3EDD0072C35
:1015C000C2D9D0F824B02BEA030343EA0A034362EA
:1015D000C1E7BDE8F08F00BF000000000000000080
:1015E00010B50A4C0A4B4FF6FF7220461A80FFF7DF
:1015F00097FB084B08480949094AE06103F10C00D0
:1016000023626062A162E26210BD00BF700A002026
:101610006C0A002014230008003800401600010066
:101620004600010000000000000000000000000073
:1016300008B50648064A43686FF001019B681161CE
:101640009847BDE80840FEF7D3BF00BFA00A0020BE
:101650000000014000000000000000000000000049
:10166000134B10B51C69DA681440A4B2E2B2D2433D
:10167000A0071A6117D4610710D4220709D4E30622
:1016800003D50C4843689B6A9847BDE81040FEF7B5
:10169000AFBF084843681B6A9847F0E705484368AE
:1016A0009B699847E9E7034843681B699847E2E765
:1016B00000000140A00A002000000000000000001F
:1016C00010B5034C2046FFF71BFB024B236110BDF6
:1016D000A00A0020000001400000000000000000FF
:1016E00001690A68136823F01F0313601368DB079E
:1016F000FCD430B444690D7A496822683D23AB407C
:101700000B60136823F01F031360136813F00103C9
:10171000FBD1257A826860683D21A940016030BC18
:101720009381138293827047000000000000000044
:101730002DE9F0418668B3893488B18840F20F12F0
:10174000A4B2224007469DB2E2B143681B694FF63E
:10175000FF623280B3B114F0080F0CBF00211021DA
:10176000E20748BF41F00401A00748BF41F008016B
:10177000620748BF41F02001E00548BF41F0400149
:101780003846984762060FD56B060DD57A6825F066
:10179000400352689BB24FF6BF713180B3811AB1DA
:1017A0003846BDE8F0411047BDE8F0810000000078
:1017B00011F00C0F38B5044623D161690A6813682B
:1017C00023F01F0313601368DB07FCD462680D7AF3
:1017D000486851683D23AB40036029B1A1688B89FB
:1017E0009BB243F040038B811368022262702BB1DD
:1017F000204698476378022B00D038BD00236370E1
:1018000038BDFEF7BDFED8E7000000000000000074
:1018100011F00C0F70B504463BD1A3784BB9636847
:10182000DB68002B34D0218B204689B2BDE87040A4
:10183000184721690A68136823F01F0313601368AF
:10184000DB07FCD460680D7A4E6881683D23AB40AD
:1018500002253360A57039B120468847A378AB4292
:1018600016D1236960681A68C168E368002914BF4B
:101870004FF488714FF480710B430025012104F16E
:101880001800A570D0605160136013680B4313609B
:1018900070BDFEF775FEC0E700000000000000000C
:1018A00008B50348FFF744FFBDE80840FEF7A0BEB7
:1018B000B40A00200000000000000000000000004A
:1018C00008B50348FFF734FFBDE80840FEF790BEB7
:1018D000D00A00200000000000000000000000000E
:1018E00070B50C4D0C4C0D4E2846FFF729FA0C4BE9
:1018F000AB60062204F10C0330462C616B61EA6098
:10190000FFF71EFA074BB36004F13C0378343361F0
:10191000746170BDB40A00202C230008D00A002096
:1019200000440040001401400000000000000000DE
:10193000F8B50378012B04463FD085680023A370D7
:1019400063702046FFF7CCFEA368484A93424CD010
:1019500002F58062934248D06268454B5169B3FBFF
:10196000F1F39BB22B81D768138B508B918B22693B
:101970002E88AE88E6681268002F43F404534FF0B7
:1019800000072F8040F0400014BF4FF488774FF4D9
:10199000807743F00C0341F0C1019BB23E4380B21B
:1019A000012789B218342882A982AB81D46057609C
:1019B000166013683B431360F8BD2E4B98423BD032
:1019C0002D4B98421ED063681B8B03F4A053B3F5D4
:1019D000805F12D022696369A568106819680022C7
:1019E0002B1D83608B602283A8E76268234B5169BB
:1019F000B3FBF1F39BB22B81B5E7E36843F42053CB
:101A0000E360E7E703461E4A00690C21FFF7B0FBDD
:101A100023461C4A60690C21FFF7AAFB1A4A536C43
:101A200043F020035364C0214720FEF741FEE368E2
:101A300043F02063E360C6E70346114A00690C21C6
:101A4000FFF796FB23460F4A60690C21FFF790FBD6
:101A50000D4A136C43F400331364C0212620FEF7B3
:101A600027FEE36843F00063E360ACE70010014049
:101A700080DE8002B40A0020D00A002000BD0105EB
:101A800011180008B11700080038024000000000DB
:101A90004369C0681B6840F48A60DA605960186066
:101AA0001A6842F001021A60704700BF000000008F
:101AB00041690A68136823F01F0313601368DB078A
:101AC000FCD4087A49683D2383400B605068704716
:101AD00070B405692C68236823F01F032360236812
:101AE000DB07FCD42E7A6D683D23B3402B60C368BE
:101AF000E26043F4826361602360236843F0010382
:101B0000236070BC704700BF0000000000000000B0
:101B1000014600690268136823F01F03136013680D
:101B2000DB07FCD430B44B68057ADC6840683D23A1
:101B3000AB400360CB685068002C0CBF4FF480743E
:101B40004FF48874234318310124D160546013602A
:101B500013682343136030BC704700BF00000000CF
:101B6000FFF79EBB00000000000000000000000026
:101B7000704700BF000000000000000000000000EF
:101B80000349044B01204FF4004208705A83704708
:101B9000080D0020000C02400000000000000000C2
:101BA0000A4808B501224FF480410446FFF7B8FC0B
:101BB0004FF480452E4626834FF4FA70FEF7F8FF67
:101BC00065834FF4FA70FEF7F3FFF4E7000C024070
:101BD0002DE9F84F07462A48DFF8B89090468A4624
:101BE000FFF7FEF80120FEF7E3FF2548FFF7D0F8E6
:101BF0000120FEF7DDFF234B4FF47A7608EB030B51
:101C00003024214D05F164022B4603F8014F934225
:101C1000FBD13846FEF75CFB3A4601461848FFF711
:101C2000A7F80120FEF7C4FF184A15484146FFF700
:101C3000C7F899F8003053B96420FEF7B9FF013EA8
:101C4000DFD10023304689F80030BDE8F88FB8F1C5
:101C5000000F06D00B4B13F8012F05F8012F5B4541
:101C6000F9D151460A4800F07BF90028E4D06420FD
:101C7000FEF79EFF0023012089F80030BDE8F88FB1
:101C8000B40A00203F0C0020A30C0020400C0020D0
:101C9000A40C0020080D002000000000000000003F
:101CA0002DE9F0414FF0010E744600254FF0FF364C
:101CB0002B198B4200EB06070DD23F5D10F803C0D5
:101CC000BC452DD21D460124C6EB030E2B198B42B9
:101CD00000EB0607F1D34FF00108C2F800E04446DC
:101CE00000254FF0FF372B19994200EB070E0ED954
:101CF0001EF804E010F803C0F44518D91D4601246D
:101D0000C7EB03082B19994200EB070EF0D80137F7
:101D1000701C874224BFC2F800803846BDE8F081BD
:101D20000CD04FF0010E2E4674467544C0E70CD01F
:101D30004FF001082F4644464544D4E7744509BF97
:101D4000A64601341D460124B2E7444509BFA0461A
:101D500001341D460124C6E7000000000000000019
:101D60002DE9F04FADF2144D164605468B46104650
:101D7000194603AA1C46FFF793FF03AB81460DF2F9
:101D80000C4243F8044F9342FBD14CB1631E3246E0
:101D900004A812F8011B40F8213013F1FF33F8D2E8
:101DA00003994A463144304600F0EAF9002871D1DF
:101DB00009F1FF330093F3188246019323468046CE
:101DC000544658469A4608EB0A073A1A0021284416
:101DD000FEF7EEFA002858D1002F56D0EB1904AACE
:101DE00013F8013C52F823304BB124B1039A9342CB
:101DF00001D2C2EB0A03984400243846E3E74C457D
:101E000023460AF1FF3E38BF4B46734513D208EB19
:101E1000030216F803C0A85C84452A4406EB0301BC
:101E200006D02EE011F801CF12F8010F844528D119
:101E300001337345F6D34C45009980F08B80009BAD
:101E4000019808EB03020378A85C83422A4440F01F
:101E50008180019B06EB040B06E013F801ED12F8FC
:101E6000010D864504D161469B4501F1FF3CF4D14B
:101E700001348C4270D8039C3846A044C4EB0A0459
:101E8000A1E7C9F101029044B5E700200DF2144D1D
:101E9000BDE8F08FC9EB04034B4538BF4B46013317
:101EA00009F1FF38039306EB080358464FF0000A88
:101EB000CB4699460AEB04073A1A00212844FEF75C
:101EC00077FA0028E1D1002FDFD0EB1904AA13F82C
:101ED000013C52F82330A3BB611E8B4515D20AEB9F
:101EE0000B0216F80B3015F802E09E452A4406EB6B
:101EF0000B005B4606D027E010F801CF12F801EF87
:101F0000F44521D101338B42F6D3B8F1FF3F11D014
:101F10000AEB080299F80010AB5C99422A440FD1F1
:101F20004B4605E013F8010D12F8011D884207D158
:101F3000B342F7D105EB0A000DF2144DBDE8F08F66
:101F4000039B9A443846B5E7CBF1010292449A4488
:101F50003846AFE749468BE705EB080096E700BF38
:101F60000378002B00F004812DE9F04F91F80080F8
:101F700085B04446B8F1000F16D0864601F1010C39
:101F8000012703E012F8014B6CB194469C4214BF48
:101F9000002707F001071EF8013F6246002BF1D130
:101FA0009CF800300BBB17B105B0BDE8F08F0E46B2
:101FB000054641460130C6EB0C0400F019F907460E
:101FC00098B1012CF0D02819874294BFC7EB000BC1
:101FD0004FF0010B1F2C0CD9234632465946384688
:101FE000FFF7BEFE05B0BDE8F08F002005B0BDE8EC
:101FF000F08F03AA21463046FFF752FE0399804630
:1020000002463144304600F0BBF8002858D108F1B0
:10201000FF330193F3188146054600935846B246B4
:102020006619321A00213844FEF7C2F90028DCD1C3
:10203000002EDAD0C845434638BF4B469C4212D9E1
:102040005A191AF80310B85C88423A440AEB030E96
:1020500006D02DE01EF8010F12F8011F884227D18B
:1020600001339C42F6D8019BC845194640F2838053
:10207000EA1800980378B85C83423A447BD1009B0D
:102080000AEB090B06E013F801CD12F801EDF44557
:1020900004D101465B4501F1FF30F4D109F101099A
:1020A000894557D8039B30461D44C3EB0409B7E765
:1020B000C8F1010215441D444FF000093046AFE756
:1020C000C8EB0403434538BF4346013308F1FF39E9
:1020D000039306EB090358460025BB469A46671949
:1020E0003A1A00215844FEF763F900287FF47DAFC7
:1020F000002F3FF47AAF444515D908EB050216F8D6
:1021000008301BF8020098425A4406EB0801434687
:1021100006D023E011F801EF12F8010F86451DD11A
:1021200001339C42F6D8B9F1FF3F12D005EB09020A
:102130009AF800101BF8023099425A4414D15346C1
:1021400005E013F8010D12F8011D88420CD1B342CD
:10215000F7D15F46781905B0BDE8F08FC8F10102EC
:1021600015441D443846BAE7039B38461D44B6E77C
:102170000B7813B97047414690E70020704700BFC5
:10218000032A70B426D940EA01039B0711D00478D2
:102190000D78AC4222D10244431C05E013F8014BF8
:1021A00011F8015FAC4219D19342F7D1002070BC05
:1021B00070470C4603461E682568AE421846214605
:1021C00003F1040304F10404E1D1043A032A18469C
:1021D0002146F0D8002ADAD11046E8E7601B70BC2F
:1021E000704700BF00000000000000000000000079
:1021F00070B411F0FF0434D085070FD00378002BA2
:102200005AD09C422BD0431C05E013F8012B002A26
:102210004FD0944223D09A071846F6D10E0206F406
:102220007F462643036846EA064601E050F8043F2D
:1022300086EA0305A5F10132A3F1013122EA050284
:1022400021EA0303134313F0803FEFD0037823B94F
:1022500032E010F8013F002B2ED09C42F9D170BC27
:10226000704784070BD00378002BF8D0431C03E0A1
:1022700002780133002AF2D099071846F8D1026893
:10228000A2F1013323EA020313F0803F08D150F892
:10229000042FA2F1013323EA020313F0803FF6D0AA
:1022A0000378002BDBD010F8013F002BFBD170BC72
:1022B0007047104670BC7047184670BC704700BF2E
:1022C00069646C6500000000000000000000000070
:1022D0006D61696E00168811040448080C1014180A
:1022E000001C1D1E1F200000000000000000000058
:1022F000106002400860024000000B0028600240AD
:102300000860024006010C00406002400860024084
:1023100010020D00586002400860024016030E00D3
:10232000706002400C60024000040F0088600240B0
:102330000C60024006051000A06002400C600240E4
:1023400010061100B86002400C60024016072F0012
:10235000106402400864024000083800286402400B
:1023600008640240060939004064024008640240E3
:10237000100A3A005864024008640240160B3B0001
:10238000706402400C640240000C3C00886402400F
:102390000C640240060D4400A06402400C6402403C
:1023A000100E4500B86402400C640240160F46004F
:1023B00000AAA02A00000000FFABFFFF540001406C
:1023C000FFFF00000000565500AA0A008020080008
:1023D00040020000FFFFFFFF15455155FFFF0000C1
:1023E0000000000440000000018020020000000006
:1023F000FFFFFFFF54154554FFFF00000000006081
:10240000000606000001005500000000FFFFFFFF6E
:1024100055505500FF0F00000000000000000000B4
:102420004000000000000000FFFFFFFF0000000070
:10243000FFFF00000000000000000000000000009E
:1024400000000000FFFFFFFF00000000FFFF000092
:10245000000000000000000000000000000000007C
:10246000FFFFFFFF00000000FFFF00000000000072
:10247000000000000000000000000000FFFFFFFF60
:1024800000000000FFFF000000000000000000004E
:102490000000000000000000FFFFFFFF0000000040
:1024A000FFFF00000000000000000000000000002E
:0C24B0004F4B000041540D0A00000000DA
:1024C000000000000000000000000000000000000C
:1024D0000000000080250000000000400000000017
:1024E0000A2A2A2A2A2A2A2A2A2A2A20696E69637B
:1024F000696F202A2A2A2A2A2A2A2A2A2A2A2A2AC2
:102500002A0A00000000000000000000811B0008F3
:10251000000000000000000000C2010000000040B8
:0425200000000000B7
:04000005080004717A
:00000001FF
